:100000000C9451000C9479000C9479000C947900B4
:100010000C9479000C9479000C940B2F0C947900BB
:100020000C9479000C9479000C9479000C9479006C
:100030000C9479000C9479000C9479000C9479005C
:100040000C9479000C9479000C9479000C9479004C
:100050000C949C2E0C9479000C9479000C947900EB
:100060000C94C12E0C9479000C9479000C947900B6
:100070000C9479000C94522E0C9479000C94790015
:100080000C9479000C9479000C94E62E0C94772E45
:100090000C94EE2D0C94562F0C94302F0C94790068
:1000A0009F2F11241FBECFEFCDBFDFE3DEBF18E2CD
:1000B000A0E0B8E2EFE3F3EA02C005900D92A632A9
:1000C000B107D9F72DE2A6E2B8E201C01D92AF3D1B
:1000D000B207E1F710E0C1E5D0E004C02197FE01CE
:1000E0000E94D748C035D107C9F70E94DC2F0C9475
:1000F000DD480C94000090E0FC01E85FFC41E081E9
:10010000EF3F39F182519D41DC012C91822F880F04
:10011000880F880F8E0F8033E0F490E0880F991FCE
:10012000DC01A054B34D6D937C93805A934DDC0158
:100130001D921C92B0E22B9FC00111249C5F40963F
:10014000E80FF92FF11D8081887F80838081826094
:1001500080830895FC0154894589252F30E0842F40
:1001600090E0821B930B541710F0CF9608950197DF
:100170000895FC0192898389981761F0A389AE0FD5
:10018000BF2FB11D59968C9193899F5F9F73938B5D
:1001900090E008958FEF9FEF0895FC019289838985
:1001A000981731F08389E80FF11D818D90E0089553
:1001B0008FEF9FEF0895FC0192892389892F90E0AA
:1001C000805C9F4F821B91098F7399270895CF936D
:1001D000DF93EC01E881F9810680F781E02D099534
:1001E000EC85FD8586818F738683EC85FD85858111
:1001F0008F7585838B898A8B198ADF91CF910895BA
:10020000CF93DF93FC0194898589C485D5859813A4
:1002100006C08D818F7D8D83DF91CF910895A58953
:10022000AE0FBF2FB11DA75ABF4F2C91858990E00B
:1002300001968F739927858B80E48C83A485B5857F
:1002400012962C93948985899813E6CFA485B58559
:1002500015968C9115978F7D15968C938789882399
:10026000D9F2808D80931301178AD6CFDC011C96BA
:10027000ED91FC910FB607FE03C0258125FD04C05A
:10028000248125FD0C9400010895EF92FF920F93B5
:100290001F93CF93DF93EC0181E0898B9C898D893B
:1002A00098131CC0AC85BD8514968C91149785FF5E
:1002B00015C012966C93AC85BD8580E414968C9322
:1002C000EC85FD8585818F7D858381E090E0DF91E0
:1002D000CF911F910F91FF90EF90089580911101A0
:1002E00080FF08C080911301888F8E89809313014D
:1002F00081E08F8BF62E0C8910E00F5F1F4F0F737C
:100300001127E02E8D898E1104C0CE010E94360186
:10031000F9CFEC89EC0FFD2FF11DE75AFF4FF0826A
:100320000C8BEC85FD8585818062CECFCF93DF93EA
:10033000FC0121892223C9F0EC018091110180FF89
:1003400008C080911301808F86898093130181E01A
:10035000878BEC85FD85858185FD03C0848186FDC5
:1003600004C0CE010E943601F4CFDF91CF910895F1
:10037000282F30E0F901EC52FD4140814F3F09F454
:100380004EC08B3258F4F901E654FD41E081EE2372
:1003900029F0E13099F010F0E63010F1F901E25166
:1003A000FD41E081A0E2EA9FF0011124FC5F808121
:1003B000842311F1672BF1F446830895E091010A3B
:1003C000D901A85FBC415C915C5F81E090E001C015
:1003D000880F5A95EAF780958E238093010ADECF25
:1003E00080E1E89FF0011124E05AF54F81818F7E72
:1003F0008183D4CF45830895285F3C41D9018C91F6
:10040000309771F08F3F61F07096E80FF11D9FB744
:10041000F8948081672B39F4877F80839FBF08958C
:10042000F0E0E0E0F4CF8860F8CFCF93DF9390E086
:10043000FC01EC52FD4120812F3F71F0FC01E251A3
:10044000FD41A08130E2A39FD0011124BC5F613047
:10045000710529F411962C93DF91CF910895885F4F
:100460009C41EC01E881EF3F89F0CD014096E80F17
:10047000F92FF11D9FB7F89412962C93808162306A
:10048000710539F4886080839FBFE6CFF0E0E0E03B
:10049000F1CF877FF8CFCF92DF92EF92FF920F9349
:1004A0001F93CF93DF93EC016A017B01022F8989AF
:1004B000882339F0E881F9810288F389E02DCE01A3
:1004C000099598898091E205892B8093E2051FB7F1
:1004D000F89460E070E281EA97E0A70196010E943B
:1004E000D74669017A018FEFC81AD80AE80AF80AD4
:1004F000F694E794D794C794EC85FD8586818D7F2B
:100500008683EC85FD8586818683198AA0912311D7
:100510000A2E000CBB0BA70196010E94CF4620E0DB
:1005200034E040E050E00E94A546EC85FD85C20E17
:10053000D31EE41EF51EC086D186EC85FD8507839B
:10054000EC85FD858681806C8683EC85FD858581C3
:10055000806885838E858B3220F462E070E00E9493
:1005600015028F858B3220F461E070E00E94B801A3
:100570008F858B3220F461E070E00E9415021FBF6E
:10058000DF91CF911F910F91FF90EF90DF90CF906F
:100590000895E82FF0E0EE54FD418E30B8F48081EC
:1005A0008F30B0F48093060681E080930806809136
:1005B0000B0680FFFCCF2FB7F89490911006809126
:1005C00011062FBF89279827892708953E97E7CFDF
:1005D0008FEF90E00895CF93DF938FB7F894209139
:1005E000542C3091552C4091562C5091572CE09121
:1005F000BA0A9091B60A90FF06C02F5F3F4F4F4F47
:100600005F4FE091BA0A8FBFA0915E2CB0915F2C32
:10061000C0915C2CD0915D2C0E94C446EC9F90014F
:10062000ED9F300D1124620F731F811D911DDF910D
:10063000CF9108958F929F92AF92BF92EF92FF92C7
:100640001F93CF93DF93EC014A015B01790111E025
:1006500081149104A104B10409F410E00E94EB029A
:10066000FE013296AE014E5E5F4FE417F50798F536
:1006700020813181232B11F07096F7CF309759F1FB
:10068000288139812F5F3F4F19F1288339834881B1
:10069000598146875787E082F182128213826483F0
:1006A00075838683978380869186A286B386212F61
:1006B00030E024873587CF0184279527DF91CF91BC
:1006C0001F91FF90EF90BF90AF909F908F900895F3
:1006D00021E030E0DACF90E080E0F0CF8F929F927F
:1006E000AF92BF92CF92DF92EF92FF924B015C01EB
:1006F0000E94EB026B017C01A8EEB3E0A50194011E
:100700000E94C446C60ED71EE81EF91EC616D7069E
:10071000E806F90618F40E94EB02F8CF0E94EB02FB
:100720006C157D058E059F05C8F3FF90EF90DF9057
:10073000CF90BF90AF909F908F9008952FB7F8946F
:100740006091502C7091512C8091522C9091532C8F
:100750002FBF0895AF92BF92CF92DF92EF92FF9298
:100760000F931F93CF93DF936C017B018B01040FD9
:10077000151FEB015E01AE18BF08C017D10759F075
:100780006991D601ED91FC910190F081E02DC601B7
:100790000995892B79F7C501DF91CF911F910F91B1
:1007A000FF90EF90DF90CF90BF90AF900895EF92C1
:1007B000FF920F931F93CF93DF93C82FD0E0A096A3
:1007C00095E0CC0FDD1F9A95E1F7E984F82EFF0C38
:1007D000FF0CFF0C01E010E08E2D8023A9F02F2DDF
:1007E000210F30E0220F331FF901E054F34D8081D7
:1007F0009181892B49F00190F081E02D205A334DF1
:10080000D9018D919C9109951F5F000F183021F738
:10081000E986DF91CF911F910F91FF90EF9008959E
:1008200081E008954F925F926F927F928F929F9294
:10083000AF92BF92CF92DF92EF92FF920F931F93EE
:10084000CF93DF938C010E94EB026B017C01E801E6
:10085000229688248A94982C54010E5E1F4FC0174C
:10086000D10748F588819981892B01F10E94EB021B
:100870004C805D806E807F80AB01BC0144195509BE
:100880006609770988859985AA85BB854817590720
:100890006A077B0768F4841B950BA60BB70B8815BA
:1008A0009905AA05BB0510F44C015D016096D7CFF0
:1008B000812C912C54010E94EB02DC01CB018C199C
:1008C0009D09AE09BF0988159905AA05BB05F8F46D
:1008D0002FEF82169206A206B206C9F0A501940176
:1008E000281B390B4A0B5B0BCA01B901DF91CF9171
:1008F0001F910F91FF90EF90DF90CF90BF90AF903E
:100900009F908F907F906F905F904F90089560E0E0
:1009100070E0CB01EBCFAF92BF92CF92DF92EF921C
:10092000FF920F931F93CF93DF93EC0122968C01DC
:100930000E5E1F4FAA24A394B12CC017D10708F054
:1009400041C088819981892B51F10E94EB026B0192
:100950007C018C819D81AE81BF81A7019601281BFE
:10096000390B4A0B5B0BDA01C901488559856A8549
:100970007B8584179507A607B70788F0E881F9817A
:100980008A819B810995882361F08C859D85892BBF
:1009900041F0AC86BD86CC82DD82EE82FF8260961D
:1009A000CCCF188219821A821B821C821D821E8261
:1009B0001F82188619861A861B861C861D861E862F
:1009C0001F86EDCFDF91CF911F910F91FF90EF9098
:1009D000DF90CF90BF90AF900895CF92DF92EF92CB
:1009E000FF926B017C01FA0150E040E0421753078F
:1009F000A9F081919191A191B1918C159D05AE05C0
:100A0000BF0548F4805F984DAF4FBF4FC816D90659
:100A1000EA06FB0648F04F5F5F4FE8CF80E0FF90AB
:100A2000EF90DF90CF90089581E0F9CF4F925F92E1
:100A30006F927F928F929F92AF92BF92CF92DF92EE
:100A4000EF92FF920F931F93CF93DF930E94EB02DD
:100A50004B015C012091EC2B3091ED2BE090DC2BD5
:100A6000F090DD2B0091CC2B1091CD2BC091BC2BA5
:100A7000D091BD2B80914F2B9091502B52E1C52EE0
:100A800052EDD52E892B21F442E1C42E4AEDD42E0D
:100A900080910B2C90910C2C892BE9F08091FA2BF2
:100AA0009091FB2B0697B9F48091EE2B9091EF2B50
:100AB000A091F02BB091F12BB501A401481B590B6B
:100AC0006A0B7B0B81E0403157426105710508F0EC
:100AD00080E080934C2C80910629882391F18091AD
:100AE000A9289091AA280196E0E1F0E0BF010E94B8
:100AF000C3488093A9289093AA288091A728909111
:100B0000A8280196BF010E94C3488093A72890930C
:100B1000A8288091A5289091A6280196BF010E943F
:100B2000C3488093A5289093A6288091A3289091EC
:100B3000A4280196BF010E94C3488093A3289093E4
:100B4000A4288091E12B882321F01092A9281092EB
:100B5000AA288091D12B882321F01092A7281092E7
:100B6000A8288091C12B882321F01092A5281092EB
:100B7000A6288091B12B882321F01092A3281092EF
:100B8000A4288091082C9091092C892B09F446C047
:100B90008091F82B9091F92B069709F03FC036957C
:100BA000322F2227379527952C0D3D1DE091F428F3
:100BB000F091F528EE0FFF1FE20FF31F81E0408157
:100BC0005181452B09F480E08093B6288091A928B3
:100BD0009091AA28880F991F280F391FF9012081A9
:100BE0003181223031050CF016C1232BA1F0809108
:100BF000FD289091FE28A091FF28B0910029B50111
:100C0000A401481B590B6A0B7B0B81E04838534108
:100C10006105710508F080E08093492C8091052CD6
:100C20009091062C892B09F448C08091F62B909165
:100C3000F72B069709F041C0F694FE2CEE24F794AA
:100C4000E794EC0CFD1CE091F428F091F5287096E7
:100C5000EE0FFF1FEE0DFF1D81E020813181232B60
:100C600009F480E08093B3288091A7289091A82868
:100C70004096880F991FE80EF91EF70120813181F7
:100C8000223031050CF0F1C0232BA1F08091FD281A
:100C90009091FE28A091FF28B0910029B501A401F0
:100CA000481B590B6A0B7B0B81E0483853416105A7
:100CB000710508F080E08093472C8091022C909180
:100CC000032C892B09F448C08091F42B9091F52BCB
:100CD000069709F041C01695102F00271795079524
:100CE0000C0D1D1DE091F428F091F528B096EE0F43
:100CF000FF1FE00FF11F81E020813181232B09F4D8
:100D000080E08093B0288091A5289091A6288096B5
:100D1000880F991F080F191FF80120813181223097
:100D200031050CF0CCC0232BA1F08091FD289091CF
:100D3000FE28A091FF28B0910029B501A401481B0D
:100D4000590B6A0B7B0B81E04838534161057105F3
:100D500008F080E08093452C8091FF2B9091002C2F
:100D6000892B09F447C08091F22B9091F32B0697C1
:100D700009F040C0D695DC2FCC27D795C795CC0E6F
:100D8000DD1EE091F428F091F528F096EE0FFF1F9C
:100D9000EC0DFD1D81E020813181232B09F480E0E1
:100DA0008093AD28C091A328D091A428E096CC0FC1
:100DB000DD1FCC0DDD1D28813981223031050CF07D
:100DC000A8C0232BA1F08091FD289091FE28A0912E
:100DD000FF28B0910029881A990AAA0ABB0A81E063
:100DE00098E8891693E19906A104B10408F080E01F
:100DF0008093432CDF91CF911F910F91FF90EF9043
:100E0000DF90CF90BF90AF909F908F907F906F902A
:100E10005F904F9008958091242990912529A09169
:100E20002629B091272924013501481A590A6A0A4E
:100E30007B0A032E000C440B550B60912029709106
:100E4000212980912229909123290E94D746C3010C
:100E5000B2010E94D74621E06838734181059105AF
:100E600008F020E02093492CD9CE8091242990913C
:100E70002529A0912629B091272924013501481A56
:100E8000590A6A0A7B0A032E000C440B550B609129
:100E900020297091212980912229909123290E9453
:100EA000D746C301B2010E94D74621E0683873419A
:100EB0008105910508F020E02093472CFECE80911B
:100EC000242990912529A0912629B0912729240130
:100ED0003501481A590A6A0A7B0A032E000C440B92
:100EE000550B6091202970912129809122299091A0
:100EF00023290E94D746C301B2010E94D74621E0B0
:100F0000683873418105910508F020E02093452C55
:100F100023CF8091242990912529A0912629B09151
:100F20002729881A990AAA0ABB0A032E000C440B27
:100F3000550B60912029709121298091222990914F
:100F400023290E94D746C501B4010E94D74621E05B
:100F5000683873418105910508F020E02093432C07
:100F600049CF8F929F92AF92BF92CF92DF92EF9232
:100F7000FF92CF93DF9380910B2C90910C2C892BB7
:100F8000E9F08091FA2B9091FB2B0397B9F40E9422
:100F9000EB02C090EE2BD090EF2BE090F02BF09076
:100FA000F12B6C197D098E099F0921E06031774290
:100FB0008105910508F020E020934C2C8091082CAD
:100FC0009091092C892B09F4D1C08091F82B909134
:100FD000F92B039709F0CAC08091E12B2091EC2BEB
:100FE0003091ED2B2930310508F453C3811104C031
:100FF0008091A228882371F110929E2810929F2838
:101000001092A0281092A12840910C2850910D28F0
:101010008091A22B9091A32B969587952AE032E0A0
:10102000281B390B440F551FFA01EE5FFD42A081CA
:10103000B1810E94F9464E505E42FA012081318111
:1010400050E040E00E94D74620939C2830939D2892
:101050001092A22880909E2890909F28A090A0286F
:10106000B090A128C0919C28D0919D286E01F12CB0
:10107000E12CFAE08F169104A104B104F0F4409140
:101080000C2850910D28440F551FFA01EE5FFD42C8
:1010900020813181A8EEB3E00E94F9464E505E42B5
:1010A000FA012081318150E040E00E94D74681E082
:1010B000C216D306E406F50608F080E08093492CBA
:1010C000C814D904EA04FB04F0F510929E2810928B
:1010D0009F281092A0281092A12840910C2850918E
:1010E0000D282091A22B3091A32B81E094E0821B4C
:1010F000930B6091602970916129869F9001879F71
:10110000300D969F300D112463E0369527956A9532
:10111000E1F72F5F3F4F440F551FFA01EE5FFD428D
:10112000A081B1810E94F9464E505E42FA012081B1
:10113000318150E040E00E94D7462C0F3D1F2093A4
:101140009C2830939D2880919E2890919F28A09163
:10115000A028B091A1280196A11DB11D80939E28C1
:1011600090939F28A093A028B093A1288091052C4C
:101170009091062C892B09F4D1C08091F62B909187
:10118000F72B039709F0CAC08091D12B2091DC2B5B
:101190003091DD2B2930310508F403C3811104C0DF
:1011A00080919B28882371F110929728109298289B
:1011B0001092992810929A2840910E2850910F2849
:1011C0008091922B9091932B969587952AE032E00F
:1011D000281B390B440F551FFA01EE5FFD42A08119
:1011E000B1810E94F9464E505E42FA012081318160
:1011F00050E040E00E94D7462093952830939628EF
:1012000010929B288090972890909828A0909928D9
:10121000B0909A28C0919528D09196286E01F12C13
:10122000E12CFAE08F169104A104B104F0F440918E
:101230000E2850910F28440F551FFA01EE5FFD4212
:1012400020813181A8EEB3E00E94F9464E505E4203
:10125000FA012081318150E040E00E94D74681E0D0
:10126000C216D306E406F50608F080E08093472C0A
:10127000C814D904EA04FB04F0F5109297281092E0
:1012800098281092992810929A2840910E285091EF
:101290000F282091922B3091932B81E094E0821BB8
:1012A000930B60915E2970915F29869F9001879FC3
:1012B000300D969F300D1124F3E036952795FA9561
:1012C000E1F72F5F3F4F440F551FFA01EE5FFD42DC
:1012D000A081B1810E94F9464E505E42FA01208100
:1012E000318150E040E00E94D7462C0F3D1F2093F3
:1012F0009528309396288091972890919828A091CE
:101300009928B0919A280196A11DB11D8093972824
:1013100090939828A0939928B0939A288091022CB2
:101320009091032C892B09F4D1C08091F42B9091DA
:10133000F52B039709F0CAC08091C12B2091CC2BCB
:101340003091CD2B2930310508F4B3C2811104C08E
:1013500080919428882371F11092902810929128FE
:1013600010929228109293284091102850911128A1
:101370008091822B9091832B969587952AE032E07D
:10138000281B390B440F551FFA01EE5FFD42A08167
:10139000B1810E94F9464E505E42FA0120813181AE
:1013A00050E040E00E94D74620938E2830938F284B
:1013B000109294288090902890909128A090922844
:1013C000B0909328C0918E28D0918F286E01F12C77
:1013D000E12CFAE08F169104A104B104F0F44091DD
:1013E000102850911128440F551FFA01EE5FFD425D
:1013F00020813181A8EEB3E00E94F9464E505E4252
:10140000FA012081318150E040E00E94D74681E01E
:10141000C216D306E406F50608F080E08093452C5A
:10142000C814D904EA04FB04F0F510929028109235
:101430009128109292281092932840911028509150
:1014400011282091822B3091832B81E094E0821B24
:10145000930B60915C2970915D29869F9001879F15
:10146000300D969F300D112483E0369527958A958F
:10147000E1F72F5F3F4F440F551FFA01EE5FFD422A
:10148000A081B1810E94F9464E505E42FA0120814E
:10149000318150E040E00E94D7462C0F3D1F209341
:1014A0008E2830938F288091902890919128A09138
:1014B0009228B09193280196A11DB11D8093902888
:1014C00090939128A0939228B09393288091FF2B1A
:1014D0009091002C892B09F4D1C08091F22B90912E
:1014E000F32B039709F0CAC08091B12B2091BC2B3C
:1014F0003091BD2B2930310508F463C2811104C03D
:1015000080918D28882371F11092892810928A2861
:1015100010928B2810928C284091122850911328F9
:101520008091722B9091732B969587952AE032E0EB
:10153000281B390B440F551FFA01EE5FFD42A081B5
:10154000B1810E94F9464E505E42FA0120813181FC
:1015500050E040E00E94D7462093872830938828A7
:1015600010928D288090892890908A28A0908B28AE
:10157000B0908C28C0918728D09188286E01F12CDA
:10158000E12CFAE08F169104A104B104F0F440912B
:10159000122850911328440F551FFA01EE5FFD42A7
:1015A00020813181A8EEB3E00E94F9464E505E42A0
:1015B000FA012081318150E040E00E94D74681E06D
:1015C000C216D306E406F50608F080E08093432CAB
:1015D000C814D904EA04FB04F0F51092892810928B
:1015E0008A2810928B2810928C28409112285091B2
:1015F00013282091722B3091732B81E094E0821B91
:10160000930B60915A2970915B29869F9001879F67
:10161000300D969F300D112463E0369527956A951D
:10162000E1F72F5F3F4F440F551FFA01EE5FFD4278
:10163000A081B1810E94F9464E505E42FA0120819C
:10164000318150E040E00E94D7462C0F3D1F20938F
:101650008728309388288091892890918A28A091A2
:101660008B28B0918C280196A11DB11D80938928EB
:1016700090938A28A0938B28B0938C28DF91CF91E8
:10168000FF90EF90DF90CF90BF90AF909F908F90A2
:101690000895811104C08091A228882361F11092DD
:1016A0009E2810929F281092A0281092A128409165
:1016B0000C2850910D282091A22B3091A32B369508
:1016C00027952C593F4F440F551FFA01EE5FFD42FD
:1016D000A081B1810E94F9464E505E42FA012081FC
:1016E000318150E040E00E94D74620939C283093FF
:1016F0009D281092A22840919E2850919F28609189
:10170000A0287091A128C0909C28D0909D284A3094
:1017100051056105710528F481E0FBE0CF16D10485
:1017200008F480E08093492CF12CE12CC416D506F6
:10173000E606F70608F007CD10929E2810929F2823
:101740001092A0281092A1286091602970916129BF
:1017500090E080E00E94A44720E030E040E05EE3BB
:101760000E9432482DEC3CEC4CEC5EE30E94324887
:1017700020E030E040E05FE30E9409474B015C015C
:10178000C701B6010E94A4479B01AC01C501B40189
:101790000E9432480E94754760939C2870939D2850
:1017A000D2CC811104C080919B28882361F11092D2
:1017B0009728109298281092992810929A28409170
:1017C0000E2850910F282091922B3091932B369513
:1017D00027952C593F4F440F551FFA01EE5FFD42EC
:1017E000A081B1810E94F9464E505E42FA012081EB
:1017F000318150E040E00E94D746209395283093F5
:10180000962810929B284091972850919828609193
:10181000992870919A28C0909528D09096284A309F
:1018200051056105710528F481E0FBE0CF16D10474
:1018300008F480E08093472CF12CE12CC416D506E7
:10184000E606F70608F057CD1092972810929828D0
:101850001092992810929A2860915E2970915F29C0
:1018600090E080E00E94A44720E030E040E05EE3AA
:101870000E9432482DEC3CEC4CEC5EE30E94324876
:1018800020E030E040E05FE30E9409474B015C014B
:10189000C701B6010E94A4479B01AC01C501B40178
:1018A0000E9432480E94754760939528709396284D
:1018B00022CD811104C080919428882361F1109277
:1018C000902810929128109292281092932840917B
:1018D0001028509111282091822B3091832B36951E
:1018E00027952C593F4F440F551FFA01EE5FFD42DB
:1018F000A081B1810E94F9464E505E42FA012081DA
:10190000318150E040E00E94D74620938E283093EA
:101910008F2810929428409190285091912860919E
:10192000922870919328C0908E28D0908F284A30AA
:1019300051056105710528F481E0FBE0CF16D10463
:1019400008F480E08093452CF12CE12CC416D506D8
:10195000E606F70608F0A7CD10929028109291287D
:10196000109292281092932860915C2970915D29C1
:1019700090E080E00E94A44720E030E040E05EE399
:101980000E9432482DEC3CEC4CEC5EE30E94324865
:1019900020E030E040E05FE30E9409474B015C013A
:1019A000C701B6010E94A4479B01AC01C501B40167
:1019B0000E9432480E94754760938E2870938F284A
:1019C00072CD811104C080918D28882361F110921D
:1019D000892810928A2810928B2810928C28409186
:1019E0001228509113282091722B3091732B369529
:1019F00027952C593F4F440F551FFA01EE5FFD42CA
:101A0000A081B1810E94F9464E505E42FA012081C8
:101A1000318150E040E00E94D746209387283093E0
:101A2000882810928D284091892850918A286091A9
:101A30008B2870918C28C0908728D09088284A30B5
:101A400051056105710528F481E0FBE0CF16D10452
:101A500008F480E08093432CF12CE12CC416D506C9
:101A6000E606F70608F0F7CD1092892810928A282A
:101A700010928B2810928C2860915A2970915B29C2
:101A800090E080E00E94A44720E030E040E05EE388
:101A90000E9432482DEC3CEC4CEC5EE30E94324854
:101AA00020E030E040E05FE30E9409474B015C0129
:101AB000C701B6010E94A4479B01AC01C501B40156
:101AC0000E9432480E947547609387287093882847
:101AD000C2CD880F991FFC01E65FF74D0190F081A0
:101AE000E02DEE0FFF1FDF01AE5FBD420D90BC91F8
:101AF000A02D209120293091212940912229509117
:101B000023290E94C446EE50FE422081318150E0DC
:101B100040E00E94D746CA01B90108950F931F9370
:101B2000CF93DF932091552B2223C9F1EC0161E083
:101B300070E08DE00E94B80161E070E08DE00E94ED
:101B4000B80161E070E08DE00E94B80110E000E0B3
:101B5000C017D10769F070E060E08DE00E94B80125
:101B600061E070E08DE00E94B8010F5F1F4FF0CF81
:101B700061E070E08DE00E94B80161E070E08DE00E
:101B80000E94B80161E070E08DE00E94B80181E040
:101B900080934A2CDF91CF911F910F910895019668
:101BA000880F991F20914B2C222359F02091D32884
:101BB0003091D428820F931F8093D3289093D428F8
:101BC000E9CF10924A2C8093D3289093D42881E0B7
:101BD00080934B2C2AEA37E140E659E060E070E060
:101BE0008BEB9DE2DF91CF911F910F910C941A0323
:101BF0008091622990916329009779F020910B2CB4
:101C000030910C2C2115310531F0821B930B00977C
:101C100021F00C948E0D0197FACF089520910D2C90
:101C200030910E2C2115310569F08D7F853091059D
:101C300059F42D7F91E080E02130310509F090E0EA
:101C4000292F382FC9010895049731F42130310527
:101C5000C9F322E030E0F6CF30E020E0F3CFCF93BD
:101C6000DF938091082C9091092C892B99F0C091D9
:101C7000F82BD091F92BCE010E940E0E81309105E8
:101C800009F056C08091492C811102C08091072C27
:101C90008093492C8091052C9091062C892B99F0EA
:101CA000C091F62BD091F72BCE010E940E0E813001
:101CB000910509F060C08091472C811102C080918C
:101CC000042C8093472C8091022C9091032C892B1B
:101CD00099F0C091F42BD091F52BCE010E940E0EFD
:101CE0008130910509F06AC08091452C811102C0B4
:101CF0008091012C8093452C8091FF2B9091002C9A
:101D0000892B99F0C091F22BD091F32BCE010E9438
:101D10000E0E8130910509F074C08091432C811121
:101D200002C08091FE2B8093432CDF91CF910895C8
:101D3000029709F0AFCF9091E12B8091072C269765
:101D400061F4992321F09091B6289093B5288823C7
:101D500009F49ECF8091B5289BCF992331F09091C3
:101D6000492C21E092279093B428882309F490CF3E
:101D70008091B4288DCF029709F0A5CF9091D12BF7
:101D80008091042C269761F4992321F09091B32837
:101D90009093B228882309F494CF8091B22891CFF0
:101DA000992331F09091472C21E092279093B1280C
:101DB000882309F486CF8091B12883CF029709F058
:101DC0009BCF9091C12B8091012C269761F4992390
:101DD00021F09091B0289093AF28882309F48ACFFE
:101DE0008091AF2887CF992331F09091452C21E045
:101DF00092279093AE28882309F47CCF8091AE2857
:101E000079CF029709F091CF9091B12B8091FE2B61
:101E1000269761F4992321F09091AD289093AC28F6
:101E2000882309F480CF8091AC287DCF992331F0AD
:101E30009091432C21E092279093AB28882309F4BA
:101E400072CF8091AB286FCF80911529882309F438
:101E5000DFC0809140299091412920913C29309107
:101E60003D29820F931F877099279C01B3E0220FB1
:101E7000331FBA95E1F7F901EA59F64D648175818E
:101E80004091522B411107C16115710509F4FEC043
:101E90008091CF289091D028209113293091142936
:101EA0002817390708F0F2C0409708F4EFC0809176
:101EB000612B8111EBC0808191818093FA2B9093EB
:101EC000FB2B828193818093642990936529609391
:101ED0000B2C70930C2C2681378120936229309330
:101EE0006329A6E096958795AA95E1F7803191053B
:101EF00008F0B1C080932E2990932F292091AC2B0C
:101F00003091AD2B80912E2990912F2921303105D0
:101F100009F4B0C008F4A2C02230310509F4B0C001
:101F20008091FA2B9091FB2B8093F22B9093F32BC3
:101F30008093F42B9093F52B8093F62B9093F72BB3
:101F40008093F82B9093F92B8091642990916529C7
:101F50008093722B9093732B8093822B9093832B7F
:101F60008093922B9093932B8093A22B9093A32BEF
:101F700080910B2C90910C2C8093FF2B9093002C34
:101F80008093022C9093032C8093052C9093062C25
:101F90008093082C9093092C809162299091632959
:101FA00080935A2990935B2980935C2990935D29B3
:101FB00080935E2990935F29809360299093612993
:101FC00080912E2990912F298093BC2B9093BD2B2B
:101FD0008093CC2B9093CD2B8093DC2B9093DD2B97
:101FE0008093EC2B9093ED2B8091322990913329A3
:101FF0008093B62B9093B72B8093C62B9093C72BCF
:102000008093D62B9093D72B8093E62B9093E72B3E
:1020100080910B2C90910C2C892BC9F48091082C69
:102020009091092C892B99F48091052C9091062C84
:10203000892B69F48091022C9091032C892B39F41F
:102040008091FF2B9091002C892B09F4B1C281E083
:102050008093FD2B08958FE090E04CCF880F991F5F
:10206000FC01EE5AFD418081918180933229909349
:10207000332956CF880F991FFC01EE5CFD41F3CF49
:10208000880F991FFC01EE5EFD41EDCF10920B2CE5
:1020900010920C2C45CF6115710509F4E9C14091EE
:1020A000CF285091D028A0911329B0911429A417BA
:1020B000B50708F0DDC14031510508F4D9C14091A0
:1020C000612B4111D5C1408151814093FA2B50932E
:1020D000FB2B42815381409364295093652960937F
:1020E0000B2C70930C2C668177816093622970931E
:1020F000632966E0569547956A95E1F740315105A9
:1021000008F092C140932E2950932F294091AC2B77
:102110005091AD2B4130510509F498C108F487C1A5
:102120004230510509F49BC1B9016A59764DFB0152
:10213000EC5BFF4FA081B181109709F4C2C14091BF
:10214000CF285091D028E0911129F0911229E4175D
:10215000F50708F0B6C14031510508F4B2C140910D
:10216000612B4111AEC1FC0143E0EE0FFF1F4A9508
:10217000E1F7EA55F64D408151814093F82B509399
:10218000F92BFB01EE5BFF4F408151814093A22B65
:102190005093A32BA093082CB093092C6A5B7F4F1C
:1021A000FB0160817181609360297093612966E011
:1021B000569547956A95E1F74031510508F05DC1A4
:1021C0004093EC2B5093ED2B4091AC2B5091AD2BC9
:1021D0004130510509F463C108F452C14230510540
:1021E00009F466C1B9016A59764DFB01EC57FF4FFE
:1021F000A081B181109709F48DC14091CF285091F1
:10220000D028E0910F29F0911029E417F50708F084
:1022100081C14031510508F47DC14091612B4111CC
:1022200079C1FC0143E0EE0FFF1F4A95E1F7EA5147
:10223000F64D408151814093F62B5093F72BFB01D3
:10224000EE57FF4F408151814093922B5093932B37
:10225000A093052CB093062C6A577F4FFB01608139
:10226000718160935E2970935F2966E0569547956A
:102270006A95E1F74031510508F028C14093DC2B05
:102280005093DD2B4091AC2B5091AD2B413051053B
:1022900009F42EC108F41DC14230510509F431C1C1
:1022A000B9016A59764DFB01EC53FF4FA081B18112
:1022B000109709F458C14091CF285091D028E0914F
:1022C0000D29F0910E29E417F50708F04CC14031B3
:1022D000510508F448C14091612B411144C1FC01F2
:1022E00053E0EE0FFF1F5A95E1F7EA5DF54D40818F
:1022F00051814093F42B5093F52BFB01EE53FF4F8C
:10230000408151814093822B5093832BA093022CC8
:10231000B093032C6A537F4FFB01608171816093FE
:102320005C2970935D2966E0569547956A95E1F7BB
:102330004031510508F0F3C04093CC2B5093CD2B86
:102340004091AC2B5091AD2B4130510509F4F9C0AF
:1023500008F4E8C04230510509F4FCC02A59364D52
:10236000F901EC5FFE4F408151814115510509F49F
:102370001AC16091CF287091D028E0910B29F0917B
:102380000C29E617F70708F00EC16031710508F453
:102390000AC16091612B611106C163E0880F991F2A
:1023A0006A95E1F7FC01EA59F54D808191818093AE
:1023B000F22B9093F32BF901EE5FFE4F8081918118
:1023C0008093722B9093732B4093FF2B5093002C90
:1023D0002A5F3E4FF9012081318120935A293093A1
:1023E0005B2976E0969587957A95E1F7803191059E
:1023F00008F0BEC08093BC2B9093BD2B8091AC2B7A
:102400009091AD2B8130910509F4C4C008F4B3C09C
:10241000029709F0FDCDE091BC2BF091BD2BEE0FA2
:10242000FF1FEE5EFD41AFC04FE050E06BCEE0918C
:102430002E29F0912F29EE0FFF1FEE5AFD4140810A
:10244000518140933229509333296ECEE0912E2949
:10245000F0912F29EE0FFF1FEE5CFD41F0CFE091D0
:102460002E29F0912F29EE0FFF1FEE5EFD41E7CFE1
:1024700010920B2C10920C2C57CE4FE050E0A0CEB7
:10248000E091EC2BF091ED2BEE0FFF1FEE5AFD418A
:10249000408151814093E62B5093E72BA3CEE091EE
:1024A000EC2BF091ED2BEE0FFF1FEE5CFD41F0CF1A
:1024B000E091EC2BF091ED2BEE0FFF1FEE5EFD4156
:1024C000E7CF1092082C1092092C8CCE4FE050E0F0
:1024D000D5CEE091DC2BF091DD2BEE0FFF1FEE5AF5
:1024E000FD41408151814093D62B5093D72BD8CEBC
:1024F000E091DC2BF091DD2BEE0FFF1FEE5CFD4138
:10250000F0CFE091DC2BF091DD2BEE0FFF1FEE5EA4
:10251000FD41E7CF1092052C1092062CC1CE4FE062
:1025200050E00ACFE091CC2BF091CD2BEE0FFF1FA6
:10253000EE5AFD41408151814093C62B5093C72BE9
:102540000DCFE091CC2BF091CD2BEE0FFF1FEE5C69
:10255000FD41F0CFE091CC2BF091CD2BEE0FFF1F82
:10256000EE5EFD41E7CF1092022C1092032CF6CEC6
:102570008FE090E03FCFE091BC2BF091BD2BEE0FB0
:10258000FF1FEE5AFD41808191818093B62B90937D
:10259000B72B3ECDE091BC2BF091BD2BEE0FFF1F72
:1025A000EE5CFD41F0CF1092FF2B1092002C30CD4D
:1025B0001092FD2B08954F925F926F927F928F92AF
:1025C0009F92AF92BF92CF92DF92EF92FF92CF9302
:1025D000DF9300D000D0CDB7DEB74B015C010E9485
:1025E000EB02C0902029D0902129E0902229F09080
:1025F0002329409024295090252960902629709005
:10260000272984149504A604B70408F462C0A30122
:102610009201245631094109510929833A834B8398
:102620005C83D701C60172E0B695A795979587950B
:102630007A95D1F7820F931FA41FB51F88159905AE
:10264000AA05BB0508F042C0D701C601B695A795FB
:1026500097958795820F931FA41FB51F881699061B
:10266000AA06BB0608F458C0A3E0B0E0A701960193
:102670000E94C44622E096958795779567952A959E
:10268000D1F729813A814B815C81620F731F841FCE
:10269000951F86169706A806B90608F440C0C40C14
:1026A000D51CE61CF71C34E6C31AD108E108F10872
:1026B00083E090E08C149D04AE04BF04D8F084E065
:1026C00090E0C814D904EA04FB04A0F090E080E094
:1026D00011C0481859086A087B0881E090E044E678
:1026E000441651046104710410F490E080E0919567
:1026F000819591092496CDBFDEBFDF91CF91FF90E8
:10270000EF90DF90CF90BF90AF909F908F907F9091
:102710006F905F904F90089581E090E0EBCF82E062
:1027200090E0E8CF81E08093AB2A0E94EB026093B7
:10273000A72A7093A82A8093A92A9093AA2A089579
:1027400081E08093B02A0E94EB026093AC2A7093E0
:10275000AD2A8093AE2A9093AF2A089581E08093AA
:10276000B52A0E94EB026093B12A7093B22A80933B
:10277000B32A9093B42A089581E08093BA2A0E94E4
:10278000EB026093B62A7093B72A8093B82A90938D
:10279000B92A08958091302890913128009709F442
:1027A00050C062E370E04EEF5FEF8130910511F0B1
:1027B00050E040E02091CD283091CE28460F571FA1
:1027C0004217530708F440C0109230281092312865
:1027D0008091532B9091542B8130910509F434C191
:1027E00008F428C1029709F43AC180912E299091EA
:1027F0002F29009709F43CC160E470E04CEE5FEFD4
:102800008130910511F050E040E020916429309131
:102810006529460F571F4217530708F42CC1109221
:102820002E2910922F298091AC2B9091AD2B8130C5
:10283000910509F47DC308F46CC3029709F481C3C0
:1028400008956CE370E0B4CF81309105A9F068E79A
:1028500070E046EF5FEF8230910511F050E040E00C
:10286000460F571F4217530750F081E090E08093C6
:10287000302890933128ACCF62E870E0EFCF8230FF
:10288000910589F06CE271E046EF5FEF83309105CE
:1028900011F050E040E0460F571F4217530730F049
:1028A00082E090E0E4CF66E371E0F3CF82309105FF
:1028B00011F16CE271E046EF5FEF8330910511F0AA
:1028C00050E040E0460F571F42175307D0F48330C3
:1028D0009105A1F068E072E046EF5FEF843091056A
:1028E00011F050E040E0460F571F4217530748F0E1
:1028F00083E090E0BCCF66E371E0E2CF62E172E09A
:10290000F0CF8330910511F168E072E046EF5FEFA0
:102910008430910511F050E040E0460F571F4217F8
:102920005307D0F484309105A1F068EA72E046EFD5
:102930005FEF8530910511F050E040E0460F571FE2
:102940004217530748F084E090E091CF62E172E0D3
:10295000E2CF62EB72E0F0CF8430910511F168EACA
:1029600072E046EF5FEF8530910511F050E040E0F6
:10297000460F571F42175307D0F485309105A1F039
:1029800060E773E046EF5FEF8630910511F050E0AD
:1029900040E0460F571F4217530748F085E090E08C
:1029A00066CF62EB72E0E2CF6AE773E0F0CF85308A
:1029B000910511F160E773E046EF5FEF8630910516
:1029C00011F050E040E0460F571F42175307D0F474
:1029D00086309105A1F068EE73E046EF5FEF873037
:1029E000910511F050E040E0460F571F4217530782
:1029F00048F086E090E03BCF6AE773E0E2CF62EF19
:102A000073E0F0CF8630910579F048EE53E00797F8
:102A100071F090E080E0840F951F8217930708F013
:102A2000D7CE87E090E023CF42EF53E0F2CF86EF9E
:102A30009FEFF1CF809130289091312801968093BB
:102A4000382990933929D1CEE0913028F09131285E
:102A5000EE0FFF1FEE5BFD4180819181F0CFE09191
:102A60003028F0913128EE0FFF1FEE5DFD41F4CFCD
:102A700064E570E0C8CE81309105A9F060E870E0AF
:102A80004CEE5FEF8230910511F050E040E0460FD0
:102A9000571F4217530750F081E090E080932E2992
:102AA00090932F29C0CE64E970E0EFCF823091057A
:102AB00089F060EC70E04CEE5FEF8330910511F02F
:102AC00050E040E0460F571F4217530730F082E0B6
:102AD00090E0E4CF64ED70E0F3CF8230910511F126
:102AE00060EC70E04CEE5FEF8330910511F050E048
:102AF00040E0460F571F42175307D0F4833091052B
:102B0000A1F060E071E04CEE5FEF8430910511F0D0
:102B100050E040E0460F571F4217530748F083E04C
:102B200090E0BCCF64ED70E0E2CF64E171E0F0CF03
:102B30008330910511F160E071E04CEE5FEF84307D
:102B4000910511F050E040E0460F571F4217530720
:102B5000D0F484309105A1F060E471E04CEE5FEFB9
:102B60008530910511F050E040E0460F571F4217A5
:102B7000530748F084E090E091CF64E171E0E2CF48
:102B800064E571E0F0CF8430910511F160E471E00B
:102B90004CEE5FEF8530910511F050E040E0460FBC
:102BA000571F42175307D0F485309105A1F060E814
:102BB00071E04CEE5FEF8630910511F050E040E09F
:102BC000460F571F4217530748F085E090E066CF45
:102BD00064E571E0E2CF64E971E0F0CF8530910502
:102BE00011F160E871E04CEE5FEF8630910511F075
:102BF00050E040E0460F571F42175307D0F486308D
:102C00009105A1F060EC71E04CEE5FEF873091052B
:102C100011F050E040E0460F571F4217530748F0AD
:102C200086E090E03BCF64E971E0E2CF64ED71E0D3
:102C3000F0CF8630910511F160EC71E04CEE5FEF62
:102C40008730910511F050E040E0460F571F4217C2
:102C50005307D0F487309105A1F060E072E04CEEAC
:102C60005FEF8830910511F050E040E0460F571FAC
:102C70004217530748F087E090E010CF64ED71E011
:102C8000E2CF64E172E0F0CF8730910511F160E0AE
:102C900072E04CEE5FEF8830910511F050E040E0BB
:102CA000460F571F42175307D0F488309105A1F003
:102CB00060E472E04CEE5FEF8930910511F050E076
:102CC00040E0460F571F4217530748F088E090E056
:102CD000E5CE64E172E0E2CF64E572E0F0CF8830E7
:102CE000910511F160E472E04CEE5FEF89309105DF
:102CF00011F050E040E0460F571F42175307D0F441
:102D000089309105A1F060E872E04CEE5FEF8A3007
:102D1000910511F050E040E0460F571F421753074E
:102D200048F089E090E0BACE64E572E0E2CF64E971
:102D300072E0F0CF8930910511F160E872E04CEE5D
:102D40005FEF8A30910511F050E040E0460F571FC9
:102D500042175307D0F48A309105A1F060EC72E07D
:102D60004CEE5FEF8B30910511F050E040E0460FE4
:102D7000571F4217530748F08AE090E08FCE64E96E
:102D800072E0E2CF64ED72E0F0CF8A30910511F18C
:102D900060EC72E04CEE5FEF8B30910511F050E08B
:102DA00040E0460F571F42175307D0F48B30910570
:102DB000A1F060E073E04CEE5FEF8C30910511F014
:102DC00050E040E0460F571F4217530748F08BE092
:102DD00090E064CE64ED72E0E2CF64E173E0F0CFA6
:102DE0008B30910511F160E073E04CEE5FEF8C30B9
:102DF000910511F050E040E0460F571F421753076E
:102E0000D0F48C309105A1F060E473E04CEE5FEFFC
:102E10008D30910511F050E040E0460F571F4217EA
:102E2000530748F08CE090E039CE64E173E0E2CFE4
:102E300064E573E0F0CF8C30910511F160E473E04C
:102E40004CEE5FEF8D30910511F050E040E0460F01
:102E5000571F42175307D0F48D309105A1F060E859
:102E600073E04CEE5FEF8E30910511F050E040E0E2
:102E7000460F571F4217530748F08DE090E00ECEE3
:102E800064E573E0E2CF64E973E0F0CF8D30910543
:102E900011F160E873E04CEE5FEF8E30910511F0B8
:102EA00050E040E0460F571F42175307D0F48E30D2
:102EB0009105A1F060EC73E04CEE5FEF8F3091056F
:102EC00011F050E040E0460F571F4217530748F0FB
:102ED0008EE090E0E3CD64E973E0E2CF64ED73E06F
:102EE000F0CF8E30910579F040EC53E00F9771F000
:102EF00090E080E0840F951F8217930708F093CC31
:102F00008FE090E0CBCD44ED53E0F2CF8CEE9FEF1D
:102F1000F1CFE0912E29F0912F29EE0FFF1FEE5AED
:102F2000FD418081918180933229909333290895C6
:102F3000E0912E29F0912F29EE0FFF1FEE5CFD414D
:102F4000F0CFE0912E29F0912F29EE0FFF1FEE5EBA
:102F5000FD41E7CFCF93DF93C091D328D091D42800
:102F60002197C093D328D093D428C0FF07C070E026
:102F700060E08DE00E94B80181E019C061E070E07E
:102F80008DE00E94B801CD2BB9F710924B2C8091A7
:102F9000622990916329019769F480910B2C90919B
:102FA0000C2C892B39F081E080934A2C80E0DF9152
:102FB000CF91089510924A2CF9CFDC01ED91FC914C
:102FC0000088F189E02D23E030E00994CF93DF936E
:102FD000FC0101900020E9F73197AF01481B590B24
:102FE000BC0180E29DE20E94AA03EC0142E050E0B5
:102FF0006CE373EE80E29DE20E94AA038C0F9D1F9A
:10300000DF91CF91089588ED90E084BF90936100A7
:1030100080E094E2A4EFB0E080931E2890931F28F4
:10302000A0932028B0932128809102068660809387
:10303000020680910006816080930006809102065E
:103040008F7C809302068091A0008F788093A000EF
:10305000809102068061809302061092E20581E071
:103060008093E40583E08093010A8FEF90E08093E2
:10307000260A9093270A80E890E08093380A90937C
:10308000390A80933A0A90933B0A80933C0A9093C2
:103090003D0A8BE08093000A8091E5058160809372
:1030A000E5058091E50582608093E505E0E8FAE0BA
:1030B00037E02FEF90E885E0318324879587808380
:1030C0007096E03C4AE0F407B9F780E094E0809322
:1030D0005E2C90935F2C80915E2C90915F2C2FEF53
:1030E00030E0B9010E94AF4860935C2C70935D2C76
:1030F00080915E2C90915F2CE8EEF3E0BF010E947E
:10310000AF4860935A2C70935B2C80915E2C909109
:103110005F2CBF010E94AF488093582C9093592C8C
:103120002093BC0A3093BD0A8091B50A81608093D8
:10313000B50A84E08093B00A8091B00A81608093E0
:10314000B00A7894089580916D2890916E2820910E
:103150006B2830916C288217930769F020916A28B8
:10316000222391F080FD0CC0089A81FD0BC0AD9A1E
:1031700082FD1FC04E9A80936B2890936C2808950F
:103180000898F3CFAD98F4CF88309105A0F7FC01F3
:10319000E453F74E0C94D748D418D718DB18DE1830
:1031A000E118E318E518E718089AAD9802C00898E6
:1031B000AD9A4E98E0CF0898AD98DCCF0898AD9ABC
:1031C000D9CF089AFCCF089AF7CF089AF1CF089880
:1031D000ECCFCF92DF92EF92FF929C01ACE2B1E094
:1031E0000E94F9466B017C010E949E03A701960193
:1031F00024543D4F4F4F5F4F0E94D7466C157D05BD
:103200008E059F0588F42CE231E040E050E00E94FA
:10321000D746663971058105910530F44C9AFF90C7
:10322000EF90DF90CF9008954C98F9CF20916A28C5
:10323000222371F080FD08C0089A81FD07C0AD9A75
:1032400082FD1BC04E9A08950898F7CFAD98F8CF2D
:103250008830910598F4805D964EFC010C94D74817
:1032600038193B193F1942194519471949194B1982
:10327000089AAD9802C00898AD9A4E98089508989B
:10328000AD98E0CF0898AD9ADDCF089AFCCF089AA8
:10329000F7CF089AF1CF0898ECCF0F931F93CF93F5
:1032A000DF9380915D2B8823E9F0E0915B2BF09117
:1032B0005C2BEE0FFF1FE45FF74D808191818093BF
:1032C0006D2890936E280E94A31880915B2B90919B
:1032D0005C2B01960E94E91881E0DF91CF911F914C
:1032E0000F9108958091612B811106C080914D2C22
:1032F000882309F466C07AC08091622B9091632B79
:103300002091602B222309F45EC08730910509F0DB
:103310004FC080911428909115288230910508F4AF
:1033200050C00E94E918C0910A28D0910B288091C2
:10333000602B882309F4BBC00E949E0300912628BD
:10334000109127282091282830912928AB01BC0111
:10335000401B510B620B730B8091DE289091DF288C
:103360000CEB12E020E030E0009721F002EC11E0DD
:1033700020E030E0041715072607370788F4019688
:10338000837099278093DE289093DF280E949E0304
:1033900060932628709327288093282890932928C3
:1033A000209749F12197C0930A28D0930B2894CFF6
:1033B000059739F480910D2C90910E2C009709F00F
:1033C000B0CF4C98B0CF079799F48091512B8823B8
:1033D000C1F30E949E0320E931E040E050E00E94EA
:1033E000D746683C71058105910558F74C9A9BCFEB
:1033F00080914D2B7DCF80916D2890916E28E0912A
:10340000DE28F091DF2871E02091142830911528F2
:103410002230310508F470E061E020914F2B3091AB
:10342000502B232B09F460E051E020910D2C3091BA
:103430000E2C232B09F450E0A0910F2C29E030E052
:10344000EE0FFF1FEA5EF74D0196877099270097F0
:10345000E9F08530910529F18630910521F1873019
:10346000910519F1EC012197249798F4C081D1813D
:10347000C817D90771F480936D2890936E2823E0C4
:1034800030E020930A2830930B2852C04A2F411174
:10349000F2CF21503109C1F680936D2890936E28A8
:1034A000F0CF452FF4CF462FF2CF472FF0CF4091EA
:1034B0004D2C209709F03FC080916D2890916E2887
:1034C00001968770992780936D2890936E2820919C
:1034D000612B211114C0411112C021E130E0FC0127
:1034E000E050F84D5081511106C001968770992720
:1034F00021503109A1F780936D2890936E2881E0C7
:1035000080932E284423F9F08091612B81111BC0F8
:103510008091402990914129209134293091352979
:10352000820F931F8770992780936D2890936E2840
:103530000E94A318D1CE2197C0930A28D0930B28BC
:1035400010922E28DFCF8091FD2B882309F491C0A3
:103550008091522B811105C08091FA2B9091FB2B09
:10356000E3CF80912E28882319F380912C28909105
:103570002D28019665E070E00E94AF48AC01E09113
:103580000B2CF0910C2CA091082CB091092CC0911F
:10359000052CD091062C0091022C1091032C6091E7
:1035A000FF2B7091002C20910A2890910B28411537
:1035B000510559F4309761F020930A2890930B2815
:1035C00010922C2810922D28C7CF4130510589F434
:1035D000109791F020930A2890930B2881E090E0B7
:1035E00080932C2890932D288091F82B9091F92B83
:1035F0009BCF4230510589F4209791F020930A28FF
:1036000090930B2882E090E080932C2890932D28B3
:103610008091F62B9091F72B87CF4330510591F491
:103620000115110579F020930A2890930B2883E067
:1036300090E080932C2890932D288091F42B9091EA
:10364000F52B72CF322F892F21E090E061157105A3
:1036500009F4B0CF30930A2880930B2884E090E0DF
:1036600080932C2890932D288091F22B9091F32B0E
:103670005BCF80912E28882309F45ACFE0916D28E2
:10368000F0916E288091612B811123C08091FA2BDB
:103690009091FB2B8E179F07A9F420912A28309137
:1036A0002B282817390758F02AE030E020930A2801
:1036B00030930B2880932A2890932B2839CF21E030
:1036C00030E0F4CF81E090E080930A2890930B28BB
:1036D0002FCF4091522B2091532B3091542B80911E
:1036E000AC2B9091AD2B5091552BE830F105E8F7BC
:1036F000E458F44E0C94D748841B8D1B971BA11BD8
:10370000AA1BB01BB61BBC1B552339F010926D28A9
:1037100010926E2882E090E0D7CF8230910539F484
:1037200021E030E020936D2830936E28CDCF81309A
:10373000910539F482E090E080936D2890936E2893
:10374000C3CF009739F483E090E080936D28909385
:103750006E28E0CF2115310519F484E090E0F5CF13
:103760002130310519F485E090E0EFCF22303105AA
:1037700019F486E090E090CE442331F287E090E0A7
:10378000E4CFCF93DF938091C9289091CA28009706
:1037900029F001978093C9289093CA288091522BD1
:1037A000882361F18091C7289091C828009729F05B
:1037B00001978093C7289093C8288091C52890913D
:1037C000C628009729F001978093C5289093C628B2
:1037D0008091C3289091C428009729F00197809385
:1037E000C3289093C4288091C1289091C228009743
:1037F00029F001978093C1289093C2280E943146F6
:103800002091C9283091CA284AE5429FE001439F90
:10381000D00D112428EE33E040E050E00E94A54690
:10382000DC01CB018C0F9D1FA11DB11D893E23E042
:103830009207A105B10524F088EE93E0A0E0B0E086
:103840008093BF289093C0282091522B222309F403
:103850003BC10E9431462091C7283091C8284AE5D3
:10386000429FE001439FD00D112428EE33E040E059
:1038700050E00E94A546DC01CB018C0F9D1FA11DCD
:10388000B11D893E23E09207A105B10524F088EE21
:1038900093E0A0E0B0E08093BD289093BE280E9402
:1038A00031462091C5283091C6284AE5429FE00163
:1038B000439FD00D112428EE33E040E050E00E94F9
:1038C000A546DC01CB018C0F9D1FA11DB11D893EBA
:1038D00023E09207A105B10524F088EE93E0A0E073
:1038E000B0E08093BB289093BC280E943146209181
:1038F000C3283091C4284AE5429FE001439FD00D80
:10390000112428EE33E040E050E00E94A546DC019F
:10391000CB018C0F9D1FA11DB11D893E23E0920795
:10392000A105B10524F088EE93E0A0E0B0E080931B
:10393000B9289093BA280E9431462091C12830912D
:10394000C2284AE5429FE001439FD00D112428EE92
:1039500033E040E050E00E94A546DC01CB018C0F33
:103960009D1FA11DB11D893E23E09207A105B10550
:1039700024F088EE93E0A0E0B0E08093B728909325
:10398000B82880910B2C90910C2C8130910569F412
:1039900021E02093432B209162293091632921500B
:1039A00031092093C9283093CA282091522B222311
:1039B00009F450C02091082C3091092C2130310598
:1039C00069F421E02093442B2091602930916129F2
:1039D000215031092093C7283093C8282091052C05
:1039E0003091062C2130310569F421E02093452BDC
:1039F00020915E2930915F29215031092093C528FB
:103A00003093C6282091022C3091032C21303105AF
:103A100069F421E02093462B20915C2930915D29A7
:103A2000215031092093C3283093C4282091FF2BC3
:103A30003091002C2130310569F421E02093472B8F
:103A400020915A2930915B29215031092093C128B6
:103A50003093C22820914D2C211133C0009729F0BA
:103A6000019780930B2C90930C2C8091082C9091B3
:103A7000092C009729F001978093082C9093092C2A
:103A80008091052C9091062C009729F00197809346
:103A9000052C9093062C8091022C9091032C00977A
:103AA00029F001978093022C9093032C8091FF2B97
:103AB0009091002C009729F001978093FF2B909311
:103AC000002CDF91CF9108958093B7289093B82868
:103AD0008093B9289093BA288093BB289093BC28F0
:103AE0008093BD289093BE284CCF2F923F924F9247
:103AF0005F926F927F928F929F92AF92BF92CF927E
:103B0000DF92EF92FF920F931F93CF93DF936B019E
:103B10007C012A010E94314620E130E040E050E083
:103B20000E94A5462091AC2B3091AD2B660F771FDC
:103B30002230310509F06AC06E5E7D41FB01C08113
:103B4000D18120E030E0A901C230D10508F449C09C
:103B500010E000E0712C612C812C94E0992EA12CB6
:103B6000B12C0E9431461801FFEF2F1A3F0AA50120
:103B700094010E94A54664157505860597050CF00D
:103B80004EC081010830110561F70E9431464E0197
:103B9000B12CA12C2FEF221A320A910150E040E003
:103BA0000E94A5469B01AC0144275527C501BE01D3
:103BB0000E949F48AB01BC0183E0769567955795BD
:103BC00047958A95D1F7DE0111974A175B0708F4EC
:103BD000DA01A70196010E94C446A50194010E9442
:103BE000D746CA01B901DF91CF911F910F91FF9084
:103BF000EF90DF90CF90BF90AF909F908F907F908D
:103C00006F905F904F903F902F9008952130310535
:103C100019F46E5C7D4192CF6E5A7D418FCF1801B1
:103C2000B4CF2F923F924F925F926F927F928F927A
:103C30009F92AF92BF92CF92DF92EF92FF920F933B
:103C40001F93CF93DF9300D000D0CDB7DEB76B01C9
:103C50007C0129833A83413022E0520788F551954F
:103C600041955109440F551F5C5FB6010E94751DB7
:103C7000611571058105910509F45FC0E981FA813B
:103C8000608371838283938321E030E02B833C83C4
:103C90008B819C812496CDBFDEBFDF91CF911F9198
:103CA0000F91FF90EF90DF90CF90BF90AF909F90DB
:103CB0008F907F906F905F904F903F902F900895DE
:103CC00052581A01220C331C03E010E01B821C82A4
:103CD0004101B12CA12C412C44E0542E612C712CBB
:103CE000A101C701B6010E94751D6115710581050D
:103CF000910599F0EB81FC81EE0FFF1FEE0FFF1F86
:103D000029813A81E20FF31F608371838283938359
:103D10008B819C8101968B839C830E943146A301F9
:103D200092010E94A546681579058A059B050CF04D
:103D3000AFCF01501109A1F6ABCF1B821C82A8CFD7
:103D40004F925F926F927F928F929F92AF92BF92AB
:103D5000CF92DF92EF92FF920E94EB024B015C0147
:103D600080910B2C90910C2C892BE9F08091FA2BEF
:103D70009091FB2B0197B9F48091EE2B9091EF2B52
:103D8000A091F02BB091F12BB501A401481B590B68
:103D90006A0B7B0B81E0403157426105710508F0E9
:103DA00080E080934C2C8091082C9091092C892BD9
:103DB00009F45BC08091F82B9091F92B019709F0E1
:103DC00054C08091EC2B9091ED2B089708F483C19F
:103DD00081E090E00E94690D2091E62B3091E72B65
:103DE00050E040E00E94D7462115310541055105BC
:103DF00009F46EC169017A01F694E794D794C794E7
:103E000088EEC81683E0D806E104F10430F4A8EE89
:103E1000CA2EA3E0DA2EE12CF12C8091E22B9091B6
:103E2000E32BA091E42BB091E52B24013501481A36
:103E3000590A6A0A7B0AC301B2010E94D74621E1EE
:103E4000C21627E2D206E104F10430F0F0E1CF2EF1
:103E5000F7E2DF2EE12CF12C21E06C157D058E05BB
:103E60009F0508F020E02093492C8091052C90912B
:103E7000062C892B09F45BC08091F62B9091F72BCF
:103E8000019709F054C08091DC2B9091DD2B0897AD
:103E900008F457C182E090E00E94690D2091D62B72
:103EA0003091D72B50E040E00E94D74621153105D4
:103EB0004105510509F442C169017A01F694E7947C
:103EC000D794C79488EEC81683E0D806E104F104BD
:103ED00030F468EEC62E63E0D62EE12CF12C8091F2
:103EE000D22B9091D32BA091D42BB091D52B240120
:103EF0003501481A590A6A0A7B0AC301B2010E94B5
:103F0000D74621E1C21627E2D206E104F10430F0DF
:103F100050E1C52E57E2D52EE12CF12C21E06C1595
:103F20007D058E059F0508F020E02093472C8091A9
:103F3000022C9091032C892B09F45BC08091F42B07
:103F40009091F52B019709F054C08091CC2B909162
:103F5000CD2B089708F42BC183E090E00E94690DF7
:103F60002091C62B3091C72B50E040E00E94D746ED
:103F7000211531054105510509F416C169017A0180
:103F8000F694E794D794C79488EEC81683E0D806D1
:103F9000E104F10430F4A8EECA2EA3E0DA2EE12CFD
:103FA000F12C8091C22B9091C32BA091C42BB09186
:103FB000C52B24013501481A590A6A0A7B0AC30134
:103FC000B2010E94D74621E1C21627E2D206E104DF
:103FD000F10430F0F0E1CF2EF7E2DF2EE12CF12CEE
:103FE00021E06C157D058E059F0508F020E02093EB
:103FF000452C8091FF2B9091002C892B09F45BC0FC
:104000008091F22B9091F32B019709F054C080918D
:10401000BC2B9091BD2B089708F4FFC084E090E082
:104020000E94690D2091B62B3091B72B50E040E0F3
:104030000E94D746211531054105510509F4EAC012
:1040400069017A01F694E794D794C79488EEC8166C
:1040500083E0D806E104F10430F468EEC62E63E094
:10406000D62EE12CF12C8091B22B9091B32BA09104
:10407000B42BB091B52B24013501481A590A6A0AAC
:104080007B0AC301B2010E94D74621E1C21627E292
:10409000D206E104F10430F050E1C52E57E2D52EEE
:1040A000E12CF12C21E06C157D058E059F0508F0B3
:1040B00020E02093432CFF90EF90DF90CF90BF90B3
:1040C000AF909F908F907F906F905F904F900895EA
:1040D0001092492CCACE8091E12B882321F1E090E7
:1040E000A22BF090A32B0E94314620E032E02E1943
:1040F0003F096901CC0CDD1C36FF02C0D12CC12C5C
:104100000D2C000CEE08FF0828EE33E040E050E0F4
:104110000E94A54621E06C157D058E059F050CF0DB
:1041200020E0209386288091072C882321F080911D
:10413000862891E089278093492C97CE1092472CAE
:10414000F6CE8091D12B882321F1E090922BF09034
:10415000932B0E94314620E032E02E193F0969017D
:10416000CC0CDD1C36FF02C0D12CC12C0D2C000C58
:10417000EE08FF0828EE33E040E050E00E94A5463C
:1041800021E06C157D058E059F050CF020E0209345
:1041900085288091042C882321F08091852891E046
:1041A00089278093472CC3CE1092452C22CF809133
:1041B000C12B882321F1E090822BF090832B0E9469
:1041C000314620E032E02E193F096901CC0CDD1C9C
:1041D00036FF02C0D12CC12C0D2C000CEE08FF08BC
:1041E00028EE33E040E050E00E94A54621E06C1547
:1041F0007D058E059F050CF020E02093842880919A
:10420000012C882321F08091842891E089278093D4
:10421000452CEFCE1092432C4ECF8091B12B8823AA
:1042200021F1E090722BF090732B0E94314620E038
:1042300032E02E193F096901CC0CDD1C36FF02C0AB
:10424000D12CC12C0D2C000CEE08FF0828EE33E019
:1042500040E050E00E94A54621E06C157D058E05EA
:104260009F050CF020E0209383288091FE2B88236B
:1042700021F08091832891E089278093432C1BCFE4
:104280008F929F92AF92BF92CF92DF92EF92FF9266
:104290000E94EB026B017C0180910B2C90910C2C05
:1042A000892BE9F08091FA2B9091FB2B892BB9F4A3
:1042B0008091EE2B9091EF2BA091F02BB091F12BF0
:1042C000B701A601481B590B6A0B7B0B81E04031FB
:1042D00057426105710508F080E080934C2C809175
:1042E000082C9091092C892B21F18091F82B909129
:1042F000F92B892BF1F48091E12B882381F0209117
:10430000A22B3091A32B20938128309382282091D7
:10431000EC2B3091ED2B20937F2830938028209137
:104320008128309182282431310508F089C010920B
:10433000492C8091052C9091062C892B21F180919C
:10434000F62B9091F72B892BF1F48091D12B8823B8
:1043500081F02091922B3091932B20937C283093E5
:104360007D282091DC2B3091DD2B20937A2830930F
:104370007B2820917C2830917D282431310508F05C
:10438000C1C01092472C8091022C9091032C892B54
:1043900021F18091F42B9091F52B892BF1F48091F0
:1043A000C12B882381F02091822B3091832B209385
:1043B0007728309378282091CC2B3091CD2B2093E7
:1043C00075283093762820917728309178282431E9
:1043D000310508F0F9C01092452C8091FF2B909187
:1043E000002C892B21F18091F22B9091F32B892BBA
:1043F000F1F48091B12B882381F02091722B3091C0
:10440000732B20937228309373282091BC2B30910A
:10441000BD2B209370283093712820917228309101
:1044200073282431310508F031C11092432CFF90DC
:10443000EF90DF90CF90BF90AF909F908F900895B6
:1044400040917F28509180284830510508F58823F5
:10445000B9F00E9431468090812890908228B12C3A
:10446000A12C22EC31E040E050E00E94A54621E082
:10447000681579058A059B050CF020E020937E28BD
:104480008091072C811180917E288093492C51CFF7
:10449000E091072C4830510519F4E093492C49CF9D
:1044A000E111FBCF8091522990915329A091542979
:1044B000B091552946015701881A990AAA0ABB0AE0
:1044C000809160299091612901963250829FA001CC
:1044D000839F500D929F500D1124A52FA6952091DA
:1044E0002029309121294091222950912329B0E09F
:1044F0000E94C446E1E086169706A806B90668F24F
:10450000E0E0CBCF40917A2850917B28483051058C
:1045100008F58823B9F00E94314680907C2890905D
:104520007D28B12CA12C22EC31E040E050E00E942B
:10453000A54621E0681579058A059B050CF020E069
:10454000209379288091042C81118091792880937F
:10455000472C19CFE091042C4830510519F4E09311
:10456000472C11CFE111FBCF80914E2990914F291B
:10457000A0915029B091512946015701881A990AF2
:10458000AA0ABB0A80915E2990915F290196325058
:10459000829FA001839F500D929F500D1124A52F43
:1045A000A6952091202930912129409122295091CE
:1045B0002329B0E00E94C446E1E086169706A806CB
:1045C000B90668F2E0E0CBCF40917528509176288B
:1045D0004830510508F58823B9F00E943146809093
:1045E000772890907828B12CA12C22EC31E040E083
:1045F00050E00E94A54621E0681579058A059B05D3
:104600000CF020E0209374288091012C811180917E
:1046100074288093452CE1CEE091012C483051055F
:1046200019F4E093452CD9CEE111FBCF80914A29B2
:1046300090914B29A0914C29B0914D2946015701E9
:10464000881A990AAA0ABB0A80915C2990915D296F
:1046500001963250829FA001839F500D929F500D72
:104660001124A52FA6952091202930912129409130
:10467000222950912329B0E00E94C446E1E0861629
:104680009706A806B90668F2E0E0CBCF4091702803
:10469000509171284830510508F58823B9F00E94DF
:1046A0003146C0907228D0907328F12CE12C22EC76
:1046B00031E040E050E00E94A54621E06C157D0508
:1046C0008E059F050CF020E020936F288091FE2B33
:1046D000811180916F288093432CA9CEE091FE2B0D
:1046E0004830510519F4E093432CA1CEE111FBCFE2
:1046F0008091462990914729A0914829B091492954
:10470000C81AD90AEA0AFB0A80915A2990915B29B2
:1047100001963250829FA001839F500D929F500DB1
:104720001124A52FA695209120293091212940916F
:10473000222950912329B0E00E94C446E1E0C61628
:10474000D706E806F90678F2E0E0CDCF0C94914662
:104750004F925F926F927F928F929F92AF92BF9291
:10476000CF92DF92EF92FF920F931F93CF93DF933D
:104770004091622B5091632B6091D1287091D22887
:10478000E2ECF1ED30E020E01CEE81919191F22E0F
:10479000032FD90111974A175B0709F053C1A4E110
:1047A000B0E08A0F9B1FACEEBFEF2417350711F066
:1047B000B0E0A0E02F5F3F4F8A0F9B1F861797073F
:1047C00008F043C1C080D180C9010197C4E1D0E0A5
:1047D0004817590711F0D0E0C0E01203D001139F31
:1047E000B00D112481E090E0A417B50711F090E01E
:1047F00080E08C0D9D1D8C0F9D1F8617970708F478
:1048000024C1F092622B0093632B8091572B882355
:1048100009F43EC08091612B81113AC08091562BE2
:10482000811136C080914D2C811132C0E091622BF4
:10483000F091632BE050F84D808191E089278083CF
:10484000A0E0B8E228E038E2FD0190E080E041918C
:10485000840F911D2E173F07D1F7892B41F4E0916A
:104860006328F0916428E050F84D81E0808327E0D0
:1048700030E060E08D91022E01C0880F0A94EAF7C3
:10488000680F21503109B0F782E090E00E94A62322
:10489000E2E3F8E282E698E2DF011D921C921197B2
:1048A00012961D921C92139714961D921C921597A6
:1048B00016968A179B0789F7C0E0D8E230E020E01F
:1048C00090E080E046E05991552369F0429FD00185
:1048D000439FB00D1124AE5CB74D14968D939C93FD
:1048E00015972F5F3F4F01968830910561F7209310
:1048F000082830930928B90161507109C2E3D8E250
:1049000050E040E000E014E04217530709F0A2C075
:104910004090632850906428C091D128D091D2282B
:1049200030E020E07CEE2417350709F46AC080816E
:104930009181B0E0A0E089010150110964E1C62E27
:10494000D12CE12CF12C4016510619F0C12CD12CA0
:1049500076018C0D9D1DAE1DBF1D0CEEC02EDD24FD
:10496000DA94ED2CFD2C4216530619F0C12CD12CF3
:1049700076018C0D9D1DAE1DBF1D14E1C12ED12CE5
:10498000E12CF12C4216530619F0C12CD12C7601E2
:1049900039011FEF611A710AB7FF03C080E090E090
:1049A000DC01C817D90708F495C082819381C80E2D
:1049B000D91EE11CF11C83017003C001719F900D91
:1049C0001124812C912C540183948415950519F0A0
:1049D000812C912C5401C80CD91CEA1CFB1CCC1551
:1049E000DD0508F077C086E0829FF001839FF00D1F
:1049F0001124EE5CF74D8481958180936328909318
:104A0000642880916328909164282091FD2B2111C6
:104A100008C02091612B211104C08093FA2B909340
:104A2000FB2BDF91CF911F910F91FF90EF90DF90C3
:104A3000CF90BF90AF909F908F907F906F905F903E
:104A40004F900895B0E0A0E0ACCE2830310509F0D9
:104A50009CCEDBCE4115510569F41092322810929C
:104A6000332846175707F9F40A831B834F5F5F4FBC
:104A700026964ACFDE0112978D919C91AC81BD8123
:104A80008A0F9B1F9F778F30910550F4880F991FD5
:104A9000DC01AC52BE428D919C9188839983E1CF19
:104AA00090E080E0FACF8A859B85AC81BD818A0F3A
:104AB0009B1F9F778F30910550F4880F991FDC0161
:104AC000AC52BE428D919C918A839B83CFCF90E064
:104AD00080E0FACF3696930126CFCF92DF92EF9205
:104AE000FF920E94EB02AB01BC018091482B88230E
:104AF00009F4A6C18091512B882309F440C080910C
:104B0000CB289091CC288093642990936529809339
:104B1000722B9093732B8093822B9093832B809393
:104B2000922B9093932B8093A22B9093A32B809105
:104B30002E2990912F298093BC2B9093BD2B80938D
:104B4000CC2B9093CD2B8093DC2B9093DD2B8093FB
:104B5000EC2B9093ED2B8091322990913329809307
:104B6000B62B9093B72B8093C62B9093C72B809333
:104B7000D62B9093D72B8093E62B9093E72B8091A5
:104B800038299091392980930B2C90930C2C809389
:104B90006229909363298091FC2B882309F456C3E2
:104BA0004093EE2B5093EF2B6093F02B7093F12BEF
:104BB0008091522B811149C12091FA2B3091FB2B0E
:104BC0008091692881117AC01092A3281092A4289C
:104BD0001092A5281092A6281092A7281092A82813
:104BE0001092A9281092AA288FEF9FEF8093872810
:104BF0009093882880938E2890938F28809395286F
:104C00009093962880939C2890939D2810928928B1
:104C100010928A2810928B2810928C28109290283B
:104C2000109291281092922810929328109297280F
:104C3000109298281092992810929A2810929E28E3
:104C400010929F281092A0281092A1281092AF2BAA
:104C50001092B02B1092BF2B1092C02B1092CF2B22
:104C60001092D02B1092DF2B1092E02B1092642B1D
:104C70001092652B1092742B1092752B1092842B2E
:104C80001092852B1092942B1092952B8091072CCB
:104C9000811102C01092482C8091042C811102C015
:104CA0001092462C8091012C811102C01092442C4C
:104CB0008091FE2B811102C01092422C232B09F00F
:104CC0005CC00E943146C0906429D0906529F12CC7
:104CD000E12C22EC31E040E050E00E94A54621E0CA
:104CE0006C157D058E059F050CF020E020937E2835
:104CF0000E943146C0906429D0906529F12CE12CA6
:104D000022EC31E040E050E00E94A54621E06C1525
:104D10007D058E059F050CF020E0209379280E94E8
:104D20003146C0906429D0906529F12CE12C22EC09
:104D300031E040E050E00E94A54621E06C157D0581
:104D40008E059F050CF020E0209374280E943146C8
:104D5000C0906429D0906529F12CE12C22EC31E03F
:104D600040E050E00E94A54621E06C157D058E05CF
:104D70009F050CF020E020936F2810928D28109250
:104D8000942810929B281092A2288091FA2B90913F
:104D9000FB2B83309105E1F42091072C222319F09D
:104DA00021E02093A2282091042C222319F021E055
:104DB00020939B282091012C222319F021E020939D
:104DC00094282091FE2B222319F021E020938D2896
:104DD0008093F22B9093F32B8093F42B9093F52BED
:104DE0008093F62B9093F72B8093F82B9093F92BCD
:104DF00080910B2C90910C2C8093FF2B9093002C86
:104E00008093022C9093032C8093052C9093062C76
:104E10008093082C9093092C8091622990916329AA
:104E200080935A2990935B2980935C2990935D2904
:104E300080935E2990935F298093602990936129E4
:104E40008091522B882309F4FCC18091492B88233F
:104E500009F47AC00E94A8238093F82B9093F92B31
:104E60002091512B2223C1F02091CB283091CC28C6
:104E70002093A22B3093A32B20912E2930912F2900
:104E80002093EC2B3093ED2B209132293091332954
:104E90002093E62B3093E72B209138293091392944
:104EA0002093082C3093092C20936029309361299A
:104EB000892BB9F40E943146C0906429D0906529AD
:104EC000F12CE12C22EC31E040E050E00E94A546BC
:104ED00021E06C157D058E059F050CF020E02093E8
:104EE0007E288091F82B9091F92B039709F0BFC190
:104EF0008091072C882309F4BAC181E08093A2280D
:104F000080916828811120C01092A9281092AA28A7
:104F10008FEF9FEF80939C2890939D2810929E285E
:104F200010929F281092A0281092A1281092DF2B97
:104F30001092E02B1092942B1092952B8091072CBD
:104F4000811102C01092482C80914A2B882309F4C9
:104F50007AC00E94A8238093F62B9093F72B209180
:104F6000512B2223C1F02091CB283091CC282093C3
:104F7000922B3093932B20912E2930912F2920931F
:104F8000DC2B3093DD2B2091322930913329209373
:104F9000D62B3093D72B2091382930913929209363
:104FA000052C3093062C20935E2930935F29892BA2
:104FB000B9F40E943146C0906429D0906529F12C43
:104FC000E12C22EC31E040E050E00E94A54621E0D7
:104FD0006C157D058E059F050CF020E02093792847
:104FE0008091F62B9091F72B039709F043C18091A4
:104FF000042C882309F43EC181E080939B28809192
:105000006728811120C01092A7281092A8288FEF3E
:105010009FEF80939528909396281092972810924E
:1050200098281092992810929A281092CF2B1092BB
:10503000D02B1092842B1092852B8091042C8111FF
:1050400002C01092462C80914B2B882309F47AC021
:105050000E94A8238093F42B9093F52B2091512B41
:105060002223C1F02091CB283091CC282093822B91
:105070003093832B20912E2930912F292093CC2BF4
:105080003093CD2B20913229309133292093C62B98
:105090003093C72B20913829309139292093022C45
:1050A0003093032C20935C2930935D29892BB9F42C
:1050B0000E943146C0906429D0906529F12CE12CE2
:1050C00022EC31E040E050E00E94A54621E06C1562
:1050D0007D058E059F050CF020E0209374288091BB
:1050E000F42B9091F52B039709F0C7C08091012C08
:1050F000882309F4C2C081E08093942880916628B7
:10510000811120C01092A5281092A6288FEF9FEF42
:1051100080938E2890938F28109290281092912837
:1051200010929228109293281092BF2B1092C02BAD
:105130001092742B1092752B8091012C811102C05A
:105140001092442C80914C2B882309F47AC00E9441
:10515000A8238093F22B9093F32B2091512B2223A1
:10516000C1F02091CB283091CC282093722B309322
:10517000732B20912E2930912F292093BC2B309313
:10518000BD2B20913229309133292093B62B3093B7
:10519000B72B20913829309139292093FF2B309358
:1051A000002C20935A2930935B29892BB9F40E9453
:1051B0003146C0906429D0906529F12CE12C22EC75
:1051C00031E040E050E00E94A54621E06C157D05ED
:1051D0008E059F050CF020E020936F288091F22B24
:1051E0009091F32B039709F04BC08091FE2B8823FD
:1051F00009F446C081E080938D2880916528811153
:1052000020C01092A3281092A4288FEF9FEF8093C4
:105210008728909388281092892810928A281092C3
:105220008B2810928C281092AF2B1092B02B1092DA
:10523000642B1092652B8091FE2B811102C010927D
:10524000422CFF90EF90DF90CF9008958091242919
:1052500090912529A0912629B09127298093EE2BA2
:105260009093EF2BA093F02BB093F12BA1CC109245
:10527000A22846CE10929B28C2CE109294283ECFF0
:1052800010928D28BACF8091572B882309F455C0EE
:105290008091FD2B882309F450C080910B2C9091B4
:1052A0000C2C892B29F080915F2B81110E94F80D25
:1052B000809162299091632901978093C9289093E6
:1052C000CA2810920B2C10920C2C8091522B882300
:1052D000A1F1809160299091612901978093C7285D
:1052E0009093C8281092082C1092092C80915E2966
:1052F00090915F2901978093C5289093C6281092BA
:10530000052C1092062C80915C2990915D290197C3
:105310008093C3289093C4281092022C1092032CDF
:1053200080915A2990915B2901978093C12890938D
:10533000C2281092FF2B1092002C9091FC2B9923E5
:10534000D9F020910B2C30910C2C232BA9F4209117
:10535000CF283091D0284091BF285091C0284217C3
:10536000530750F42031310538F08091612B8111C1
:1053700003C081E08093482B8091522B882309F44D
:105380006FC0992309F46CC02091082C3091092C2E
:10539000232BA9F42091CF283091D0284091BD280B
:1053A0005091BE284217530750F42031310538F090
:1053B0009091612B911103C091E09093492B209122
:1053C000052C3091062C232BA9F42091CF28309165
:1053D000D0284091BB285091BC284217530750F465
:1053E0002031310538F09091612B911103C091E08B
:1053F00090934A2B2091022C3091032C232BA9F45B
:105400002091CF283091D0284091B9285091BA28C6
:105410004217530750F42031310538F09091612B39
:10542000911103C091E090934B2B2091FF2B309171
:10543000002C232BA9F42091CF283091D028409123
:10544000B7285091B8284217530750F4203131053E
:1054500038F09091612B911103C091E090934C2B07
:105460009091482B992309F46CC09091432B992378
:1054700009F467C091E09093692881115BC0809125
:10548000622990916329029708F0AFC08091692842
:10549000882361F09091522B911108C020916328CC
:1054A000309164282093FA2B3093FB2B20910B2C06
:1054B00030910C2C232BC9F42091082C3091092C0D
:1054C000232B99F42091052C3091062C232B69F481
:1054D0002091022C3091032C232B39F42091FF2BA7
:1054E0003091002C232B09F48CC091E09093FD2B7C
:1054F000811111C08091682881110DC080916728A9
:10550000811109C080916628811105C080916528AC
:10551000882309F479C081E0809362288091622811
:10552000882309F474C08AE090E080930A2890935D
:105530000B2808958091492B81110DC01092682885
:1055400017C0109269288111F5CF8091432B8823D1
:1055500009F49CCF94CF8091442B882379F381E088
:10556000809368280E94A8238093F82B9093F92BAE
:1055700080914A2B882381F18091452B882361F10A
:1055800081E0809367280E94A8238093F62B909354
:10559000F72B80914B2B882311F18091462B882388
:1055A000F1F081E0809366280E94A8238093F42B79
:1055B0009093F52B80914C2B8823A1F08091472B61
:1055C000882381F081E0809365280E94A82380933E
:1055D000F22B9093F32BB9CF10926728DACF109269
:1055E0006628E8CF10926528B0CF80914D2C8111AC
:1055F0004DCF80915F2B882309F448CF0E94F80D8E
:1056000045CF1092FD2B74CF1092622887CF08955A
:1056100063E590E080E00E94A62360E081E090E0F6
:105620000E94A6236FEF82E090E00E94A62360E034
:1056300083E090E00E94A62360E084E090E00E9476
:10564000A62364EE89E090E00E94A62360E086E055
:1056500090E00E94A62363E387E090E00E94A623E7
:1056600063E388E090E00C94A6230C9489464F9263
:105670005F926F927F928F929F92AF92BF92EF92C2
:10568000FF920F931F93CF93DF93CDB7DEB725978C
:10569000CDBFDEBF61E070E081E00E94150270E0E6
:1056A00060E080E10E94150261E070E082E00E940B
:1056B000150261E070E083E00E94150261E070E095
:1056C00084E00E94150270E060E08FE00E94150205
:1056D00070E060E08EE00E94150270E060E089E01A
:1056E0000E94150270E060E08BE00E94150270E0FD
:1056F00060E08AE00E94150261E070E08DE00E94A7
:10570000150261E070E087E00E94150261E070E040
:1057100088E00E94150261E070E086E00E941502B8
:1057200061E070E085E00E94150270E060E08CE0CE
:105730000E94150270E060E081E10E94150262E0C3
:1057400070E080E00E94150261E070E081E00E945C
:10575000150270E060E085E10E94150270E060E0F3
:1057600084E10E94150270E060E082E10E9415026F
:1057700070E060E083E10E9415020E94EB0200915C
:10578000BED11091BFD12091C0D13091C1D1098338
:105790001A832B833C8310E09E012F5F3F4F7901DA
:1057A0002B013C01440C551C661C771CE12FE37057
:1057B000EE0DFF2DF11D80810E94C9028170992795
:1057C000092E000CAA0BBB0B4C015D018428952807
:1057D000A628B7280E94EB022B013C01C501B401A9
:1057E00064257525862597251F5F1031C9F6841419
:1057F0009504A604B70411F00E94804655992FC164
:1058000064E170E080E090E00E946E03559927C14A
:105810000E94082B01E09EB181E0292F227091FDAA
:1058200080E080932F2821110DC064E170E080E0BA
:1058300090E00E946E038EB18695817091E0892779
:1058400080932F2890E080E00E94161990E080E07D
:105850000E94352B833509F043C181E090E00E941E
:10586000352B182F82E090E00E94352BB82E83E074
:1058700090E00E94352B90E08093AC2B9093AD2B61
:1058800084E090E00E94352B90E08093532B90931E
:10589000542B85E090E00E94352B91E0811101C0EE
:1058A00090E090936A28E0E0F8E227E030E08B2D6A
:1058B00090E0AC01022E02C0559547950A94E2F79C
:1058C0004170419321503109A0F7812F817080935D
:1058D000552B11FB882780F98093522B12FB8827C8
:1058E00080F98093DD2813FB882780F980934D2B66
:1058F00014FB882780F98093512B15FB882780F9AA
:1059000080930F2C1295169516951370812F90E0A9
:1059100080930D2C90930E2C89E090E00E94352B03
:1059200095E0F70111929A95E9F7A6E1B8E230E027
:1059300020E041E090E051E0FC01022E02C0F5952C
:10594000E7950A94E2F7E370FF273196ED93FD9314
:10595000EE0DFF1D6081611184C050832E5F3F4FAB
:105960002830310549F7411118C081E090E080935B
:1059700016289093172882E090E08093182890933F
:10598000192883E090E080931A2890931B2884E0E4
:1059900090E080931C2890931D2886E090E00E9460
:1059A000352B982F907F09F45EC010924F2B1092E8
:1059B000502B81E090E0809314289093152888E084
:1059C00090E00E94352B182F87E090E00E94352B45
:1059D000912F982B987809F45BC083E090E0809336
:1059E0001228909313288093102890931128809365
:1059F0000E2890930F2880930C2890930D28809167
:105A00002F28882309F4E7C060916A2881E068277D
:105A100060936A2885E090E00E94A623002309F4A1
:105A200069C0F12CE12C002311F0559B07C0809137
:105A30002F28882309F496C0719994C0C7010E9449
:105A400016194C9AFFEFEF1AFF0A27E0E222FF2413
:105A500068E270E080E090E00E946E03E4CF00E036
:105A6000DACE40E07BCF282F2370223060F430E084
:105A700020934F2B3093502B90E0959587959595DB
:105A80008795019698CF10924F2B1092502BF4CF00
:105A9000282F277030E020930C2830930D2890E0B9
:105AA00024E0959587952A95E1F78770992780934B
:105AB0000E2890930F28812F877090E080931028F4
:105AC00090931128812F90E034E0959587953A9531
:105AD000E1F78770992780931228909313288FCF2E
