:100000000C9451000C9479000C9479000C947900B4
:100010000C9479000C9479000C94EA2D0C947900DE
:100020000C9479000C9479000C9479000C9479006C
:100030000C9479000C9479000C9479000C9479005C
:100040000C9479000C9479000C9479000C9479004C
:100050000C947B2D0C9479000C9479000C9479000D
:100060000C94A02D0C9479000C9479000C947900D8
:100070000C9479000C94312D0C9479000C94790037
:100080000C9479000C9479000C94C52D0C94562D89
:100090000C94CD2C0C94352E0C940F2E0C947900CE
:1000A0007E2E11241FBECFEFCDBFDFE3DEBF18E2EF
:1000B000A0E0B8E2E9EBF0EA02C005900D92A632AA
:1000C000B107D9F72DE2A6E2B8E201C01D92A33A2A
:1000D000B207E1F710E0C1E5D0E004C02197FE01CE
:1000E0000E94B447C035D107C9F70E94BB2E0C94BB
:1000F000BA470C94000090E0FC01EE57FF41E0810C
:10010000EF3F39F188599F41DC012C91822F880FF4
:10011000880F880F8E0F8033E0F490E0880F991FCE
:10012000DC01AC57B34D6D937C938C5D934DDC013A
:100130001D921C92B0E22B9FC00111249C5F40963F
:10014000E80FF92FF11D8081887F80838081826094
:1001500080830895FC0154894589252F30E0842F40
:1001600090E0821B930B541710F0CF9608950197DF
:100170000895FC0192898389981761F0A389AE0FD5
:10018000BF2FB11D59968C9193899F5F9F73938B5D
:1001900090E008958FEF9FEF0895FC019289838985
:1001A000981731F08389E80FF11D818D90E0089553
:1001B0008FEF9FEF0895FC0192892389892F90E0AA
:1001C000805C9F4F821B91098F7399270895CF936D
:1001D000DF93EC01E881F9810680F781E02D099534
:1001E000EC85FD8586818F738683EC85FD85858111
:1001F0008F7585838B898A8B198ADF91CF910895BA
:10020000CF93DF93FC0194898589C485D5859813A4
:1002100006C08D818F7D8D83DF91CF910895A58953
:10022000AE0FBF2FB11DA75ABF4F2C91858990E00B
:1002300001968F739927858B80E48C83A485B5857F
:1002400012962C93948985899813E6CFA485B58559
:1002500015968C9115978F7D15968C938789882399
:10026000D9F2808D80931301178AD6CFDC011C96BA
:10027000ED91FC910FB607FE03C0258125FD04C05A
:10028000248125FD0C9400010895EF92FF920F93B5
:100290001F93CF93DF93EC0181E0898B9C898D893B
:1002A00098131CC0AC85BD8514968C91149785FF5E
:1002B00015C012966C93AC85BD8580E414968C9322
:1002C000EC85FD8585818F7D858381E090E0DF91E0
:1002D000CF911F910F91FF90EF90089580911101A0
:1002E00080FF08C080911301888F8E89809313014D
:1002F00081E08F8BF62E0C8910E00F5F1F4F0F737C
:100300001127E02E8D898E1104C0CE010E94360186
:10031000F9CFEC89EC0FFD2FF11DE75AFF4FF0826A
:100320000C8BEC85FD8585818062CECFCF93DF93EA
:10033000FC0121892223C9F0EC018091110180FF89
:1003400008C080911301808F86898093130181E01A
:10035000878BEC85FD85858185FD03C0848186FDC5
:1003600004C0CE010E943601F4CFDF91CF910895F1
:10037000282F30E0F901E25BFF4140814F3F09F453
:100380004EC08B3258F4F901EC5CFF41E081EE2362
:1003900029F0E13099F010F0E63010F1F901E85958
:1003A000FF41E081A0E2EA9FF0011124FC5F80811F
:1003B000842311F1672BF1F446830895E091010A3B
:1003C000D901AE57BF415C915C5F81E090E001C014
:1003D000880F5A95EAF780958E238093010ADECF25
:1003E00080E1E89FF0011124E05AF54F81818F7E72
:1003F0008183D4CF458308952E573F41D9018C91F5
:10040000309771F08F3F61F07096E80FF11D9FB744
:10041000F8948081672B39F4877F80839FBF08958C
:10042000F0E0E0E0F4CF8860F8CFCF93DF9390E086
:10043000FC01E25BFF4120812F3F71F0FC01E85994
:10044000FF41A08130E2A39FD0011124BC5F613045
:10045000710529F411962C93DF91CF9108958E5751
:100460009F41EC01E881EF3F89F0CD014096E80F14
:10047000F92FF11D9FB7F89412962C93808162306A
:10048000710539F4886080839FBFE6CFF0E0E0E03B
:10049000F1CF877FF8CFCF92DF92EF92FF920F9349
:1004A0001F93CF93DF93EC016A017B01022F8989AF
:1004B000882339F0E881F9810288F389E02DCE01A3
:1004C000099598898091E205892B8093E2051FB7F1
:1004D000F89460E070E281EA97E0A70196010E943B
:1004E000B44569017A018FEFC81AD80AE80AF80AF8
:1004F000F694E794D794C794EC85FD8586818D7F2B
:100500008683EC85FD8586818683198AA0912311D7
:100510000A2E000CBB0BA70196010E94AC4520E0FF
:1005200034E040E050E00E948245EC85FD85C20E3B
:10053000D31EE41EF51EC086D186EC85FD8507839B
:10054000EC85FD858681806C8683EC85FD858581C3
:10055000806885838E858B3220F462E070E00E9493
:1005600015028F858B3220F461E070E00E94B801A3
:100570008F858B3220F461E070E00E9415021FBF6E
:10058000DF91CF911F910F91FF90EF90DF90CF906F
:100590000895E82FF0E0E45DFF418E30B8F48081EB
:1005A0008F30B0F48093060681E080930806809136
:1005B0000B0680FFFCCF2FB7F89490911006809126
:1005C00011062FBF89279827892708953E97E7CFDF
:1005D0008FEF90E00895CF93DF938FB7F894209139
:1005E000202C3091212C4091222C5091232CE091F1
:1005F000BA0A9091B60A90FF06C02F5F3F4F4F4F47
:100600005F4FE091BA0A8FBFA0911E2CB0911F2CB2
:10061000C0911C2CD0911D2C0E94A145EC9F9001F3
:10062000ED9F300D1124620F731F811D911DDF910D
:10063000CF9108958F929F92AF92BF92EF92FF92C7
:100640001F93CF93DF93EC014A015B01790111E025
:1006500081149104A104B10409F410E00E94EB029A
:10066000FE013296AE014E5E5F4FE417F50798F536
:1006700020813181232B11F07096F7CF309759F1FB
:10068000288139812F5F3F4F19F1288339834881B1
:10069000598146875787E082F182128213826483F0
:1006A00075838683978380869186A286B386212F61
:1006B00030E024873587CF0184279527DF91CF91BC
:1006C0001F91FF90EF90BF90AF909F908F900895F3
:1006D00021E030E0DACF90E080E0F0CF8F929F927F
:1006E000AF92BF92CF92DF92EF92FF924B015C01EB
:1006F0000E94EB026B017C01A8EEB3E0A50194011E
:100700000E94A145C60ED71EE81EF91EC616D706C2
:10071000E806F90618F40E94EB02F8CF0E94EB02FB
:100720006C157D058E059F05C8F3FF90EF90DF9057
:10073000CF90BF90AF909F908F9008952FB7F8946F
:100740006091182C7091192C80911A2C90911B2C6F
:100750002FBF0895AF92BF92CF92DF92EF92FF9298
:100760000F931F93CF93DF936C017B018B01040FD9
:10077000151FEB015E01AE18BF08C017D10759F075
:100780006991D601ED91FC910190F081E02DC601B7
:100790000995892B79F7C501DF91CF911F910F91B1
:1007A000FF90EF90DF90CF90BF90AF900895EF92C1
:1007B000FF920F931F93CF93DF93C82FD0E0A096A3
:1007C00095E0CC0FDD1F9A95E1F7E984F82EFF0C38
:1007D000FF0CFF0C01E010E08E2D8023A9F02F2DDF
:1007E000210F30E0220F331FF901EC57F34D8081C8
:1007F0009181892B49F00190F081E02D2C5D334DE2
:10080000D9018D919C9109951F5F000F183021F738
:10081000E986DF91CF911F910F91FF90EF9008959E
:1008200081E008954F925F926F927F928F929F9294
:10083000AF92BF92CF92DF92EF92FF920F931F93EE
:10084000CF93DF938C010E94EB026B017C01E801E6
:10085000229688248A94982C54010E5E1F4FC0174C
:10086000D10748F588819981892B01F10E94EB021B
:100870004C805D806E807F80AB01BC0144195509BE
:100880006609770988859985AA85BB854817590720
:100890006A077B0768F4841B950BA60BB70B8815BA
:1008A0009905AA05BB0510F44C015D016096D7CFF0
:1008B000812C912C54010E94EB02DC01CB018C199C
:1008C0009D09AE09BF0988159905AA05BB05F8F46D
:1008D0002FEF82169206A206B206C9F0A501940176
:1008E000281B390B4A0B5B0BCA01B901DF91CF9171
:1008F0001F910F91FF90EF90DF90CF90BF90AF903E
:100900009F908F907F906F905F904F90089560E0E0
:1009100070E0CB01EBCFAF92BF92CF92DF92EF921C
:10092000FF920F931F93CF93DF93EC0122968C01DC
:100930000E5E1F4FAA24A394B12CC017D10708F054
:1009400041C088819981892B51F10E94EB026B0192
:100950007C018C819D81AE81BF81A7019601281BFE
:10096000390B4A0B5B0BDA01C901488559856A8549
:100970007B8584179507A607B70788F0E881F9817A
:100980008A819B810995882361F08C859D85892BBF
:1009900041F0AC86BD86CC82DD82EE82FF8260961D
:1009A000CCCF188219821A821B821C821D821E8261
:1009B0001F82188619861A861B861C861D861E862F
:1009C0001F86EDCFDF91CF911F910F91FF90EF9098
:1009D000DF90CF90BF90AF900895CF92DF92EF92CB
:1009E000FF926B017C01FA0150E040E0421753078F
:1009F000A9F081919191A191B1918C159D05AE05C0
:100A0000BF0548F4805F984DAF4FBF4FC816D90659
:100A1000EA06FB0648F04F5F5F4FE8CF80E0FF90AB
:100A2000EF90DF90CF90089581E0F9CF4F925F92E1
:100A30006F927F928F929F92AF92BF92CF92DF92EE
:100A4000EF92FF920F931F93CF93DF930E94EB02DD
:100A50004B015C012091DE2B3091DF2BE090CE2BFF
:100A6000F090CF2B0091BE2B1091BF2BC091AE2BDD
:100A7000D091AF2B8091412B9091422B5CECC52EF5
:100A80005FECD52E892B21F44CECC42E47EDD42EEF
:100A90008091E92B9091EA2B892BE9F08091E42B4E
:100AA0009091E52B0697B9F48091E02B9091E12B82
:100AB000A091E22BB091E32BB501A401481B590B87
:100AC0006A0B7B0B81E0403157426105710508F0EC
:100AD00080E08093102C8091F828882391F18091F8
:100AE000A7289091A8280196E0E1F0E0BF010E94BC
:100AF000A0478093A7289093A8288091A52890913B
:100B0000A6280196BF010E94A0478093A528909334
:100B1000A6288091A3289091A4280196BF010E9445
:100B2000A0478093A3289093A4288091A128909116
:100B3000A2280196BF010E94A0478093A12890930C
:100B4000A2288091D32B882321F01092A7281092FD
:100B5000A8288091C32B882321F01092A5281092F9
:100B6000A6288091B32B882321F01092A3281092FD
:100B7000A4288091A32B882321F01092A128109201
:100B8000A2288091012C9091022C892B09F446C057
:100B90008091FF2B9091002C069709F03FC036956D
:100BA000322F2227379527952C0D3D1DE091E62801
:100BB000F091E728EE0FFF1FE20FF31F81E0408165
:100BC0005181452B09F480E08093FD2B8091A7286B
:100BD0009091A828880F991F280F391FF9012081AB
:100BE0003181223031050CF016C1232BA1F0809108
:100BF000EF289091F028A091F128B091F228B5014A
:100C0000A401481B590B6A0B7B0B81E04838534108
:100C10006105710508F080E080930D2C8091FB2B1D
:100C20009091FC2B892B09F448C08091F92B90916D
:100C3000FA2B069709F041C0F694FE2CEE24F794A7
:100C4000E794EC0CFD1CE091E628F091E728709603
:100C5000EE0FFF1FEE0DFF1D81E020813181232B60
:100C600009F480E08093F72B8091A5289091A62825
:100C70004096880F991FE80EF91EF70120813181F7
:100C8000223031050CF0F1C0232BA1F08091EF2828
:100C90009091F028A091F128B091F228B501A4011B
:100CA000481B590B6A0B7B0B81E0483853416105A7
:100CB000710508F080E080930B2C8091F52B9091CA
:100CC000F62B892B09F448C08091F32B9091F42BDB
:100CD000069709F041C01695102F00271795079524
:100CE0000C0D1D1DE091E628F091E728B096EE0F5F
:100CF000FF1FE00FF11F81E020813181232B09F4D8
:100D000080E08093F12B8091A3289091A428809675
:100D1000880F991F080F191FF80120813181223097
:100D200031050CF0CCC0232BA1F08091EF289091DD
:100D3000F028A091F128B091F228B501A401481B38
:100D4000590B6A0B7B0B81E04838534161057105F3
:100D500008F080E08093092C8091EF2B9091F02B8C
:100D6000892B09F447C08091ED2B9091EE2B0697CB
:100D700009F040C0D695DC2FCC27D795C795CC0E6F
:100D8000DD1EE091E628F091E728F096EE0FFF1FB8
:100D9000EC0DFD1D81E020813181232B09F480E0E1
:100DA0008093EB2BC091A128D091A228E096CC0F84
:100DB000DD1FCC0DDD1D28813981223031050CF07D
:100DC000A8C0232BA1F08091EF289091F028A0914A
:100DD000F128B091F228881A990AAA0ABB0A81E080
:100DE00098E8891693E19906A104B10408F080E01F
:100DF0008093072CDF91CF911F910F91FF90EF907F
:100E0000DF90CF90BF90AF909F908F907F906F902A
:100E10005F904F9008958091162990911729A09185
:100E20001829B091192924013501481A590A6A0A6A
:100E30007B0A032E000C440B550B60911229709114
:100E4000132980911429909115290E94B445C3015A
:100E5000B2010E94B44521E06838734181059105D3
:100E600008F020E020930D2CD9CE80911629909186
:100E70001729A0911829B091192924013501481A80
:100E8000590A6A0A7B0A032E000C440B550B609129
:100E900012297091132980911429909115290E948B
:100EA000B445C301B2010E94B44521E068387341E2
:100EB0008105910508F020E020930B2CFECE809157
:100EC000162990911729A0911829B0911929240168
:100ED0003501481A590A6A0A7B0A032E000C440B92
:100EE000550B6091122970911329809114299091CA
:100EF00015290E94B445C301B2010E94B44521E006
:100F0000683873418105910508F020E02093092C91
:100F100023CF8091162990911729A0911829B0917B
:100F20001929881A990AAA0ABB0A032E000C440B35
:100F3000550B609112297091132980911429909179
:100F400015290E94B445C501B4010E94B44521E0B1
:100F5000683873418105910508F020E02093072C43
:100F600049CF8F929F92AF92BF92CF92DF92EF9232
:100F7000FF920F931F93CF93DF93C090DE2BD090FF
:100F8000DF2BE090CE2BF090CF2B0091BE2B109159
:100F9000BF2BC091AE2BD091AF2B8091E92B9091BC
:100FA000EA2B892BE9F08091E42B9091E52B0497B3
:100FB000B9F40E94EB028090E02B9090E12BA0907E
:100FC000E22BB090E32B681979098A099B0921E08B
:100FD000603177428105910508F020E02093102CC4
:100FE0008091012C9091022C892BE1F08091FF2BB4
:100FF0009091002C0497B1F4F601F695E795E8304E
:10100000F10580F4EA5FF74F0C94B4470E083008FE
:10101000330836080E083308300836088091FE2B56
:1010200080930D2C8091FB2B9091FC2B892B29F127
:101030008091F92B9091FA2B0497F9F4F701F6952A
:10104000E795E830F105C8F4E85DF74F0C94B44734
:1010500039085B0839085E0861085E085B083908D2
:101060008091F22BDDCF8091EC2BDACF8091F82BA1
:10107000D7CF8091F22B80930B2C8091F52B909100
:10108000F62B892B29F18091F32B9091F42B049767
:10109000F9F4F801F695E795E830F105C8F4ED5A52
:1010A000F74F0C94B44764088608640889088C08D4
:1010B0006408860889088091EC2BDDCF8091FE2B97
:1010C000DACF8091F82BD7CF8091F82B8093092C21
:1010D0008091EF2B9091F02B892B29F18091ED2BB2
:1010E0009091EE2B0497F9F4FE01F695E795E83020
:1010F000F105C8F4E258F74F0C94B4478F08A008E4
:10110000A308A6088F08A608A008A3088091FE2BB4
:10111000DDCF8091EC2BDACF8091F22BD7CF80916D
:10112000EC2B8093072CDF91CF911F910F91FF90B3
:10113000EF90DF90CF90BF90AF909F908F900895E9
:101140008091F82BEECF8091FE2BEBCF8091F22B8C
:10115000E8CF8F929F92AF92BF92CF92DF92EF92A1
:10116000FF92CF93DF938091E92B9091EA2B892B0B
:10117000E9F08091E42B9091E52B0397B9F40E945C
:10118000EB02C090E02BD090E12BE090E22BF090AE
:10119000E32B6C197D098E099F0921E060317742AC
:1011A0008105910508F020E02093102C8091012CFE
:1011B0009091022C892B09F4D1C08091FF2B909142
:1011C000002C039709F0CAC08091D32B2091DE2B0D
:1011D0003091DF2B2930310508F453C3811104C04D
:1011E0008091A028882371F110929C2810929D284C
:1011F00010929E2810929F284091102850911128FB
:101200008091942B9091952B969587952AE032E0CA
:10121000281B390B440F551FFA01E454F043A081F9
:10122000B1810E94D64544555043FA012081318155
:1012300050E040E00E94B44520939A2830939B28C8
:101240001092A02880909C2890909D28A0909E2885
:10125000B0909F28C0919A28D0919B286E01F12CC4
:10126000E12CFAE08F169104A104B104F0F440914E
:10127000102850911128440F551FFA01E454F043EF
:1012800020813181A8EEB3E00E94D64544555043F9
:10129000FA012081318150E040E00E94B44581E0B4
:1012A000C216D306E406F50608F080E080930D2C04
:1012B000C814D904EA04FB04F0F510929C2810929B
:1012C0009D2810929E2810929F284091102850919E
:1012D00011282091942B3091952B81E094E0821B72
:1012E000930B6091522970915329869F9001879F9B
:1012F000300D969F300D112463E0369527956A9541
:10130000E1F72F5F3F4F440F551FFA01E454F043BC
:10131000A081B1810E94D64544555043FA012081F5
:10132000318150E040E00E94B4452C0F3D1F2093D6
:101330009A2830939B2880919C2890919D28A09179
:101340009E28B0919F280196A11DB11D80939C28D5
:1013500090939D28A0939E28B0939F288091FB2B6B
:101360009091FC2B892B09F4D1C08091F92B90919D
:10137000FA2B039709F0CAC08091C32B2091CE2B82
:101380003091CF2B2930310508F403C3811104C0FB
:1013900080919928882371F11092952810929628AF
:1013A0001092972810929828409112285091132853
:1013B0008091842B9091852B969587952AE032E039
:1013C000281B390B440F551FFA01E454F043A08148
:1013D000B1810E94D64544555043FA0120813181A4
:1013E00050E040E00E94B445209393283093942825
:1013F000109299288090952890909628A0909728F0
:10140000B0909828C0919328D09194286E01F12C27
:10141000E12CFAE08F169104A104B104F0F440919C
:10142000122850911328440F551FFA01E454F04339
:1014300020813181A8EEB3E00E94D6454455504347
:10144000FA012081318150E040E00E94B44581E002
:10145000C216D306E406F50608F080E080930B2C54
:10146000C814D904EA04FB04F0F5109295281092F0
:1014700096281092972810929828409112285091FF
:1014800013282091842B3091852B81E094E0821BDE
:10149000930B6091502970915129869F9001879FED
:1014A000300D969F300D1124F3E036952795FA956F
:1014B000E1F72F5F3F4F440F551FFA01E454F0430B
:1014C000A081B1810E94D64544555043FA01208144
:1014D000318150E040E00E94B4452C0F3D1F209325
:1014E0009328309394288091952890919628A091E4
:1014F0009728B09198280196A11DB11D8093952839
:1015000090939628A0939728B09398288091F52BD4
:101510009091F62B892B09F4D1C08091F32B9091F7
:10152000F42B039709F0CAC08091B32B2091BE2BF6
:101530003091BF2B2930310508F4B3C2811104C0AA
:1015400080919228882371F110928E2810928F2812
:1015500010929028109291284091142850911528AB
:101560008091742B9091752B969587952AE032E0A7
:10157000281B390B440F551FFA01E454F043A08196
:10158000B1810E94D64544555043FA0120813181F2
:1015900050E040E00E94B44520938C2830938D2881
:1015A0001092922880908E2890908F28A09090285A
:1015B000B0909128C0918C28D0918D286E01F12C8B
:1015C000E12CFAE08F169104A104B104F0F44091EB
:1015D000142850911528440F551FFA01E454F04384
:1015E00020813181A8EEB3E00E94D6454455504396
:1015F000FA012081318150E040E00E94B44581E051
:10160000C216D306E406F50608F080E08093092CA4
:10161000C814D904EA04FB04F0F510928E28109245
:101620008F28109290281092912840911428509160
:1016300015282091742B3091752B81E094E0821B4A
:10164000930B60914E2970914F29869F9001879F3F
:10165000300D969F300D112483E0369527958A959D
:10166000E1F72F5F3F4F440F551FFA01E454F04359
:10167000A081B1810E94D64544555043FA01208192
:10168000318150E040E00E94B4452C0F3D1F209373
:101690008C2830938D2880918E2890918F28A0914E
:1016A0009028B09191280196A11DB11D80938E289C
:1016B00090938F28A0939028B09391288091EF2B3E
:1016C0009091F02B892B09F4D1C08091ED2B909152
:1016D000EE2B039709F0CAC08091A32B2091AE2B6B
:1016E0003091AF2B2930310508F463C2811104C059
:1016F00080918B28882371F1109287281092882876
:101700001092892810928A28409116285091172803
:101710008091642B9091652B969587952AE032E015
:10172000281B390B440F551FFA01E454F043A081E4
:10173000B1810E94D64544555043FA012081318140
:1017400050E040E00E94B4452093852830938628DD
:1017500010928B288090872890908828A0908928C4
:10176000B0908A28C0918528D09186286E01F12CEE
:10177000E12CFAE08F169104A104B104F0F4409139
:10178000162850911728440F551FFA01E454F043CE
:1017900020813181A8EEB3E00E94D64544555043E4
:1017A000FA012081318150E040E00E94B44581E09F
:1017B000C216D306E406F50608F080E08093072CF5
:1017C000C814D904EA04FB04F0F51092872810929B
:1017D00088281092892810928A28409116285091C2
:1017E00017282091642B3091652B81E094E0821BB7
:1017F000930B60914C2970914D29869F9001879F92
:10180000300D969F300D112463E0369527956A952B
:10181000E1F72F5F3F4F440F551FFA01E454F043A7
:10182000A081B1810E94D64544555043FA012081E0
:10183000318150E040E00E94B4452C0F3D1F2093C1
:101840008528309386288091872890918828A091B8
:101850008928B0918A280196A11DB11D80938728FF
:1018600090938828A0938928B0938A28DF91CF91FC
:10187000FF90EF90DF90CF90BF90AF909F908F90B0
:101880000895811104C08091A028882361F11092ED
:101890009C2810929D2810929E2810929F2840917B
:1018A0001028509111282091942B3091952B36952A
:1018B00027952C593F4F440F551FFA01E454F0432C
:1018C000A081B1810E94D64544555043FA01208140
:1018D000318150E040E00E94B44520939A28309333
:1018E0009B281092A02840919C2850919D2860919F
:1018F0009E2870919F28C0909A28D0909B284A30AB
:1019000051056105710528F481E0FBE0CF16D10493
:1019100008F480E080930D2CF12CE12CC416D50640
:10192000E606F70608F007CD10929C2810929D2835
:1019300010929E2810929F286091522970915329ED
:1019400090E080E00E94814620E030E040E05EE3ED
:101950000E940F472DEC3CEC4CEC5EE30E940F47DD
:1019600020E030E040E05FE30E94E6454B015C018F
:10197000C701B6010E9481469B01AC01C501B401BB
:101980000E940F470E94524660939A2870939B28AA
:10199000D2CC811104C080919928882361F11092E2
:1019A0009528109296281092972810929828409186
:1019B0001228509113282091842B3091852B369535
:1019C00027952C593F4F440F551FFA01E454F0431B
:1019D000A081B1810E94D64544555043FA0120812F
:1019E000318150E040E00E94B44520939328309329
:1019F00094281092992840919528509196286091AA
:101A0000972870919828C0909328D09094284A30B5
:101A100051056105710528F481E0FBE0CF16D10482
:101A200008F480E080930B2CF12CE12CC416D50631
:101A3000E606F70608F057CD1092952810929628E2
:101A400010929728109298286091502970915129EE
:101A500090E080E00E94814620E030E040E05EE3DC
:101A60000E940F472DEC3CEC4CEC5EE30E940F47CC
:101A700020E030E040E05FE30E94E6454B015C017E
:101A8000C701B6010E9481469B01AC01C501B401AA
:101A90000E940F470E9452466093932870939428A7
:101AA00022CD811104C080919228882361F1109287
:101AB0008E2810928F281092902810929128409191
:101AC0001428509115282091742B3091752B369540
:101AD00027952C593F4F440F551FFA01E454F0430A
:101AE000A081B1810E94D64544555043FA0120811E
:101AF000318150E040E00E94B44520938C2830931F
:101B00008D281092922840918E2850918F286091B4
:101B1000902870919128C0908C28D0908D284A30C0
:101B200051056105710528F481E0FBE0CF16D10471
:101B300008F480E08093092CF12CE12CC416D50622
:101B4000E606F70608F0A7CD10928E2810928F288F
:101B5000109290281092912860914E2970914F29EF
:101B600090E080E00E94814620E030E040E05EE3CB
:101B70000E940F472DEC3CEC4CEC5EE30E940F47BB
:101B800020E030E040E05FE30E94E6454B015C016D
:101B9000C701B6010E9481469B01AC01C501B40199
:101BA0000E940F470E94524660938C2870938D28A4
:101BB00072CD811104C080918B28882361F110922D
:101BC0008728109288281092892810928A2840919C
:101BD0001628509117282091642B3091652B36954B
:101BE00027952C593F4F440F551FFA01E454F043F9
:101BF000A081B1810E94D64544555043FA0120810D
:101C0000318150E040E00E94B44520938528309314
:101C1000862810928B2840918728509188286091BF
:101C2000892870918A28C0908528D09086284A30CB
:101C300051056105710528F481E0FBE0CF16D10460
:101C400008F480E08093072CF12CE12CC416D50613
:101C5000E606F70608F0F7CD10928728109288283C
:101C60001092892810928A2860914C2970914D29F0
:101C700090E080E00E94814620E030E040E05EE3BA
:101C80000E940F472DEC3CEC4CEC5EE30E940F47AA
:101C900020E030E040E05FE30E94E6454B015C015C
:101CA000C701B6010E9481469B01AC01C501B40188
:101CB0000E940F470E9452466093852870938628A1
:101CC000C2CD880F991FFC01E25FF74D0190F081B2
:101CD000E02DEE0FFF1FDF01A454B0430D90BC9127
:101CE000A02D20911229309113294091142950914F
:101CF00015290E94A145E455F0432081318150E02F
:101D000040E00E94B445CA01B90108950F931F93A2
:101D1000CF93DF932091472B2223C9F1EC0161E09F
:101D200070E08DE00E94B80161E070E08DE00E94FB
:101D3000B80161E070E08DE00E94B80110E000E0C1
:101D4000C017D10769F070E060E08DE00E94B80133
:101D500061E070E08DE00E94B8010F5F1F4FF0CF8F
:101D600061E070E08DE00E94B80161E070E08DE01C
:101D70000E94B80161E070E08DE00E94B80181E04E
:101D800080930E2CDF91CF911F910F9108950196B2
:101D9000880F991F20910F2C222359F02091C528DC
:101DA0003091C628820F931F8093C5289093C62830
:101DB000E9CF10920E2C8093C5289093C62881E01D
:101DC00080930F2C2DEA37E140E659E060E070E0A7
:101DD0008FE79DE2DF91CF911F910F910C941A0331
:101DE0008091542990915529009779F02091E92B01
:101DF0003091EA2B2115310531F0821B930B0097AE
:101E000021F00C94860E0197FACF08952091032CAF
:101E10003091042C2115310569F08D7F85309105B5
:101E200059F42D7F91E080E02130310509F090E0F8
:101E3000292F382FC9010895049731F42130310535
:101E4000C9F322E030E0F6CF30E020E0F3CF80911C
:101E50000729882309F4DFC0809132299091332922
:101E600020912E2930912F29820F931F8770992757
:101E70009C01B3E0220F331FBA95E1F7F901E85A4C
:101E8000F64D648175814091442B411107C1611564
:101E9000710509F4FEC08091C1289091C22820915B
:101EA0000529309106292817390708F0F2C0409714
:101EB00008F4EFC08091532B8111EBC08081918198
:101EC0008093E42B9093E52B828193818093562914
:101ED000909357296093E92B7093EA2B26813781E1
:101EE0002093542930935529A6E096958795AA9575
:101EF000E1F78031910508F0B1C0809320299093DB
:101F0000212920919E2B30919F2B80912029909107
:101F100021292130310509F4B0C008F4A2C02230D3
:101F2000310509F4B0C08091E42B9091E52B8093AA
:101F3000ED2B9093EE2B8093F32B9093F42B8093C7
:101F4000F92B9093FA2B8093FF2B9093002C809188
:101F50005629909157298093642B9093652B8093F9
:101F6000742B9093752B8093842B9093852B809367
:101F7000942B9093952B8091E92B9091EA2B809351
:101F8000EF2B9093F02B8093F52B9093F62B80936F
:101F9000FB2B9093FC2B8093012C9093022C80912F
:101FA00054299091552980934C2990934D298093E1
:101FB0004E2990934F2980935029909351298093D3
:101FC000522990935329809120299091212980931F
:101FD000AE2B9093AF2B8093BE2B9093BF2B80930F
:101FE000CE2B9093CF2B8093DE2B9093DF2B809181
:101FF0002429909125298093A82B9093A92B809335
:10200000B82B9093B92B8093C82B9093C92B8093B6
:10201000D82B9093D92B8091E92B9091EA2B892B87
:10202000C9F48091012C9091022C892B99F4809114
:10203000FB2B9091FC2B892B69F48091F52B9091CF
:10204000F62B892B39F48091EF2B9091F02B892B73
:1020500009F4B1C281E08093E72B08958FE090E00E
:102060004CCF880F991FFC01E45FFF418081918173
:10207000809324299093252956CF880F991FFC011E
:10208000E451F042F3CF880F991FFC01E453F04272
:10209000EDCF1092E92B1092EA2B45CF6115710517
:1020A00009F4E9C14091C1285091C228A0910529A5
:1020B000B0910629A417B50708F0DDC140315105DC
:1020C00008F4D9C14091532B4111D5C140815181B0
:1020D0004093E42B5093E52B428153814093562942
:1020E000509357296093E92B7093EA2B668177818F
:1020F000609354297093552966E0569547956A95E3
:10210000E1F74031510508F092C1409320295093E6
:10211000212940919E2B50919F2B4130510509F46C
:1021200098C108F487C14230510509F49BC1B90137
:10213000685A764DFB01EC5BFF4FA081B18110978F
:1021400009F4C2C14091C1285091C228E0910329ED
:10215000F0910429E417F50708F0B6C140315105A4
:1021600008F4B2C14091532B4111AEC1FC0143E0D0
:10217000EE0FFF1F4A95E1F7E856F64D4081518179
:102180004093FF2B5093002CFB01EE5BFF4F4081EF
:1021900051814093942B5093952BA093012CB09395
:1021A000022C6A5B7F4FFB01608171816093522931
:1021B0007093532966E0569547956A95E1F740314B
:1021C000510508F05DC14093DE2B5093DF2B409109
:1021D0009E2B50919F2B4130510509F463C108F4A7
:1021E00052C14230510509F466C1B901685A764DB1
:1021F000FB01EC57FF4FA081B181109709F48DC10D
:102200004091C1285091C228E0910129F091022902
:10221000E417F50708F081C14031510508F47DC18C
:102220004091532B411179C1FC0143E0EE0FFF1F98
:102230004A95E1F7E852F64D408151814093F92BE0
:102240005093FA2BFB01EE57FF4F40815181409391
:10225000842B5093852BA093FB2BB093FC2B6A57B8
:102260007F4FFB01608171816093502970935129E8
:1022700066E0569547956A95E1F74031510508F0BB
:1022800028C14093CE2B5093CF2B40919E2B509141
:102290009F2B4130510509F42EC108F41DC1423075
:1022A000510509F431C1B901685A764DFB01EC536F
:1022B000FF4FA081B181109709F458C14091C12806
:1022C0005091C228E091FF28F0910029E417F5070A
:1022D00008F04CC14031510508F448C14091532BDE
:1022E000411144C1FC0153E0EE0FFF1F5A95E1F785
:1022F000E85EF54D408151814093F32B5093F42BD0
:10230000FB01EE53FF4F408151814093742B50935A
:10231000752BA093F52BB093F62B6A537F4FFB01DF
:102320006081718160934E2970934F2966E05695C4
:1023300047956A95E1F74031510508F0F3C04093A5
:10234000BE2B5093BF2B40919E2B50919F2B413021
:10235000510509F4F9C008F4E8C04230510509F408
:10236000FCC0285A364DF901EC5FFE4F4081518187
:102370004115510509F41AC16091C1287091C22814
:10238000E091FD28F091FE28E617F70708F00EC14E
:102390006031710508F40AC16091532B611106C1C7
:1023A00063E0880F991F6A95E1F7FC01E85AF54D43
:1023B000808191818093ED2B9093EE2BF901EE5F5C
:1023C000FE4F808191818093642B9093652B409385
:1023D000EF2B5093F02B2A5F3E4FF9012081318182
:1023E00020934C2930934D2976E0969587957A95E0
:1023F000E1F78031910508F0BEC08093AE2B909339
:10240000AF2B80919E2B90919F2B8130910509F4E9
:10241000C4C008F4B3C0029709F0FDCDE091AE2B23
:10242000F091AF2BEE0FFF1FE453F042AFC04FE02F
:1024300050E06BCEE0912029F0912129EE0FFF1F93
:10244000E45FFF4140815181409324295093252925
:102450006ECEE0912029F0912129EE0FFF1FE4516B
:10246000F042F0CFE0912029F0912129EE0FFF1FDB
:10247000E453F042E7CF1092E92B1092EA2B57CEAB
:102480004FE050E0A0CEE091DE2BF091DF2BEE0F7D
:10249000FF1FE45FFF41408151814093D82B50934F
:1024A000D92BA3CEE091DE2BF091DF2BEE0FFF1F97
:1024B000E451F042F0CFE091DE2BF091DF2BEE0FF4
:1024C000FF1FE453F042E7CF1092012C1092022C30
:1024D0008CCE4FE050E0D5CEE091CE2BF091CF2BBB
:1024E000EE0FFF1FE45FFF41408151814093C82BF5
:1024F0005093C92BD8CEE091CE2BF091CF2BEE0F7D
:10250000FF1FE451F042F0CFE091CE2BF091CF2BA2
:10251000EE0FFF1FE453F042E7CF1092FB2B109217
:10252000FC2BC1CE4FE050E00ACFE091BE2BF091E2
:10253000BF2BEE0FFF1FE45FFF41408151814093AD
:10254000B82B5093B92B0DCFE091BE2BF091BF2B40
:10255000EE0FFF1FE451F042F0CFE091BE2BF0915F
:10256000BF2BEE0FFF1FE453F042E7CF1092F52B85
:102570001092F62BF6CE8FE090E03FCFE091AE2B9D
:10258000F091AF2BEE0FFF1FE45FFF41808191813F
:102590008093A82B9093A92B3ECDE091AE2BF09188
:1025A000AF2BEE0FFF1FE451F042F0CF1092EF2B54
:1025B0001092F02B30CD1092E72B08954F925F923E
:1025C0006F927F928F929F92AF92BF92CF92DF9243
:1025D000EF92FF92CF93DF9300D000D0CDB7DEB75C
:1025E0004B015C010E94EB02C0901229D09013298C
:1025F000E0901429F0901529409016295090172941
:10260000609018297090192984149504A604B704C1
:1026100008F462C0A301920124563109410951090D
:1026200029833A834B835C83D701C60172E0B69558
:10263000A795979587957A95D1F7820F931FA41F39
:10264000B51F88159905AA05BB0508F042C0D7013A
:10265000C601B695A79597958795820F931FA41FDE
:10266000B51F88169906AA06BB0608F458C0A3E051
:10267000B0E0A70196010E94A14522E096958795BA
:10268000779567952A95D1F729813A814B815C81AD
:10269000620F731F841F951F86169706A806B9063A
:1026A00008F440C0C40CD51CE61CF71C34E6C31A61
:1026B000D108E108F10883E090E08C149D04AE0499
:1026C000BF04D8F084E090E0C814D904EA04FB0405
:1026D000A0F090E080E011C0481859086A087B0813
:1026E00081E090E044E6441651046104710410F462
:1026F00090E080E09195819591092496CDBFDEBF51
:10270000DF91CF91FF90EF90DF90CF90BF90AF908F
:102710009F908F907F906F905F904F90089581E091
:1027200090E0EBCF82E090E0E8CF81E080939D2ABB
:102730000E94EB026093992A70939A2A80939B2AB5
:1027400090939C2A089581E08093A22A0E94EB0234
:1027500060939E2A70939F2A8093A02A9093A12A27
:10276000089581E08093A72A0E94EB026093A32A38
:102770007093A42A8093A52A9093A62A089581E0B5
:102780008093AC2A0E94EB026093A82A7093A92A36
:102790008093AA2A9093AB2A089580912F28909134
:1027A0003028009709F450C062E370E04EEF5FEF0D
:1027B0008130910511F050E040E02091BF28309128
:1027C000C028460F571F4217530708F440C0109205
:1027D0002F28109230288091452B9091462B8130E4
:1027E000910509F434C108F428C1029709F43AC1EB
:1027F0008091202990912129009709F43CC160E43F
:1028000070E04CEE5FEF8130910511F050E040E058
:102810002091562930915729460F571F42175307C9
:1028200008F42CC1109220291092212980919E2B0E
:1028300090919F2B8130910509F47DC308F46CC3FE
:10284000029709F481C308956CE370E0B4CF81303E
:102850009105A9F068E770E046EF5FEF82309105DF
:1028600011F050E040E0460F571F4217530750F059
:1028700081E090E080932F2890933028ACCF62E8DD
:1028800070E0EFCF8230910589F06CE271E046EFA5
:102890005FEF8330910511F050E040E0460F571F85
:1028A0004217530730F082E090E0E4CF66E371E036
:1028B000F3CF8230910511F16CE271E046EF5FEFEA
:1028C0008330910511F050E040E0460F571F42174A
:1028D0005307D0F483309105A1F068E072E046EF31
:1028E0005FEF8430910511F050E040E0460F571F34
:1028F0004217530748F083E090E0BCCF66E371E0F5
:10290000E2CF62E172E0F0CF8330910511F168E02F
:1029100072E046EF5FEF8430910511F050E040E047
:10292000460F571F42175307D0F484309105A1F08A
:1029300068EA72E046EF5FEF8530910511F050E0F4
:1029400040E0460F571F4217530748F084E090E0DD
:1029500091CF62E172E0E2CF62EB72E0F0CF8430BF
:10296000910511F168EA72E046EF5FEF853091055D
:1029700011F050E040E0460F571F42175307D0F4C4
:1029800085309105A1F060E773E046EF5FEF863098
:10299000910511F050E040E0460F571F42175307D2
:1029A00048F085E090E066CF62EB72E0E2CF6AE744
:1029B00073E0F0CF8530910511F160E773E046EFE9
:1029C0005FEF8630910511F050E040E0460F571F51
:1029D00042175307D0F486309105A1F068EE73E0FA
:1029E00046EF5FEF8730910511F050E040E0460F71
:1029F000571F4217530748F086E090E03BCF6AE745
:102A000073E0E2CF62EF73E0F0CF8630910579F0AA
:102A100048EE53E0079771F090E080E0840F951F37
:102A20008217930708F0D7CE87E090E023CF42EFDC
:102A300053E0F2CF86EF9FEFF1CF80912F28909156
:102A40003028019680932A2990932B29D1CEE091AA
:102A50002F28F0913028EE0FFF1FE450F0428081C4
:102A60009181F0CFE0912F28F0913028EE0FFF1FD9
:102A7000E452F042F4CF64E570E0C8CE81309105B5
:102A8000A9F060E870E04CEE5FEF8230910511F044
:102A900050E040E0460F571F4217530750F081E0C7
:102AA00090E08093202990932129C0CE64E970E0C2
:102AB000EFCF8230910589F060EC70E04CEE5FEF73
:102AC0008330910511F050E040E0460F571F421748
:102AD000530730F082E090E0E4CF64ED70E0F3CF94
:102AE0008230910511F160EC70E04CEE5FEF8330C5
:102AF000910511F050E040E0460F571F4217530771
:102B0000D0F483309105A1F060E071E04CEE5FEF0E
:102B10008430910511F050E040E0460F571F4217F6
:102B2000530748F083E090E0BCCF64ED70E0E2CF63
:102B300064E171E0F0CF8330910511F160E071E064
:102B40004CEE5FEF8430910511F050E040E0460F0D
:102B5000571F42175307D0F484309105A1F060E469
:102B600071E04CEE5FEF8530910511F050E040E0F0
:102B7000460F571F4217530748F084E090E091CF6B
:102B800064E171E0E2CF64E571E0F0CF843091055B
:102B900011F160E471E04CEE5FEF8530910511F0CA
:102BA00050E040E0460F571F42175307D0F48530DE
:102BB0009105A1F060E871E04CEE5FEF8630910581
:102BC00011F050E040E0460F571F4217530748F0FE
:102BD00085E090E066CF64E571E0E2CF64E971E002
:102BE000F0CF8530910511F160E871E04CEE5FEFB8
:102BF0008630910511F050E040E0460F571F421714
:102C00005307D0F486309105A1F060EC71E04CEEF2
:102C10005FEF8730910511F050E040E0460F571FFD
:102C20004217530748F086E090E03BCF64E971E03B
:102C3000E2CF64ED71E0F0CF8630910511F160ECE8
:102C400071E04CEE5FEF8730910511F050E040E00D
:102C5000460F571F42175307D0F487309105A1F054
:102C600060E072E04CEE5FEF8830910511F050E0CB
:102C700040E0460F571F4217530748F087E090E0A7
:102C800010CF64ED71E0E2CF64E172E0F0CF873005
:102C9000910511F160E072E04CEE5FEF8830910534
:102CA00011F050E040E0460F571F42175307D0F491
:102CB00088309105A1F060E472E04CEE5FEF89305E
:102CC000910511F050E040E0460F571F421753079F
:102CD00048F088E090E0E5CE64E172E0E2CF64E5A0
:102CE00072E0F0CF8830910511F160E472E04CEEB3
:102CF0005FEF8930910511F050E040E0460F571F1B
:102D000042175307D0F489309105A1F060E872E0D2
:102D10004CEE5FEF8A30910511F050E040E0460F35
:102D2000571F4217530748F089E090E0BACE64E598
:102D300072E0E2CF64E972E0F0CF8930910511F1E1
:102D400060E872E04CEE5FEF8A30910511F050E0E0
:102D500040E0460F571F42175307D0F48A309105C1
:102D6000A1F060EC72E04CEE5FEF8B30910511F05A
:102D700050E040E0460F571F4217530748F08AE0E3
:102D800090E08FCE64E972E0E2CF64ED72E0F0CFC4
:102D90008A30910511F160EC72E04CEE5FEF8B3000
:102DA000910511F050E040E0460F571F42175307BE
:102DB000D0F48B309105A1F060E073E04CEE5FEF52
:102DC0008C30910511F050E040E0460F571F42173C
:102DD000530748F08BE090E064CE64ED72E0E2CF00
:102DE00064E173E0F0CF8B30910511F160E073E0A6
:102DF0004CEE5FEF8C30910511F050E040E0460F53
:102E0000571F42175307D0F48C309105A1F060E4AE
:102E100073E04CEE5FEF8D30910511F050E040E033
:102E2000460F571F4217530748F08CE090E039CE09
:102E300064E173E0E2CF64E573E0F0CF8C3091059C
:102E400011F160E473E04CEE5FEF8D30910511F00D
:102E500050E040E0460F571F42175307D0F48D3023
:102E60009105A1F060E873E04CEE5FEF8E309105C4
:102E700011F050E040E0460F571F4217530748F04B
:102E80008DE090E00ECE64E573E0E2CF64E973E09C
:102E9000F0CF8D30910511F160E873E04CEE5FEFFB
:102EA0008E30910511F050E040E0460F571F421759
:102EB0005307D0F48E309105A1F060EC73E04CEE36
:102EC0005FEF8F30910511F050E040E0460F571F43
:102ED0004217530748F08EE090E0E3CD64E973E0D9
:102EE000E2CF64ED73E0F0CF8E30910579F040ECE5
:102EF00053E00F9771F090E080E0840F951F8217E8
:102F0000930708F093CC8FE090E0CBCD44ED53E0F5
:102F1000F2CF8CEE9FEFF1CFE0912029F0912129A3
:102F2000EE0FFF1FE45FFF41808191818093242990
:102F3000909325290895E0912029F0912129EE0F01
:102F4000FF1FE451F042F0CFE0912029F0912129B8
:102F5000EE0FFF1FE453F042E7CFCF93DF93C09112
:102F6000C528D091C6282197C093C528D093C628DC
:102F7000C0FF07C070E060E08DE00E94B80181E012
:102F800019C061E070E08DE00E94B801CD2BB9F767
:102F900010920F2C8091542990915529019769F432
:102FA0008091E92B9091EA2B892B39F081E0809375
:102FB0000E2C80E0DF91CF91089510920E2CF9CF66
:102FC000DC01ED91FC910088F189E02D23E030E0F7
:102FD0000994CF93DF93FC0101900020E9F731972A
:102FE000AF01481B590BBC0184EE9CE20E94AA036E
:102FF000EC0142E050E066EB70EE84EE9CE20E9451
:10300000AA038C0F9D1FDF91CF91089580916B28AB
:1030100090916C282091692830916A288217930733
:10302000E9F088309105D0F4FC01E75EF74E0C948E
:10303000B4472118241828182B18331835183718B6
:103040003918089AAD9802C00898AD9A4E9806C0F3
:103050000898AD9802C00898AD9A4E9A8093692856
:1030600090936A280895089AF7CF089AF2CF089AA1
:10307000ECCF0898E7CFCF92DF92EF92FF929C01BE
:10308000ACE2B1E00E94D6456B017C010E949E0338
:10309000A701960124543D4F4F4F5F4F0E94B44506
:1030A0006C157D058E059F0588F42CE231E040E02B
:1030B00050E00E94B445663971058105910530F4F0
:1030C0004C9AFF90EF90DF90CF9008954C98F9CFF5
:1030D0008830910598F4FC01E059F74E0C94B44700
:1030E00078187B187F188218861888188A188C1808
:1030F000089AAD9802C00898AD9A4E98089508981D
:10310000AD9802C00898AD9A4E9A0895089AFBCFE0
:10311000089AF6CF089AF0CF0898EBCF0F931F9339
:10312000CF93DF9380914F2B8823E9F0E0914D2BD3
:10313000F0914E2BEE0FFF1FE05FF74D80819181E4
:1031400080936B2890936C280E94061880914D2BD9
:1031500090914E2B01960E943B1881E0DF91CF9118
:103160001F910F9108958091532B811106C080917A
:10317000112C882309F466C07AC08091542B909159
:10318000552B2091522B222309F45EC087309105E4
:1031900009F04FC08091182890911928823091052C
:1031A00008F450C00E943B18C0910A28D0910B2807
:1031B0008091522B882309F4BBC00E949E0300918A
:1031C0002628109127282091282830912928AB0102
:1031D000BC01401B510B620B730B8091D028909166
:1031E000D1280CEB12E020E030E0009721F002EC57
:1031F00011E020E030E0041715072607370788F4B0
:103200000196837099278093D0289093D1280E94AB
:103210009E036093262870932728809328289093F4
:103220002928209749F12197C0930A28D0930B2889
:1032300094CF059739F48091032C9091042C00973A
:1032400009F0B0CF4C98B0CF079799F48091432BF9
:103250008823C1F30E949E0320E931E040E050E062
:103260000E94B445683C71058105910558F74C9A58
:103270009BCF80913F2B7DCF80916B2890916C28C4
:10328000E091D028F091D12871E020911828309158
:1032900019282230310508F470E061E02091412BBB
:1032A0003091422B232B09F460E051E02091032C54
:1032B0003091042C232B09F450E0A091052C29E037
:1032C00030E0EE0FFF1FE65EF74D019687709927FD
:1032D0000097E9F08530910529F18630910521F1BB
:1032E0008730910519F1EC012197249798F4C0815A
:1032F000D181C817D90771F480936B2890936C28FB
:1033000023E030E020930A2830930B2852C04A2F44
:103310004111F2CF21503109C1F680936B2890936F
:103320006C28F0CF452FF4CF462FF2CF472FF0CFA8
:103330004091112C209709F03FC080916B2890910B
:103340006C2801968770992780936B2890936C283E
:103350002091532B211114C0411112C021E130E002
:10336000FC01E050F84D5081511106C00196877064
:10337000992721503109A1F780936B2890936C28ED
:1033800081E080932E284423F9F08091532B811102
:103390001BC08091322990913329209126293091A8
:1033A0002729820F931F8770992780936B2890930A
:1033B0006C280E940618D1CE2197C0930A28D0937A
:1033C0000B2810922E28DFCF8091E72B882309F459
:1033D00091C08091442B811105C08091E42B909184
:1033E000E52BE3CF80912E28882319F380912C2898
:1033F00090912D28019665E070E00E948C47AC0109
:10340000E091E92BF091EA2BA091012CB091022CD4
:10341000C091FB2BD091FC2B0091F52B1091F62B3A
:103420006091EF2B7091F02B20910A2890910B283E
:103430004115510559F4309761F020930A28909373
:103440000B2810922C2810922D28C7CF41305105FF
:1034500089F4109791F020930A2890930B2881E02B
:1034600090E080932C2890932D288091FF2B9091B1
:10347000002C9BCF4230510589F4209791F0209386
:103480000A2890930B2882E090E080932C28909358
:103490002D288091F92B9091FA2B87CF433051053D
:1034A00091F40115110579F020930A2890930B28C7
:1034B00083E090E080932C2890932D288091F32B2B
:1034C0009091F42B72CF322F892F21E090E061157B
:1034D000710509F4B0CF30930A2880930B2884E05B
:1034E00090E080932C2890932D288091ED2B909143
:1034F000EE2B5BCF80912E28882309F45ACFE091E0
:103500006B28F0916C288091532B811123C08091FE
:10351000E42B9091E52B8E179F07A9F420912A2880
:1035200030912B282817390758F02AE030E02093F3
:103530000A2830930B2880932A2890932B2839CF80
:1035400021E030E0F4CF81E090E080930A2890936E
:103550000B282FCF4091442B2091452B3091462BA7
:1035600080919E2B90919F2B5091472BE830F10535
:10357000E8F7E354F54E0C94B447C51ACE1AD81A9E
:10358000E21AEB1AF11AF71AFD1A552339F01092C4
:103590006B2810926C2882E090E0D7CF82309105A2
:1035A00039F421E030E020936B2830936C28CDCFA4
:1035B0008130910539F482E090E080936B289093FC
:1035C0006C28C3CF009739F483E090E080936B2898
:1035D00090936C28E0CF2115310519F484E090E038
:1035E000F5CF2130310519F485E090E0EFCF22309E
:1035F000310519F486E090E090CE442331F287E063
:1036000090E0E4CFCF93DF938091BB289091BC28CA
:10361000009729F001978093BB289093BC28809154
:10362000442B882361F18091B9289091BA280097A2
:1036300029F001978093B9289093BA288091B728F0
:103640009091B828009729F001978093B72890931C
:10365000B8288091B5289091B628009729F0019755
:103660008093B5289093B6288091B3289091B42880
:10367000009729F001978093B3289093B4280E9473
:103680000E452091BB283091BC284AE5429FE001BD
:10369000439FD00D112428EE33E040E050E00E941B
:1036A0008245DC01CB018C0F9D1FA11DB11D893E00
:1036B00023E09207A105B10524F088EE93E0A0E095
:1036C000B0E08093B1289093B2282091442B22231C
:1036D00009F43BC10E940E452091B9283091BA28C7
:1036E0004AE5429FE001439FD00D112428EE33E0CC
:1036F00040E050E00E948245DC01CB018C0F9D1F11
:10370000A11DB11D893E23E09207A105B10524F05A
:1037100088EE93E0A0E0B0E08093AF289093B028CB
:103720000E940E452091B7283091B8284AE5429F63
:10373000E001439FD00D112428EE33E040E050E03B
:103740000E948245DC01CB018C0F9D1FA11DB11D84
:10375000893E23E09207A105B10524F088EE93E0AD
:10376000A0E0B0E08093AD289093AE280E940E4573
:103770002091B5283091B6284AE5429FE001439F49
:10378000D00D112428EE33E040E050E00E94824545
:10379000DC01CB018C0F9D1FA11DB11D893E23E0D3
:1037A0009207A105B10524F088EE93E0A0E0B0E017
:1037B0008093AB289093AC280E940E452091B328AB
:1037C0003091B4284AE5429FE001439FD00D112477
:1037D00028EE33E040E050E00E948245DC01CB015E
:1037E0008C0F9D1FA11DB11D893E23E09207A105ED
:1037F000B10524F088EE93E0A0E0B0E08093A92822
:103800009093AA288091E92B9091EA2B8130910521
:1038100069F421E02093352B2091542930915529CA
:10382000215031092093BB283093BC282091442B90
:10383000222309F450C02091012C3091022C213018
:10384000310569F421E02093362B209152293091E3
:103850005329215031092093B9283093BA28209157
:10386000FB2B3091FC2B2130310569F421E02093B2
:10387000372B209150293091512921503109209323
:10388000B7283093B8282091F52B3091F62B2130B2
:10389000310569F421E02093382B20914E29309195
:1038A0004F29215031092093B5283093B628209113
:1038B000EF2B3091F02B2130310569F421E020937A
:1038C000392B20914C2930914D29215031092093D9
:1038D000B3283093B4282091112C211133C00097C4
:1038E00029F001978093E92B9093EA2B8091012C8A
:1038F0009091022C009729F001978093012C9093CE
:10390000022C8091FB2B9091FC2B009729F00197C2
:103910008093FB2B9093FC2B8091F52B9091F62BB1
:10392000009729F001978093F52B9093F62B8091C7
:10393000EF2B9091F02B009729F001978093EF2BBC
:103940009093F02BDF91CF9108958093A9289093C5
:10395000AA288093AB289093AC288093AD289093AD
:10396000AE288093AF289093B0284CCF2F923F92EF
:103970004F925F926F927F928F929F92AF92BF927F
:10398000CF92DF92EF92FF920F931F93CF93DF932B
:103990006B017C012A010E940E4520E130E040E0ED
:1039A00050E00E94824520919E2B30919F2B660F04
:1039B000771F2230310509F06AC064537042FB0161
:1039C000C081D18120E030E0A901C230D10508F4E6
:1039D00049C010E000E0712C612C812C94E0992EFC
:1039E000A12CB12C0E940E451801FFEF2F1A3F0A9F
:1039F000A50194010E948245641575058605970509
:103A00000CF04EC081010830110561F70E940E458F
:103A10004E01B12CA12C2FEF221A320A910150E055
:103A200040E00E9482459B01AC0144275527C50117
:103A3000BE010E947C47AB01BC0183E0769567958F
:103A4000579547958A95D1F7DE0111974A175B077D
:103A500008F4DA01A70196010E94A145A50194018D
:103A60000E94B445CA01B901DF91CF911F910F9116
:103A7000FF90EF90DF90CF90BF90AF909F908F908E
:103A80007F906F905F904F903F902F9008952130DE
:103A9000310519F46451704292CF645F7F418FCF3A
:103AA0001801B4CF2F923F924F925F926F927F9204
:103AB0008F929F92AF92BF92CF92DF92EF92FF923E
:103AC0000F931F93CF93DF9300D000D0CDB7DEB715
:103AD0006B017C0129833A83413022E0520788F54B
:103AE000519541955109440F551F5C5FB6010E94E5
:103AF000B61C611571058105910509F45FC0E98166
:103B0000FA81608371838283938321E030E02B8389
:103B10003C838B819C812496CDBFDEBFDF91CF910A
:103B20001F910F91FF90EF90DF90CF90BF90AF90DB
:103B30009F908F907F906F905F904F903F902F90CD
:103B4000089552581A01220C331C03E010E01B8226
:103B50001C824101B12CA12C412C44E0542E612C3B
:103B6000712CA101C701B6010E94B61C6115710537
:103B70008105910599F0EB81FC81EE0FFF1FEE0F9F
:103B8000FF1F29813A81E20FF31F608371838283D3
:103B900093838B819C8101968B839C830E940E452D
:103BA000A30192010E948245681579058A059B054B
:103BB0000CF0AFCF01501109A1F6ABCF1B821C82D4
:103BC000A8CF4F925F926F927F928F929F92AF9207
:103BD000BF92CF92DF92EF92FF920E94EB024B01D5
:103BE0005C018091E92B9091EA2B892BE9F080917F
:103BF000E42B9091E52B0197B9F48091E02B909103
:103C0000E12BA091E22BB091E32BB501A401481B5D
:103C1000590B6A0B7B0B81E04031574261057105FE
:103C200008F080E08093102C8091012C9091022C60
:103C3000892B09F45BC08091FF2B9091002C019798
:103C400009F054C08091DE2B9091DF2B089708F487
:103C500083C181E090E00E94610E2091D82B3091C9
:103C6000D92B50E040E00E94B445211531054105B3
:103C7000510509F46EC169017A01F694E794D7946D
:103C8000C79488EEC81683E0D806E104F10430F446
:103C9000A8EECA2EA3E0DA2EE12CF12C8091D42BD1
:103CA0009091D52BA091D62BB091D72B2401350123
:103CB000481A590A6A0A7B0AC301B2010E94B44534
:103CC00021E1C21627E2D206E104F10430F0F0E16E
:103CD000CF2EF7E2DF2EE12CF12C21E06C157D05D3
:103CE0008E059F0508F020E020930D2C8091FB2B82
:103CF0009091FC2B892B09F45BC08091F92B90915A
:103D0000FA2B019709F054C08091CE2B9091CF2BC4
:103D1000089708F457C182E090E00E94610E20915C
:103D2000C82B3091C92B50E040E00E94B4452115CA
:103D300031054105510509F442C169017A01F69442
:103D4000E794D794C79488EEC81683E0D806E104B8
:103D5000F10430F468EEC62E63E0D62EE12CF12C8F
:103D60008091C42B9091C52BA091C62BB091C72BED
:103D700024013501481A590A6A0A7B0AC301B201B3
:103D80000E94B44521E1C21627E2D206E104F10403
:103D900030F050E1C52E57E2D52EE12CF12C21E078
:103DA0006C157D058E059F0508F020E020930B2CF7
:103DB0008091F52B9091F62B892B09F45BC08091B3
:103DC000F32B9091F42B019709F054C08091BE2BF6
:103DD0009091BF2B089708F42BC183E090E00E94DC
:103DE000610E2091B82B3091B92B50E040E00E9439
:103DF000B445211531054105510509F416C1690184
:103E00007A01F694E794D794C79488EEC81683E0B5
:103E1000D806E104F10430F4A8EECA2EA3E0DA2EAD
:103E2000E12CF12C8091B42B9091B52BA091B62B65
:103E3000B091B72B24013501481A590A6A0A7B0A46
:103E4000C301B2010E94B44521E1C21627E2D206A5
:103E5000E104F10430F0F0E1CF2EF7E2DF2EE12CA7
:103E6000F12C21E06C157D058E059F0508F020E002
:103E70002093092C8091EF2B9091F02B892B09F442
:103E80005BC08091ED2B9091EE2B019709F054C00F
:103E90008091AE2B9091AF2B089708F4FFC084E07F
:103EA00090E00E94610E2091A82B3091A92B50E048
:103EB00040E00E94B445211531054105510509F442
:103EC000EAC069017A01F694E794D794C79488EE22
:103ED000C81683E0D806E104F10430F468EEC62E7B
:103EE00063E0D62EE12CF12C8091A42B9091A52B90
:103EF000A091A62BB091A72B24013501481A590A8D
:103F00006A0A7B0AC301B2010E94B44521E1C216CC
:103F100027E2D206E104F10430F050E1C52E57E269
:103F2000D52EE12CF12C21E06C157D058E059F0529
:103F300008F020E02093072CFF90EF90DF90CF90C7
:103F4000BF90AF909F908F907F906F905F904F90B9
:103F5000089510920D2CCACE8091D32B882321F185
:103F6000E090942BF090952B0E940E4520E032E0DB
:103F70002E193F096901CC0CDD1C36FF02C0D12C83
:103F8000C12C0D2C000CEE08FF0828EE33E040E0B9
:103F900050E00E94824521E06C157D058E059F054D
:103FA0000CF020E0209384288091FE2B882321F0C0
:103FB0008091842891E0892780930D2C97CE1092D0
:103FC0000B2CF6CE8091C32B882321F1E090842B1B
:103FD000F090852B0E940E4520E032E02E193F091B
:103FE0006901CC0CDD1C36FF02C0D12CC12C0D2C7C
:103FF000000CEE08FF0828EE33E040E050E00E949D
:10400000824521E06C157D058E059F050CF020E0B2
:10401000209383288091F82B882321F08091832896
:1040200091E0892780930B2CC3CE1092092C22CFCC
:104030008091B32B882321F1E090742BF090752BA5
:104040000E940E4520E032E02E193F096901CC0C98
:10405000DD1C36FF02C0D12CC12C0D2C000CEE084B
:10406000FF0828EE33E040E050E00E94824521E066
:104070006C157D058E059F050CF020E020938228AD
:104080008091F22B882321F08091822891E089276A
:104090008093092CEFCE1092072C4ECF8091A32B4A
:1040A000882321F1E090642BF090652B0E940E454F
:1040B00020E032E02E193F096901CC0CDD1C36FFEF
:1040C00002C0D12CC12C0D2C000CEE08FF0828EEEC
:1040D00033E040E050E00E94824521E06C157D0510
:1040E0008E059F050CF020E0209381288091EC2B19
:1040F000882321F08091812891E089278093072CE3
:104100001BCF8F929F92AF92BF92CF92DF92EF928E
:10411000FF920E94EB026B017C018091E92B909150
:10412000EA2B892BE9F08091E42B9091E52B892BE8
:10413000B9F48091E02B9091E12BA091E22BB0910A
:10414000E32BB701A601481B590B6A0B7B0B81E0DF
:10415000403157426105710508F080E08093102CD2
:104160008091012C9091022C892B21F18091FF2BC1
:104170009091002C892BF1F48091D32B882381F02E
:104180002091942B3091952B20937F283093802879
:104190002091DE2B3091DF2B20937D2830937E28D9
:1041A00020917F28309180282431310508F089C082
:1041B00010920D2C8091FB2B9091FC2B892B21F1DF
:1041C0008091F92B9091FA2B892BF1F48091C32BDC
:1041D000882381F02091842B3091852B20937A289D
:1041E00030937B282091CE2B3091CF2B20937828B1
:1041F0003093792820917A2830917B282431310519
:1042000008F0C1C010920B2C8091F52B9091F62BE9
:10421000892B21F18091F32B9091F42B892BF1F4D0
:104220008091B32B882381F02091742B3091752BD2
:1042300020937528309376282091BE2B3091BF2B88
:104240002093732830937428209175283091762814
:104250002431310508F0F9C01092092C8091EF2B20
:104260009091F02B892B21F18091ED2B9091EE2BE9
:10427000892BF1F48091A32B882381F02091642B6A
:104280003091652B20937028309371282091AE2BAC
:104290003091AF2B20936E2830936F282091702897
:1042A000309171282431310508F031C11092072C6A
:1042B000FF90EF90DF90CF90BF90AF909F908F9046
:1042C000089540917D2850917E284830510508F589
:1042D0008823B9F00E940E4580907F289090802816
:1042E000B12CA12C22EC31E040E050E00E9482454C
:1042F00021E0681579058A059B050CF020E02093E4
:104300007C288091FE2B811180917C2880930D2C3C
:1043100051CFE091FE2B4830510519F4E0930D2C5C
:1043200049CFE111FBCF8091442990914529A0917B
:104330004629B091472946015701881A990AAA0AC5
:10434000BB0A809152299091532901963250829F45
:10435000A001839F500D929F500D1124A52FA6956B
:104360002091122930911329409114295091152937
:10437000B0E00E94A145E1E086169706A806B906BE
:1043800068F2E0E0CBCF409178285091792848300E
:10439000510508F58823B9F00E940E4580907A28CF
:1043A00090907B28B12CA12C22EC31E040E050E031
:1043B0000E94824521E0681579058A059B050CF06D
:1043C00020E0209377288091F82B81118091772825
:1043D00080930B2C19CFE091F82B4830510519F43C
:1043E000E0930B2C11CFE111FBCF809140299091EC
:1043F0004129A0914229B091432946015701881AC9
:10440000990AAA0ABB0A80915029909151290196D4
:104410003250829FA001839F500D929F500D112416
:10442000A52FA69520911229309113294091142986
:1044300050911529B0E00E94A145E1E0861697064B
:10444000A806B90668F2E0E0CBCF409173285091FE
:1044500074284830510508F58823B9F00E940E45AC
:104460008090752890907628B12CA12C22EC31E018
:1044700040E050E00E94824521E0681579058A05F8
:104480009B050CF020E0209372288091F22B811183
:10449000809172288093092CE1CEE091F22B483074
:1044A000510519F4E093092CD9CEE111FBCF80918D
:1044B0003C2990913D29A0913E29B0913F29460188
:1044C0005701881A990AAA0ABB0A80914E2990912D
:1044D0004F2901963250829FA001839F500D929FD9
:1044E000500D1124A52FA695209112293091132942
:1044F0004091142950911529B0E00E94A145E1E0B6
:1045000086169706A806B90668F2E0E0CBCF409180
:104510006E2850916F284830510508F58823B9F06E
:104520000E940E45C0907028D0907128F12CE12C8B
:1045300022EC31E040E050E00E94824521E06C1521
:104540007D058E059F050CF020E020936D2880915D
:10455000EC2B811180916D288093072CA9CEE091DE
:10456000EC2B4830510519F4E093072CA1CEE11152
:10457000FBCF8091382990913929A0913A29B091A7
:104580003B29C81AD90AEA0AFB0A80914C29909162
:104590004D2901963250829FA001839F500D929F1A
:1045A000500D1124A52FA695209112293091132981
:1045B0004091142950911529B0E00E94A145E1E0F5
:1045C000C616D706E806F90678F2E0E0CDCF0C94DF
:1045D0006E454F925F926F927F928F929F92AF92B1
:1045E000BF92CF92DF92EF92FF920F931F93CF93E0
:1045F000DF934091542B5091552B6091C3287091BB
:10460000C428ECE7FFEC30E020E01CEE81919191B2
:10461000F22E032FD90111974A175B0709F053C1F6
:10462000A4E1B0E08A0F9B1FACEEBFEF2417350763
:1046300011F0B0E0A0E02F5F3F4F8A0F9B1F86175D
:10464000970708F043C1C080D180C9010197C4E138
:10465000D0E04817590711F0D0E0C0E01203D001B4
:10466000139FB00D112481E090E0A417B50711F05D
:1046700090E080E08C0D9D1D8C0F9D1F8617970785
:1046800008F424C1F092542B0093552B8091492BB0
:10469000882309F43EC08091532B81113AC0809148
:1046A000482B811136C08091112C811132C0E091CC
:1046B000542BF091552BE050F84D808191E08927E3
:1046C0008083A0E0B8E228E038E2FD0190E080E0DD
:1046D0004191840F911D2E173F07D1F7892B41F48B
:1046E000E0916228F0916328E050F84D81E08083EA
:1046F00027E030E060E08D91022E01C0880F0A941F
:10470000EAF7680F21503109B0F782E090E00E948B
:10471000E722E1E3F8E281E698E2DF011D921C92D4
:10472000119712961D921C92139714961D921C922B
:10473000159716968A179B0789F7C0E0D8E230E0F4
:1047400020E090E080E046E05991552369F0429FD7
:10475000D001439FB00D1124AF5CB74D14968D93DB
:104760009C9315972F5F3F4F01968830910561F715
:104770002093082830930928B90161507109C1E3D9
:10478000D8E250E040E000E014E04217530709F09F
:10479000A2C04090622850906328C091C328D09155
:1047A000C42830E020E07CEE2417350709F46AC005
:1047B00080819181B0E0A0E089010150110964E19C
:1047C000C62ED12CE12CF12C4016510619F0C12C2B
:1047D000D12C76018C0D9D1DAE1DBF1D0CEEC02E83
:1047E000DD24DA94ED2CFD2C4216530619F0C12C71
:1047F000D12C76018C0D9D1DAE1DBF1D14E1C12E67
:10480000D12CE12CF12C4216530619F0C12CD12CDD
:10481000760139011FEF611A710AB7FF03C080E00A
:1048200090E0DC01C817D90708F495C08281938114
:10483000C80ED91EE11CF11C83017003C001719FD9
:10484000900D1124812C912C54018394841595058D
:1048500019F0812C912C5401C80CD91CEA1CFB1CAA
:10486000CC15DD0508F077C086E0829FF001839FBC
:10487000F00D1124EF5CF74D8481958180936228BF
:104880009093632880916228909163282091E72B70
:10489000211108C02091532B211104C08093E42BD7
:1048A0009093E52BDF91CF911F910F91FF90EF90A7
:1048B000DF90CF90BF90AF909F908F907F906F9040
:1048C0005F904F900895B0E0A0E0ACCE2830310565
:1048D00009F09CCEDBCE4115510569F410923128C8
:1048E0001092322846175707F9F40A831B834F5F4B
:1048F0005F4F26964ACFDE0112978D919C91AC8135
:10490000BD818A0F9B1F9F778F30910550F4880FD0
:10491000991FDC01A257B0438D919C9188839983A4
:10492000E1CF90E080E0FACF8A859B85AC81BD81A4
:104930008A0F9B1F9F778F30910550F4880F991F26
:10494000DC01A257B0438D919C918A839B83CFCF8A
:1049500090E080E0FACF3696930126CFCF92DF9297
:10496000EF92FF920E94EB02AB01BC0180913A2BC7
:10497000882309F4A6C18091432B882309F440C001
:104980008091BD289091BE288093562990935729F5
:104990008093642B9093652B8093742B9093752B4D
:1049A0008093842B9093852B8093942B9093952BBD
:1049B00080912029909121298093AE2B9093AF2B49
:1049C0008093BE2B9093BF2B8093CE2B9093CF2BB5
:1049D0008093DE2B9093DF2B8091242990912529C1
:1049E0008093A82B9093A92B8093B82B9093B92BED
:1049F0008093C82B9093C92B8093D82B9093D92B5D
:104A000080912A2990912B298093E92B9093EA2B6E
:104A100080935429909355298091E62B882309F49B
:104A200056C34093E02B5093E12B6093E22B70939D
:104A3000E32B8091442B811149C12091E42B3091CB
:104A4000E52B8091682881117AC01092A1281092DC
:104A5000A2281092A3281092A4281092A5281092A0
:104A6000A6281092A7281092A8288FEF9FEF809376
:104A700085289093862880938C2890938D28809306
:104A800093289093942880939A2890939B2810922F
:104A90008728109288281092892810928A281092CC
:104AA0008E2810928F2810929028109291281092A0
:104AB0009528109296281092972810929828109274
:104AC0009C2810929D2810929E2810929F28109248
:104AD000A12B1092A22B1092B12B1092B22B1092FC
:104AE000C12B1092C22B1092D12B1092D22B10926C
:104AF000562B1092572B1092662B1092672B109208
:104B0000762B1092772B1092862B1092872B809108
:104B1000FE2B811102C010920C2C8091F82B811178
:104B200002C010920A2C8091F22B811102C01092C7
:104B3000082C8091EC2B811102C01092062C232BA3
:104B400009F05CC00E940E45C0905629D0905729AC
:104B5000F12CE12C22EC31E040E050E00E94824553
:104B600021E06C157D058E059F050CF020E020935B
:104B70007C280E940E45C0905629D0905729F12CD0
:104B8000E12C22EC31E040E050E00E94824521E03F
:104B90006C157D058E059F050CF020E0209377288D
:104BA0000E940E45C0905629D0905729F12CE12C37
:104BB00022EC31E040E050E00E94824521E06C159B
:104BC0007D058E059F050CF020E0209372280E9441
:104BD0000E45C0905629D0905729F12CE12C22EC9B
:104BE00031E040E050E00E94824521E06C157D05F7
:104BF0008E059F050CF020E020936D2810928B28E5
:104C000010929228109299281092A0288091E42B5B
:104C10009091E52B83309105E1F42091FE2B222326
:104C200019F021E02093A0282091F82B222319F0DD
:104C300021E0209399282091F22B222319F021E0E2
:104C4000209392282091EC2B222319F021E020932D
:104C50008B288093ED2B9093EE2B8093F32B9093E6
:104C6000F42B8093F92B9093FA2B8093FF2B909346
:104C7000002C8091E92B9091EA2B8093EF2B90935D
:104C8000F02B8093F52B9093F62B8093FB2B909336
:104C9000FC2B8093012C9093022C809154299091AD
:104CA000552980934C2990934D2980934E299093B8
:104CB0004F298093502990935129809352299093A2
:104CC00053298091442B882309F4FCC180913B2B0C
:104CD000882309F47AC00E94E9228093FF2B9093E5
:104CE000002C2091432B2223C1F02091BD2830912C
:104CF000BE282093942B3093952B2091202930911E
:104D000021292093DE2B3093DF2B20912429309111
:104D100025292093D82B3093D92B20912A29309103
:104D20002B292093012C3093022C2093522930936D
:104D30005329892BB9F40E940E45C0905629D09072
:104D40005729F12CE12C22EC31E040E050E00E94A8
:104D5000824521E06C157D058E059F050CF020E055
:104D600020937C288091FF2B9091002C039709F0D1
:104D7000BFC18091FE2B882309F4BAC181E08093E2
:104D8000A02880916728811120C01092A728109236
:104D9000A8288FEF9FEF80939A2890939B281092DA
:104DA0009C2810929D2810929E2810929F28109265
:104DB000D12B1092D22B1092862B1092872B8091A0
:104DC000FE2B811102C010920C2C80913C2B882369
:104DD00009F47AC00E94E9228093F92B9093FA2B70
:104DE0002091432B2223C1F02091BD283091BE2871
:104DF0002093842B3093852B2091202930912129D9
:104E00002093CE2B3093CF2B20912429309125292C
:104E10002093C82B3093C92B20912A2930912B291C
:104E20002093FB2B3093FC2B209350293093512956
:104E3000892BB9F40E940E45C0905629D09057296D
:104E4000F12CE12C22EC31E040E050E00E94824560
:104E500021E06C157D058E059F050CF020E0209368
:104E600077288091F92B9091FA2B039709F043C191
:104E70008091F82B882309F43EC181E08093992822
:104E800080916628811120C01092A5281092A62832
:104E90008FEF9FEF809393289093942810929528FA
:104EA0001092962810929728109298281092C12B51
:104EB0001092C22B1092762B1092772B8091F82BA8
:104EC000811102C010920A2C80913D2B882309F495
:104ED0007AC00E94E9228093F32B9093F42B2091C7
:104EE000432B2223C1F02091BD283091BE2820936E
:104EF000742B3093752B20912029309121292093F8
:104F0000BE2B3093BF2B209124293091252920934B
:104F1000B82B3093B92B20912A2930912B2920933B
:104F2000F52B3093F62B20934E2930934F29892B64
:104F3000B9F40E940E45C0905629D0905729F12C03
:104F4000E12C22EC31E040E050E00E94824521E07B
:104F50006C157D058E059F050CF020E020937228CE
:104F60008091F32B9091F42B039709F0C7C08091A7
:104F7000F22B882309F4C2C081E0809392288091AB
:104F80006528811120C01092A3281092A4288FEFC9
:104F90009FEF80938C2890938D2810928E281092EA
:104FA0008F2810929028109291281092B12B109275
:104FB000B22B1092662B1092672B8091F22B8111ED
:104FC00002C01092082C80913E2B882309F47AC0ED
:104FD0000E94E9228093ED2B9093EE2B2091432B9E
:104FE0002223C1F02091BD283091BE282093642B4C
:104FF0003093652B20912029309121292093AE2BCD
:105000003093AF2B20912429309125292093A82B70
:105010003093A92B20912A2930912B292093EF2B13
:105020003093F02B20934C2930934D29892BB9F4E0
:105030000E940E45C0905629D0905729F12CE12CA2
:1050400022EC31E040E050E00E94824521E06C1506
:105050007D058E059F050CF020E020936D28809142
:10506000ED2B9091EE2B039709F04BC08091EC2B28
:10507000882309F446C081E080938B2880916428BE
:10508000811120C01092A1281092A2288FEF9FEFCB
:1050900080938528909386281092872810928828DC
:1050A0001092892810928A281092A12B1092A22B7C
:1050B0001092562B1092572B8091EC2B811102C02D
:1050C0001092062CFF90EF90DF90CF900895809182
:1050D000162990911729A0911829B0911929809328
:1050E000E02B9093E12BA093E22BB093E32BA1CC88
:1050F0001092A02846CE10929928C2CE10929228E3
:105100003ECF10928B28BACF8091492B882309F487
:1051100055C08091E72B882309F450C08091E92B7A
:105120009091EA2B892B29F08091512B81110E94BB
:10513000F00E809154299091552901978093BB28B6
:105140009093BC281092E92B1092EA2B8091442B6B
:105150008823A1F18091522990915329019780933E
:10516000B9289093BA281092012C1092022C8091A9
:1051700050299091512901978093B7289093B8288E
:105180001092FB2B1092FC2B80914E2990914F296D
:1051900001978093B5289093B6281092F52B109222
:1051A000F62B80914C2990914D2901978093B3283B
:1051B0009093B4281092EF2B1092F02B9091E62B45
:1051C0009923D9F02091E92B3091EA2B232BA9F4D4
:1051D0002091C1283091C2284091B1285091B22825
:1051E0004217530750F42031310538F08091532B8A
:1051F000811103C081E080933A2B8091442B882356
:1052000009F46FC0992309F46CC02091012C3091EE
:10521000022C232BA9F42091C1283091C22840915F
:10522000AF285091B0284217530750F42031310570
:1052300038F09091532B911103C091E090933B2B48
:105240002091FB2B3091FC2B232BA9F42091C1281A
:105250003091C2284091AD285091AE284217530793
:1052600050F42031310538F09091532B911103C047
:1052700091E090933C2B2091F52B3091F62B232B32
:10528000A9F42091C1283091C2284091AB285091B7
:10529000AC284217530750F42031310538F0909173
:1052A000532B911103C091E090933D2B2091EF2B54
:1052B0003091F02B232BA9F42091C1283091C228E2
:1052C0004091A9285091AA284217530750F4203141
:1052D000310538F09091532B911103C091E09093D8
:1052E0003E2B90913A2B992309F46CC09091352B69
:1052F000992309F467C091E09093682881115BC0FD
:105300008091542990915529029708F0AFC080915F
:105310006828882361F09091442B911108C0209156
:105320006228309163282093E42B3093E52B209161
:10533000E92B3091EA2B232BC9F42091012C3091D9
:10534000022C232B99F42091FB2B3091FC2B232B47
:1053500069F42091F52B3091F62B232B39F4209111
:10536000EF2B3091F02B232B09F48CC091E090931C
:10537000E72B811111C08091672881110DC08091A8
:105380006628811109C080916528811105C080912E
:105390006428882309F479C081E080936128809192
:1053A0006128882309F474C08AE090E080930A2879
:1053B00090930B28089580913B2B81110DC0109282
:1053C000672817C0109268288111F5CF8091352B7E
:1053D000882309F49CCF94CF8091362B882379F3CE
:1053E00081E0809367280E94E9228093FF2B9093AD
:1053F000002C80913C2B882381F18091372B8823CE
:1054000061F181E0809366280E94E9228093F92B64
:105410009093FA2B80913D2B882311F18091382BAA
:105420008823F1F081E0809365280E94E92280932F
:10543000F32B9093F42B80913E2B8823A1F0809145
:10544000392B882381F081E0809364280E94E9222F
:105450008093ED2B9093EE2BB9CF10926628DACF84
:1054600010926528E8CF10926428B0CF8091112C5B
:1054700081114DCF8091512B882309F448CF0E9490
:10548000F00E45CF1092E72B74CF1092612887CF92
:10549000089561E590E080E00E94E72260E081E00D
:1054A00090E00E94E7226FEF82E090E00E94E72206
:1054B00060E083E090E00E94E72260E084E090E01A
:1054C0000E94E72264EE85E090E00E94E72260E01F
:1054D00086E090E00E94E72263E387E090E00E948C
:1054E000E72263E388E090E00C94E7220C946645A1
:1054F0004F925F926F927F928F929F92AF92BF92E4
:10550000EF92FF920F931F93CF93DF93CDB7DEB748
:105510002597CDBFDEBF61E070E081E00E941502FB
:1055200070E060E080E10E94150261E070E082E0DE
:105530000E94150261E070E083E00E94150261E0C4
:1055400070E084E00E94150270E060E08FE00E944D
:10555000150270E060E08EE00E94150270E060E0ED
:1055600089E00E94150270E060E08BE00E94150265
:1055700070E060E08AE00E94150261E070E08DE07A
:105580000E94150261E070E087E00E94150261E070
:1055900070E088E00E94150261E070E086E00E9401
:1055A000150261E070E085E00E94150270E060E0A5
:1055B0008CE00E94150270E060E081E10E9415021B
:1055C00062E070E080E00E94150261E070E081E03E
:1055D0000E94150270E060E085E10E94150270E013
:1055E00060E084E10E94150270E060E082E10E94C8
:1055F000150270E060E083E10E9415020E94EB0258
:10560000009178CF109179CF20917ACF30917BCFD4
:1056100009831A832B833C8310E09E012F5F3F4F49
:1056200079012B013C01440C551C661C771CE12FB1
:10563000E370EE0DFF2DF11D80810E94C902817083
:105640009927092E000CAA0BBB0B4C015D01842885
:105650009528A628B7280E94EB022B013C01C50122
:10566000B40164257525862597251F5F1031C9F67D
:1056700084149504A604B70411F00E945D45559961
:10568000F4C064E170E080E090E00E946E03559900
:10569000ECC00E94492A01E090E080E00E94681876
:1056A00090E080E00E94762A813509F01FC181E0F8
:1056B00090E00E94762A182F82E090E00E94762ADD
:1056C000B82E83E090E00E94762A90E080939E2B93
:1056D00090939F2B84E090E00E94762A90E0809344
:1056E000452B9093462BE0E0F8E227E030E08B2D4D
:1056F00090E0AC01022E02C0559547950A94E2F75E
:105700004170419321503109A0F7812F817080931E
:10571000472B11FB882780F98093442B12FB8827A5
:1057200080F98093CF2813FB882780F980933F2B43
:1057300014FB882780F98093432B15FB882780F979
:105740008093052C1295169516951370812F90E075
:105750008093032C9093042C85E090E00E94762A9D
:1057600095E0F70111929A95E9F7AAE1B8E230E0E5
:1057700020E041E090E051E0FC01022E02C0F595EE
:10578000E7950A94E2F7E370FF273196ED93FD93D6
:10579000EE0DFF1D608161116AC050832E5F3F4F87
:1057A0002830310549F7411118C081E090E080931D
:1057B0001A2890931B2882E090E080931C289093F5
:1057C0001D2883E090E080931E2890931F2884E09A
:1057D00090E0809320289093212886E090E00E941A
:1057E000762A982F907F09F444C01092412B109292
:1057F000422B81E090E0809318289093192888E04C
:1058000090E00E94762A182F87E090E00E94762A86
:10581000912F982B987809F441C083E090E0809311
:105820001628909317288093142890931528809316
:105830001228909313288093102890931128002306
:1058400009F45CC010E000E0559953C0C8010E9403
:1058500068184C9A0F5F1F4F0770112768E270E0BD
:1058600080E090E00E946E03EFCF00E015CF40E0B3
:1058700095CF282F2370223060F430E02093412B05
:105880003093422B90E09595879595958795019655
:10589000B2CF1092412B1092422BF4CF282F2770B9
:1058A00030E0209310283093112890E024E0959563
:1058B00087952A95E1F7877099278093122890930E
:1058C0001328812F877090E08093142890931528D7
:1058D000812F90E034E0959587953A95E1F78770B0
:1058E00099278093162890931728A9CF0E94492AB8
:1058F000A6CF4C9890E080E00E9468186FEB73E1AF
:105900008EE00E947B0061EB73E189E00E947B00E6
:1059100063EA73E18BE00E947B0065E973E18AE052
:105920000E947B000E949E034B015C010BEB12E185
:105930000E949E03681979098A099B09683E734091
:105940008105910578F490E080E00E946818C80114
:105950000197F1F787E090E00E946818C80101976D
:10596000F1F7E6CF2EE838E141E050E060E070E08A
:1059700081E99DE22596CDBFDEBFDF91CF911F91DA
:105980000F91FF90EF90BF90AF909F908F907F907E
:105990006F905F904F900C941A031F920F920FB666
:1059A0000F9211242F933F934F935F936F937F93A5
:1059B0008F939F93AF93BF934091182C5091192CC4
:1059C00060911A2C70911B2C8091162C9091172CA1
:1059D0002091142C3091152C420F531F611D711D05
:1059E0002091122C3091132C820F931F883E23E0BC
:1059F000920730F0885E93404F5F5F4F6F4F7F4F4D
:105A00008093162C9093172C4093182C5093192C9C
:105A100060931A2C70931B2C8091202C9091212C38
:105A2000A091222CB091232C0196A11DB11D809331
:105A3000202C9093212CA093222CB093232C81E036
:105A40008093B60ABF91AF919F918F917F916F9193
:105A50005F914F913F912F910F900FBE0F901F902C
:105A600018951F920F920FB60F9211242F933F9308
:105A70004F935F936F937F938F939F93AF93BF9356
:105A8000EF93FF9385E00E94D703FF91EF91BF91C1
:105A9000AF919F918F917F916F915F914F913F91C6
:105AA0002F910F900FBE0F901F9018951F920F927D
:105AB0000FB60F9211242F933F934F935F936F93E1
:105AC0007F938F939F93AF93BF93EF93FF9384E064
:105AD0000E94D703FF91EF91BF91AF919F918F915A
