:100000000C9451000C9479000C9479000C947900B4
:100010000C9479000C9479000C949F2E0C94790028
:100020000C9479000C9479000C9479000C9479006C
:100030000C9479000C9479000C9479000C9479005C
:100040000C9479000C9479000C9479000C9479004C
:100050000C94302E0C9479000C9479000C94790057
:100060000C94552E0C9479000C9479000C94790022
:100070000C9479000C94E62D0C9479000C94790082
:100080000C9479000C9479000C947A2E0C940B2E1D
:100090000C94822D0C94EA2E0C94C42E0C947900AE
:1000A000332F11241FBECFEFCDBFDFE3DEBF18E239
:1000B000A0E0B8E2E7E6F2EA02C005900D92A632AF
:1000C000B107D9F72DE2A6E2B8E201C01D92AD3D1D
:1000D000B207E1F710E0C1E5D0E004C02197FE01CE
:1000E0000E946B48C035D107C9F70E94702F0C944D
:1000F00071480C94000090E0FC01E05DFD41E0815E
:10010000EF3F39F18A5E9D41DC012C91822F880FEF
:10011000880F880F8E0F8033E0F490E0880F991FCE
:10012000DC01A254B34D6D937C93825A934DDC0154
:100130001D921C92B0E22B9FC00111249C5F40963F
:10014000E80FF92FF11D8081887F80838081826094
:1001500080830895FC0154894589252F30E0842F40
:1001600090E0821B930B541710F0CF9608950197DF
:100170000895FC0192898389981761F0A389AE0FD5
:10018000BF2FB11D59968C9193899F5F9F73938B5D
:1001900090E008958FEF9FEF0895FC019289838985
:1001A000981731F08389E80FF11D818D90E0089553
:1001B0008FEF9FEF0895FC0192892389892F90E0AA
:1001C000805C9F4F821B91098F7399270895CF936D
:1001D000DF93EC01E881F9810680F781E02D099534
:1001E000EC85FD8586818F738683EC85FD85858111
:1001F0008F7585838B898A8B198ADF91CF910895BA
:10020000CF93DF93FC0194898589C485D5859813A4
:1002100006C08D818F7D8D83DF91CF910895A58953
:10022000AE0FBF2FB11DA75ABF4F2C91858990E00B
:1002300001968F739927858B80E48C83A485B5857F
:1002400012962C93948985899813E6CFA485B58559
:1002500015968C9115978F7D15968C938789882399
:10026000D9F2808D80931301178AD6CFDC011C96BA
:10027000ED91FC910FB607FE03C0258125FD04C05A
:10028000248125FD0C9400010895EF92FF920F93B5
:100290001F93CF93DF93EC0181E0898B9C898D893B
:1002A00098131CC0AC85BD8514968C91149785FF5E
:1002B00015C012966C93AC85BD8580E414968C9322
:1002C000EC85FD8585818F7D858381E090E0DF91E0
:1002D000CF911F910F91FF90EF90089580911101A0
:1002E00080FF08C080911301888F8E89809313014D
:1002F00081E08F8BF62E0C8910E00F5F1F4F0F737C
:100300001127E02E8D898E1104C0CE010E94360186
:10031000F9CFEC89EC0FFD2FF11DE75AFF4FF0826A
:100320000C8BEC85FD8585818062CECFCF93DF93EA
:10033000FC0121892223C9F0EC018091110180FF89
:1003400008C080911301808F86898093130181E01A
:10035000878BEC85FD85858185FD03C0848186FDC5
:1003600004C0CE010E943601F4CFDF91CF910895F1
:10037000282F30E0F901E450FE4140814F3F09F45D
:100380004EC08B3258F4F901EE51FE41E081EE236C
:1003900029F0E13099F010F0E63010F1F901EA5E51
:1003A000FD41E081A0E2EA9FF0011124FC5F808121
:1003B000842311F1672BF1F446830895E091010A3B
:1003C000D901A05DBD415C915C5F81E090E001C01E
:1003D000880F5A95EAF780958E238093010ADECF25
:1003E00080E1E89FF0011124E05AF54F81818F7E72
:1003F0008183D4CF45830895205D3D41D9018C91FF
:10040000309771F08F3F61F07096E80FF11D9FB744
:10041000F8948081672B39F4877F80839FBF08958C
:10042000F0E0E0E0F4CF8860F8CFCF93DF9390E086
:10043000FC01E450FE4120812F3F71F0FC01EA5E97
:10044000FD41A08130E2A39FD0011124BC5F613047
:10045000710529F411962C93DF91CF910895805D59
:100460009D41EC01E881EF3F89F0CD014096E80F16
:10047000F92FF11D9FB7F89412962C93808162306A
:10048000710539F4886080839FBFE6CFF0E0E0E03B
:10049000F1CF877FF8CFCF92DF92EF92FF920F9349
:1004A0001F93CF93DF93EC016A017B01022F8989AF
:1004B000882339F0E881F9810288F389E02DCE01A3
:1004C000099598898091E205892B8093E2051FB7F1
:1004D000F89460E070E281EA97E0A70196010E943B
:1004E0006B4669017A018FEFC81AD80AE80AF80A40
:1004F000F694E794D794C794EC85FD8586818D7F2B
:100500008683EC85FD8586818683198AA0912311D7
:100510000A2E000CBB0BA70196010E94634620E047
:1005200034E040E050E00E943946EC85FD85C20E83
:10053000D31EE41EF51EC086D186EC85FD8507839B
:10054000EC85FD858681806C8683EC85FD858581C3
:10055000806885838E858B3220F462E070E00E9493
:1005600015028F858B3220F461E070E00E94B801A3
:100570008F858B3220F461E070E00E9415021FBF6E
:10058000DF91CF911F910F91FF90EF90DF90CF906F
:100590000895E82FF0E0E652FE418E30B8F48081F5
:1005A0008F30B0F48093060681E080930806809136
:1005B0000B0680FFFCCF2FB7F89490911006809126
:1005C00011062FBF89279827892708953E97E7CFDF
:1005D0008FEF90E00895CF93DF938FB7F894209139
:1005E000522C3091532C4091542C5091552CE09129
:1005F000BA0A9091B60A90FF06C02F5F3F4F4F4F47
:100600005F4FE091BA0A8FBFA0915C2CB0915D2C36
:10061000C0915A2CD0915B2C0E945846EC9F9001BF
:10062000ED9F300D1124620F731F811D911DDF910D
:10063000CF9108958F929F92AF92BF92EF92FF92C7
:100640001F93CF93DF93EC014A015B01790111E025
:1006500081149104A104B10409F410E00E94EB029A
:10066000FE013296AE014E5E5F4FE417F50798F536
:1006700020813181232B11F07096F7CF309759F1FB
:10068000288139812F5F3F4F19F1288339834881B1
:10069000598146875787E082F182128213826483F0
:1006A00075838683978380869186A286B386212F61
:1006B00030E024873587CF0184279527DF91CF91BC
:1006C0001F91FF90EF90BF90AF909F908F900895F3
:1006D00021E030E0DACF90E080E0F0CF8F929F927F
:1006E000AF92BF92CF92DF92EF92FF924B015C01EB
:1006F0000E94EB026B017C01A8EEB3E0A50194011E
:100700000E945846C60ED71EE81EF91EC616D7060A
:10071000E806F90618F40E94EB02F8CF0E94EB02FB
:100720006C157D058E059F05C8F3FF90EF90DF9057
:10073000CF90BF90AF909F908F9008952FB7F8946F
:1007400060914E2C70914F2C8091502C9091512C97
:100750002FBF0895AF92BF92CF92DF92EF92FF9298
:100760000F931F93CF93DF936C017B018B01040FD9
:10077000151FEB015E01AE18BF08C017D10759F075
:100780006991D601ED91FC910190F081E02DC601B7
:100790000995892B79F7C501DF91CF911F910F91B1
:1007A000FF90EF90DF90CF90BF90AF900895EF92C1
:1007B000FF920F931F93CF93DF93C82FD0E0A096A3
:1007C00095E0CC0FDD1F9A95E1F7E984F82EFF0C38
:1007D000FF0CFF0C01E010E08E2D8023A9F02F2DDF
:1007E000210F30E0220F331FF901E254F34D8081D5
:1007F0009181892B49F00190F081E02D225A334DEF
:10080000D9018D919C9109951F5F000F183021F738
:10081000E986DF91CF911F910F91FF90EF9008959E
:1008200081E008954F925F926F927F928F929F9294
:10083000AF92BF92CF92DF92EF92FF920F931F93EE
:10084000CF93DF938C010E94EB026B017C01E801E6
:10085000229688248A94982C54010E5E1F4FC0174C
:10086000D10748F588819981892B01F10E94EB021B
:100870004C805D806E807F80AB01BC0144195509BE
:100880006609770988859985AA85BB854817590720
:100890006A077B0768F4841B950BA60BB70B8815BA
:1008A0009905AA05BB0510F44C015D016096D7CFF0
:1008B000812C912C54010E94EB02DC01CB018C199C
:1008C0009D09AE09BF0988159905AA05BB05F8F46D
:1008D0002FEF82169206A206B206C9F0A501940176
:1008E000281B390B4A0B5B0BCA01B901DF91CF9171
:1008F0001F910F91FF90EF90DF90CF90BF90AF903E
:100900009F908F907F906F905F904F90089560E0E0
:1009100070E0CB01EBCFAF92BF92CF92DF92EF921C
:10092000FF920F931F93CF93DF93EC0122968C01DC
:100930000E5E1F4FAA24A394B12CC017D10708F054
:1009400041C088819981892B51F10E94EB026B0192
:100950007C018C819D81AE81BF81A7019601281BFE
:10096000390B4A0B5B0BDA01C901488559856A8549
:100970007B8584179507A607B70788F0E881F9817A
:100980008A819B810995882361F08C859D85892BBF
:1009900041F0AC86BD86CC82DD82EE82FF8260961D
:1009A000CCCF188219821A821B821C821D821E8261
:1009B0001F82188619861A861B861C861D861E862F
:1009C0001F86EDCFDF91CF911F910F91FF90EF9098
:1009D000DF90CF90BF90AF900895CF92DF92EF92CB
:1009E000FF926B017C01FA0150E040E0421753078F
:1009F000A9F081919191A191B1918C159D05AE05C0
:100A0000BF0548F4805F984DAF4FBF4FC816D90659
:100A1000EA06FB0648F04F5F5F4FE8CF80E0FF90AB
:100A2000EF90DF90CF90089581E0F9CF4F925F92E1
:100A30006F927F928F929F92AF92BF92CF92DF92EE
:100A4000EF92FF920F931F93CF93DF930E94EB02DD
:100A50004B015C012091EA2B3091EB2BE090DA2BDB
:100A6000F090DB2B0091CA2B1091CB2BC091BA2BAD
:100A7000D091BB2B80914D2B90914E2B5AE3C52EDC
:100A800051EDD52E892B21F44AE3C42E49EDD42E05
:100A90008091092C90910A2C892BE9F08091F82BF8
:100AA0009091F92B0697B9F48091EC2B9091ED2B56
:100AB000A091EE2BB091EF2BB501A401481B590B6F
:100AC0006A0B7B0B81E0403157426105710508F0EC
:100AD00080E080934A2C80910429882391F18091B1
:100AE000A7289091A8280196E0E1F0E0BF010E94BC
:100AF00057488093A7289093A8288091A528909183
:100B0000A6280196BF010E9457488093A52890937C
:100B1000A6288091A3289091A4280196BF010E9445
:100B200057488093A3289093A4288091A12890915E
:100B3000A2280196BF010E9457488093A128909354
:100B4000A2288091DF2B882321F01092A7281092F1
:100B5000A8288091CF2B882321F01092A5281092ED
:100B6000A6288091BF2B882321F01092A3281092F1
:100B7000A4288091AF2B882321F01092A1281092F5
:100B8000A2288091062C9091072C892B09F446C04D
:100B90008091F62B9091F72B069709F03FC0369580
:100BA000322F2227379527952C0D3D1DE091F228F5
:100BB000F091F328EE0FFF1FE20FF31F81E0408159
:100BC0005181452B09F480E08093B4288091A728B7
:100BD0009091A828880F991F280F391FF9012081AB
:100BE0003181223031050CF016C1232BA1F0809108
:100BF000FB289091FC28A091FD28B091FE28B5011A
:100C0000A401481B590B6A0B7B0B81E04838534108
:100C10006105710508F080E08093472C8091032CDA
:100C20009091042C892B09F448C08091F42B909169
:100C3000F52B069709F041C0F694FE2CEE24F794AC
:100C4000E794EC0CFD1CE091F228F091F3287096EB
:100C5000EE0FFF1FEE0DFF1D81E020813181232B60
:100C600009F480E08093B1288091A5289091A6286E
:100C70004096880F991FE80EF91EF70120813181F7
:100C8000223031050CF0F1C0232BA1F08091FB281C
:100C90009091FC28A091FD28B091FE28B501A401F7
:100CA000481B590B6A0B7B0B81E0483853416105A7
:100CB000710508F080E08093452C8091002C909184
:100CC000012C892B09F448C08091F22B9091F32BD1
:100CD000069709F041C01695102F00271795079524
:100CE0000C0D1D1DE091F228F091F328B096EE0F47
:100CF000FF1FE00FF11F81E020813181232B09F4D8
:100D000080E08093AE288091A3289091A4288096BB
:100D1000880F991F080F191FF80120813181223097
:100D200031050CF0CCC0232BA1F08091FB289091D1
:100D3000FC28A091FD28B091FE28B501A401481B14
:100D4000590B6A0B7B0B81E04838534161057105F3
:100D500008F080E08093432C8091FD2B9091FE2B36
:100D6000892B09F447C08091F02B9091F12B0697C5
:100D700009F040C0D695DC2FCC27D795C795CC0E6F
:100D8000DD1EE091F228F091F328F096EE0FFF1FA0
:100D9000EC0DFD1D81E020813181232B09F480E0E1
:100DA0008093AB28C091A128D091A228E096CC0FC7
:100DB000DD1FCC0DDD1D28813981223031050CF07D
:100DC000A8C0232BA1F08091FB289091FC28A09132
:100DD000FD28B091FE28881A990AAA0ABB0A81E068
:100DE00098E8891693E19906A104B10408F080E01F
:100DF0008093412CDF91CF911F910F91FF90EF9045
:100E0000DF90CF90BF90AF909F908F907F906F902A
:100E10005F904F9008958091222990912329A0916D
:100E20002429B091252924013501481A590A6A0A52
:100E30007B0A032E000C440B550B60911E29709108
:100E40001F2980912029909121290E946B46C3017E
:100E5000B2010E946B4621E068387341810591051B
:100E600008F020E02093472CD9CE80912229909140
:100E70002329A0912429B091252924013501481A5C
:100E8000590A6A0A7B0A032E000C440B550B609129
:100E90001E2970911F2980912029909121290E945B
:100EA0006B46C301B2010E946B4621E06838734172
:100EB0008105910508F020E02093452CFECE80911D
:100EC000222990912329A0912429B0912529240138
:100ED0003501481A590A6A0A7B0A032E000C440B92
:100EE000550B60911E2970911F29809120299091A6
:100EF00021290E946B46C301B2010E946B4621E08A
:100F0000683873418105910508F020E02093432C57
:100F100023CF8091222990912329A0912429B09157
:100F20002529881A990AAA0ABB0A032E000C440B29
:100F3000550B60911E2970911F2980912029909155
:100F400021290E946B46C501B4010E946B4621E035
:100F5000683873418105910508F020E02093412C09
:100F600049CF8F929F92AF92BF92CF92DF92EF9232
:100F7000FF92CF93DF938091092C90910A2C892BBB
:100F8000E9F08091F82B9091F92B0397B9F40E9426
:100F9000EB02C090EC2BD090ED2BE090EE2BF0907C
:100FA000EF2B6C197D098E099F0921E06031774292
:100FB0008105910508F020E020934A2C8091062CB1
:100FC0009091072C892B09F4D1C08091F62B909138
:100FD000F72B039709F0CAC08091DF2B2091EA2BF1
:100FE0003091EB2B2930310508F453C3811104C033
:100FF0008091A028882371F110929C2810929D283E
:1010000010929E2810929F2840910C2850910D28F4
:101010008091A02B9091A12B969587952AE032E0A4
:10102000281B390B440F551FFA01E65DFE42A081D3
:10103000B1810E948D46465E5E42FA012081318177
:1010400050E040E00E946B4620939A2830939B2802
:101050001092A02880909C2890909D28A0909E2877
:10106000B0909F28C0919A28D0919B286E01F12CB6
:10107000E12CFAE08F169104A104B104F0F4409140
:101080000C2850910D28440F551FFA01E65DFE42D1
:1010900020813181A8EEB3E00E948D46465E5E421B
:1010A000FA012081318150E040E00E946B4681E0EE
:1010B000C216D306E406F50608F080E08093472CBC
:1010C000C814D904EA04FB04F0F510929C2810928D
:1010D0009D2810929E2810929F2840910C28509194
:1010E0000D282091A02B3091A12B81E094E0821B50
:1010F000930B60915E2970915F29869F9001879F75
:10110000300D969F300D112463E0369527956A9532
:10111000E1F72F5F3F4F440F551FFA01E65DFE4296
:10112000A081B1810E948D46465E5E42FA01208117
:10113000318150E040E00E946B462C0F3D1F209310
:101140009A2830939B2880919C2890919D28A0916B
:101150009E28B0919F280196A11DB11D80939C28C7
:1011600090939D28A0939E28B0939F288091032C54
:101170009091042C892B09F4D1C08091F42B90918B
:10118000F52B039709F0CAC08091CF2B2091DA2B61
:101190003091DB2B2930310508F403C3811104C0E1
:1011A00080919928882371F11092952810929628A1
:1011B000109297281092982840910E2850910F284D
:1011C0008091902B9091912B969587952AE032E013
:1011D000281B390B440F551FFA01E65DFE42A08122
:1011E000B1810E948D46465E5E42FA0120813181C6
:1011F00050E040E00E946B4620939328309394285F
:10120000109299288090952890909628A0909728E1
:10121000B0909828C0919328D09194286E01F12C19
:10122000E12CFAE08F169104A104B104F0F440918E
:101230000E2850910F28440F551FFA01E65DFE421B
:1012400020813181A8EEB3E00E948D46465E5E4269
:10125000FA012081318150E040E00E946B4681E03C
:10126000C216D306E406F50608F080E08093452C0C
:10127000C814D904EA04FB04F0F5109295281092E2
:101280009628109297281092982840910E285091F5
:101290000F282091902B3091912B81E094E0821BBC
:1012A000930B60915C2970915D29869F9001879FC7
:1012B000300D969F300D1124F3E036952795FA9561
:1012C000E1F72F5F3F4F440F551FFA01E65DFE42E5
:1012D000A081B1810E948D46465E5E42FA01208166
:1012E000318150E040E00E946B462C0F3D1F20935F
:1012F0009328309394288091952890919628A091D6
:101300009728B09198280196A11DB11D809395282A
:1013100090939628A0939728B09398288091002CBA
:101320009091012C892B09F4D1C08091F22B9091DE
:10133000F32B039709F0CAC08091BF2B2091CA2BD1
:101340003091CB2B2930310508F4B3C2811104C090
:1013500080919228882371F110928E2810928F2804
:1013600010929028109291284091102850911128A5
:101370008091802B9091812B969587952AE032E081
:10138000281B390B440F551FFA01E65DFE42A08170
:10139000B1810E948D46465E5E42FA012081318114
:1013A00050E040E00E946B4620938C2830938D28BB
:1013B0001092922880908E2890908F28A09090284C
:1013C000B0909128C0918C28D0918D286E01F12C7D
:1013D000E12CFAE08F169104A104B104F0F44091DD
:1013E000102850911128440F551FFA01E65DFE4266
:1013F00020813181A8EEB3E00E948D46465E5E42B8
:10140000FA012081318150E040E00E946B4681E08A
:10141000C216D306E406F50608F080E08093432C5C
:10142000C814D904EA04FB04F0F510928E28109237
:101430008F28109290281092912840911028509156
:1014400011282091802B3091812B81E094E0821B28
:10145000930B60915A2970915B29869F9001879F19
:10146000300D969F300D112483E0369527958A958F
:10147000E1F72F5F3F4F440F551FFA01E65DFE4233
:10148000A081B1810E948D46465E5E42FA012081B4
:10149000318150E040E00E946B462C0F3D1F2093AD
:1014A0008C2830938D2880918E2890918F28A09140
:1014B0009028B09191280196A11DB11D80938E288E
:1014C00090938F28A0939028B09391288091FD2B22
:1014D0009091FE2B892B09F4D1C08091F02B909133
:1014E000F12B039709F0CAC08091AF2B2091BA2B42
:1014F0003091BB2B2930310508F463C2811104C03F
:1015000080918B28882371F1109287281092882867
:101510001092892810928A284091122850911328FD
:101520008091702B9091712B969587952AE032E0EF
:10153000281B390B440F551FFA01E65DFE42A081BE
:10154000B1810E948D46465E5E42FA012081318162
:1015500050E040E00E946B46209385283093862817
:1015600010928B288090872890908828A0908928B6
:10157000B0908A28C0918528D09186286E01F12CE0
:10158000E12CFAE08F169104A104B104F0F440912B
:10159000122850911328440F551FFA01E65DFE42B0
:1015A00020813181A8EEB3E00E948D46465E5E4206
:1015B000FA012081318150E040E00E946B4681E0D9
:1015C000C216D306E406F50608F080E08093412CAD
:1015D000C814D904EA04FB04F0F51092872810928D
:1015E00088281092892810928A28409112285091B8
:1015F00013282091702B3091712B81E094E0821B95
:10160000930B6091582970915929869F9001879F6B
:10161000300D969F300D112463E0369527956A951D
:10162000E1F72F5F3F4F440F551FFA01E65DFE4281
:10163000A081B1810E948D46465E5E42FA01208102
:10164000318150E040E00E946B462C0F3D1F2093FB
:101650008528309386288091872890918828A091AA
:101660008928B0918A280196A11DB11D80938728F1
:1016700090938828A0938928B0938A28DF91CF91EE
:10168000FF90EF90DF90CF90BF90AF909F908F90A2
:101690000895811104C08091A028882361F11092DF
:1016A0009C2810929D2810929E2810929F2840916D
:1016B0000C2850910D282091A02B3091A12B36950C
:1016C00027952C593F4F440F551FFA01E65DFE4206
:1016D000A081B1810E948D46465E5E42FA01208162
:1016E000318150E040E00E946B4620939A2830936D
:1016F0009B281092A02840919C2850919D28609191
:101700009E2870919F28C0909A28D0909B284A309C
:1017100051056105710528F481E0FBE0CF16D10485
:1017200008F480E08093472CF12CE12CC416D506F8
:10173000E606F70608F007CD10929C2810929D2827
:1017400010929E2810929F2860915E2970915F29C7
:1017500090E080E00E94384720E030E040E05EE327
:101760000E94C6472DEC3CEC4CEC5EE30E94C64761
:1017700020E030E040E05FE30E949D464B015C01C9
:10178000C701B6010E9438479B01AC01C501B401F5
:101790000E94C6470E94094760939A2870939B282D
:1017A000D2CC811104C080919928882361F11092D4
:1017B0009528109296281092972810929828409178
:1017C0000E2850910F282091902B3091912B369517
:1017D00027952C593F4F440F551FFA01E65DFE42F5
:1017E000A081B1810E948D46465E5E42FA01208151
:1017F000318150E040E00E946B4620939328309363
:10180000942810929928409195285091962860919B
:10181000972870919828C0909328D09094284A30A7
:1018200051056105710528F481E0FBE0CF16D10474
:1018300008F480E08093452CF12CE12CC416D506E9
:10184000E606F70608F057CD1092952810929628D4
:10185000109297281092982860915C2970915D29C8
:1018600090E080E00E94384720E030E040E05EE316
:101870000E94C6472DEC3CEC4CEC5EE30E94C64750
:1018800020E030E040E05FE30E949D464B015C01B8
:10189000C701B6010E9438479B01AC01C501B401E4
:1018A0000E94C6470E94094760939328709394282A
:1018B00022CD811104C080919228882361F1109279
:1018C0008E2810928F281092902810929128409183
:1018D0001028509111282091802B3091812B369522
:1018E00027952C593F4F440F551FFA01E65DFE42E4
:1018F000A081B1810E948D46465E5E42FA01208140
:10190000318150E040E00E946B4620938C28309358
:101910008D281092922840918E2850918F286091A6
:10192000902870919128C0908C28D0908D284A30B2
:1019300051056105710528F481E0FBE0CF16D10463
:1019400008F480E08093432CF12CE12CC416D506DA
:10195000E606F70608F0A7CD10928E2810928F2881
:10196000109290281092912860915A2970915B29C9
:1019700090E080E00E94384720E030E040E05EE305
:101980000E94C6472DEC3CEC4CEC5EE30E94C6473F
:1019900020E030E040E05FE30E949D464B015C01A7
:1019A000C701B6010E9438479B01AC01C501B401D3
:1019B0000E94C6470E94094760938C2870938D2827
:1019C00072CD811104C080918B28882361F110921F
:1019D0008728109288281092892810928A2840918E
:1019E0001228509113282091702B3091712B36952D
:1019F00027952C593F4F440F551FFA01E65DFE42D3
:101A0000A081B1810E948D46465E5E42FA0120812E
:101A1000318150E040E00E946B462093852830934E
:101A2000862810928B2840918728509188286091B1
:101A3000892870918A28C0908528D09086284A30BD
:101A400051056105710528F481E0FBE0CF16D10452
:101A500008F480E08093412CF12CE12CC416D506CB
:101A6000E606F70608F0F7CD10928728109288282E
:101A70001092892810928A286091582970915929CA
:101A800090E080E00E94384720E030E040E05EE3F4
:101A90000E94C6472DEC3CEC4CEC5EE30E94C6472E
:101AA00020E030E040E05FE30E949D464B015C0196
:101AB000C701B6010E9438479B01AC01C501B401C2
:101AC0000E94C6470E940947609385287093862824
:101AD000C2CD880F991FFC01E65FF74D0190F081A0
:101AE000E02DEE0FFF1FDF01A65DBE420D90BC9101
:101AF000A02D20911E2930911F294091202950911D
:101B000021290E945846E65EFE422081318150E044
:101B100040E00E946B46CA01B90108950F931F93DC
:101B2000CF93DF932091532B2223C9F1EC0161E085
:101B300070E08DE00E94B80161E070E08DE00E94ED
:101B4000B80161E070E08DE00E94B80110E000E0B3
:101B5000C017D10769F070E060E08DE00E94B80125
:101B600061E070E08DE00E94B8010F5F1F4FF0CF81
:101B700061E070E08DE00E94B80161E070E08DE00E
:101B80000E94B80161E070E08DE00E94B80181E040
:101B90008093482CDF91CF911F910F91089501966A
:101BA000880F991F2091492C222359F02091D12888
:101BB0003091D228820F931F8093D1289093D228FE
:101BC000E9CF1092482C8093D1289093D22881E0BD
:101BD0008093492C2AEA37E140E659E060E070E062
:101BE00089EB9DE2DF91CF911F910F910C941A0325
:101BF0008091602990916129009779F02091092CBA
:101C000030910A2C2115310531F0821B930B00977E
:101C100021F00C948E0D0197FACF089520910B2C92
:101C200030910C2C2115310569F08D7F853091059F
:101C300059F42D7F91E080E02130310509F090E0EA
:101C4000292F382FC9010895049731F42130310527
:101C5000C9F322E030E0F6CF30E020E0F3CFCF93BD
:101C6000DF938091062C9091072C892B99F0C091DD
:101C7000F62BD091F72BCE010E940E0E81309105EC
:101C800009F056C08091472C811102C08091052C2B
:101C90008093472C8091032C9091042C892B99F0F0
:101CA000C091F42BD091F52BCE010E940E0E813005
:101CB000910509F060C08091452C811102C080918E
:101CC000022C8093452C8091002C9091012C892B23
:101CD00099F0C091F22BD091F32BCE010E940E0E01
:101CE0008130910509F06AC08091432C811102C0B6
:101CF0008091FF2B8093432C8091FD2B9091FE2BA4
:101D0000892B99F0C091F02BD091F12BCE010E943C
:101D10000E0E8130910509F074C08091412C811123
:101D200002C08091FC2B8093412CDF91CF910895CC
:101D3000029709F0AFCF9091DF2B8091052C269769
:101D400061F4992321F09091B4289093B3288823CB
:101D500009F49ECF8091B3289BCF992331F09091C5
:101D6000472C21E092279093B228882309F490CF42
:101D70008091B2288DCF029709F0A5CF9091CF2BFB
:101D80008091022C269761F4992321F09091B1283B
:101D90009093B028882309F494CF8091B02891CFF4
:101DA000992331F09091452C21E092279093AF2810
:101DB000882309F486CF8091AF2883CF029709F05A
:101DC0009BCF9091BF2B8091FF2B269761F4992395
:101DD00021F09091AE289093AD28882309F48ACF02
:101DE0008091AD2887CF992331F09091432C21E049
:101DF00092279093AC28882309F47CCF8091AC285B
:101E000079CF029709F091CF9091AF2B8091FC2B65
:101E1000269761F4992321F09091AB289093AA28FA
:101E2000882309F480CF8091AA287DCF992331F0AF
:101E30009091412C21E092279093A928882309F4BE
:101E400072CF8091A9286FCF80911329882309F43C
:101E5000DFC080913E2990913F2920913A2930910D
:101E60003B29820F931F877099279C01B3E0220FB3
:101E7000331FBA95E1F7F901EC59F64D648175818C
:101E80004091502B411107C16115710509F4FEC045
:101E90008091CD289091CE2820911129309112293E
:101EA0002817390708F0F2C0409708F4EFC0809176
:101EB0005F2B8111EBC0808191818093F82B9093EF
:101EC000F92B828193818093622990936329609397
:101ED000092C70930A2C2681378120936029309336
:101EE0006129A6E096958795AA95E1F7803191053D
:101EF00008F0B1C080932C2990932D292091AA2B12
:101F00003091AB2B80912C2990912D2921303105D6
:101F100009F4B0C008F4A2C02230310509F4B0C001
:101F20008091F82B9091F92B8093F02B9093F12BCB
:101F30008093F22B9093F32B8093F42B9093F52BBB
:101F40008093F62B9093F72B8091622990916329CF
:101F50008093702B9093712B8093802B9093812B87
:101F60008093902B9093912B8093A02B9093A12BF7
:101F70008091092C90910A2C8093FD2B9093FE2B3D
:101F80008093002C9093012C8093032C9093042C2D
:101F90008093062C9093072C809160299091612961
:101FA000809358299093592980935A2990935B29BB
:101FB00080935C2990935D2980935E2990935F299B
:101FC00080912C2990912D298093BA2B9093BB2B33
:101FD0008093CA2B9093CB2B8093DA2B9093DB2B9F
:101FE0008093EA2B9093EB2B8091302990913129AB
:101FF0008093B42B9093B52B8093C42B9093C52BD7
:102000008093D42B9093D52B8093E42B9093E52B46
:102010008091092C90910A2C892BC9F48091062C6F
:102020009091072C892B99F48091032C9091042C8A
:10203000892B69F48091002C9091012C892B39F423
:102040008091FD2B9091FE2B892B09F4B1C281E088
:102050008093FB2B08958FE090E04CCF880F991F61
:10206000FC01E658FE418081918180933029909354
:10207000312956CF880F991FFC01E65AFE41F3CF54
:10208000880F991FFC01E65CFE41EDCF1092092CF0
:1020900010920A2C45CF6115710509F4E9C14091F0
:1020A000CD285091CE28A0911129B0911229A417C2
:1020B000B50708F0DDC14031510508F4D9C14091A0
:1020C0005F2B4111D5C1408151814093F82B509332
:1020D000F92B428153814093622950936329609385
:1020E000092C70930A2C6681778160936029709324
:1020F000612966E0569547956A95E1F740315105AB
:1021000008F092C140932C2950932D294091AA2B7D
:102110005091AB2B4130510509F498C108F487C1A7
:102120004230510509F49BC1B9016C59764DFB0150
:10213000EC5BFF4FA081B181109709F4C2C14091BF
:10214000CD285091CE28E0910F29F0911029E41765
:10215000F50708F0B6C14031510508F4B2C140910D
:102160005F2B4111AEC1FC0143E0EE0FFF1F4A950A
:10217000E1F7EC55F64D408151814093F62B509399
:10218000F72BFB01EE5BFF4F408151814093A02B69
:102190005093A12BA093062CB093072C6A5B7F4F22
:1021A000FB016081718160935E2970935F2966E015
:1021B000569547956A95E1F74031510508F05DC1A4
:1021C0004093EA2B5093EB2B4091AA2B5091AB2BD1
:1021D0004130510509F463C108F452C14230510540
:1021E00009F466C1B9016C59764DFB01EC57FF4FFC
:1021F000A081B181109709F48DC14091CD285091F3
:10220000CE28E0910D29F0910E29E417F50708F08A
:1022100081C14031510508F47DC140915F2B4111CE
:1022200079C1FC0143E0EE0FFF1F4A95E1F7EC5145
:10223000F64D408151814093F42B5093F52BFB01D7
:10224000EE57FF4F408151814093902B5093912B3B
:10225000A093032CB093042C6A577F4FFB0160813D
:10226000718160935C2970935D2966E0569547956E
:102270006A95E1F74031510508F028C14093DA2B07
:102280005093DB2B4091AA2B5091AB2B4130510541
:1022900009F42EC108F41DC14230510509F431C1C1
:1022A000B9016C59764DFB01EC53FF4FA081B18110
:1022B000109709F458C14091CD285091CE28E09153
:1022C0000B29F0910C29E417F50708F04CC14031B7
:1022D000510508F448C140915F2B411144C1FC01F4
:1022E00053E0EE0FFF1F5A95E1F7EC5DF54D40818D
:1022F00051814093F22B5093F32BFB01EE53FF4F90
:10230000408151814093802B5093812BA093002CCE
:10231000B093012C6A537F4FFB0160817181609300
:102320005A2970935B2966E0569547956A95E1F7BF
:102330004031510508F0F3C04093CA2B5093CB2B8A
:102340004091AA2B5091AB2B4130510509F4F9C0B3
:1023500008F4E8C04230510509F4FCC02C59364D50
:10236000F901EC5FFE4F408151814115510509F49F
:102370001AC16091CD287091CE28E0910929F09181
:102380000A29E617F70708F00EC16031710508F455
:102390000AC160915F2B611106C163E0880F991F2C
:1023A0006A95E1F7FC01EC59F54D808191818093AC
:1023B000F02B9093F12BF901EE5FFE4F808191811C
:1023C0008093702B9093712B4093FD2B5093FE2B99
:1023D0002A5F3E4FF90120813181209358293093A3
:1023E000592976E0969587957A95E1F780319105A0
:1023F00008F0BEC08093BA2B9093BB2B8091AA2B80
:102400009091AB2B8130910509F4C4C008F4B3C09E
:10241000029709F0FDCDE091BA2BF091BB2BEE0FA6
:10242000FF1FE65CFE41AFC04FE050E06BCEE09195
:102430002C29F0912D29EE0FFF1FE658FE41408117
:10244000518140933029509331296ECEE0912C294F
:10245000F0912D29EE0FFF1FE65AFE41F0CFE091DB
:102460002C29F0912D29EE0FFF1FE65CFE41E7CFEE
:102470001092092C10920A2C57CE4FE050E0A0CEBB
:10248000E091EA2BF091EB2BEE0FFF1FE658FE4197
:10249000408151814093E42B5093E52BA3CEE091F2
:1024A000EA2BF091EB2BEE0FFF1FE65AFE41F0CF27
:1024B000E091EA2BF091EB2BEE0FFF1FE65CFE4163
:1024C000E7CF1092062C1092072C8CCE4FE050E0F4
:1024D000D5CEE091DA2BF091DB2BEE0FFF1FE65803
:1024E000FE41408151814093D42B5093D52BD8CEBF
:1024F000E091DA2BF091DB2BEE0FFF1FE65AFE4145
:10250000F0CFE091DA2BF091DB2BEE0FFF1FE65CB2
:10251000FE41E7CF1092032C1092042CC1CE4FE065
:1025200050E00ACFE091CA2BF091CB2BEE0FFF1FAA
:10253000E658FE41408151814093C42B5093C52BF6
:102540000DCFE091CA2BF091CB2BEE0FFF1FE65A77
:10255000FE41F0CFE091CA2BF091CB2BEE0FFF1F85
:10256000E65CFE41E7CF1092002C1092012CF6CED3
:102570008FE090E03FCFE091BA2BF091BB2BEE0FB4
:10258000FF1FE658FE41808191818093B42B909388
:10259000B52B3ECDE091BA2BF091BB2BEE0FFF1F78
:1025A000E65AFE41F0CF1092FD2B1092FE2B30CD5B
:1025B0001092FB2B08954F925F926F927F928F92B1
:1025C0009F92AF92BF92CF92DF92EF92FF92CF9302
:1025D000DF9300D000D0CDB7DEB74B015C010E9485
:1025E000EB02C0901E29D0901F29E0902029F09086
:1025F000212940902229509023296090242970900D
:10260000252984149504A604B70408F462C0A30124
:102610009201245631094109510929833A834B8398
:102620005C83D701C60172E0B695A795979587950B
:102630007A95D1F7820F931FA41FB51F88159905AE
:10264000AA05BB0508F042C0D701C601B695A795FB
:1026500097958795820F931FA41FB51F881699061B
:10266000AA06BB0608F458C0A3E0B0E0A701960193
:102670000E94584622E096958795779567952A950A
:10268000D1F729813A814B815C81620F731F841FCE
:10269000951F86169706A806B90608F440C0C40C14
:1026A000D51CE61CF71C34E6C31AD108E108F10872
:1026B00083E090E08C149D04AE04BF04D8F084E065
:1026C00090E0C814D904EA04FB04A0F090E080E094
:1026D00011C0481859086A087B0881E090E044E678
:1026E000441651046104710410F490E080E0919567
:1026F000819591092496CDBFDEBFDF91CF91FF90E8
:10270000EF90DF90CF90BF90AF909F908F907F9091
:102710006F905F904F90089581E090E0EBCF82E062
:1027200090E0E8CF81E08093A92A0E94EB026093B9
:10273000A52A7093A62A8093A72A9093A82A089581
:1027400081E08093AE2A0E94EB026093AA2A7093E4
:10275000AB2A8093AC2A9093AD2A089581E08093B0
:10276000B32A0E94EB026093AF2A7093B02A809341
:10277000B12A9093B22A089581E08093B82A0E94EA
:10278000EB026093B42A7093B52A8093B62A909393
:10279000B72A089580912F2890913028009709F446
:1027A00050C062E370E04EEF5FEF8130910511F0B1
:1027B00050E040E02091CB283091CC28460F571FA5
:1027C0004217530708F440C010922F281092302867
:1027D0008091512B9091522B8130910509F434C195
:1027E00008F428C1029709F43AC180912C299091EC
:1027F0002D29009709F43CC160E470E04CEE5FEFD6
:102800008130910511F050E040E020916229309133
:102810006329460F571F4217530708F42CC1109223
:102820002C2910922D298091AA2B9091AB2B8130CD
:10283000910509F47DC308F46CC3029709F481C3C0
:1028400008956CE370E0B4CF81309105A9F068E79A
:1028500070E046EF5FEF8230910511F050E040E00C
:10286000460F571F4217530750F081E090E08093C6
:102870002F2890933028ACCF62E870E0EFCF823001
:10288000910589F06CE271E046EF5FEF83309105CE
:1028900011F050E040E0460F571F4217530730F049
:1028A00082E090E0E4CF66E371E0F3CF82309105FF
:1028B00011F16CE271E046EF5FEF8330910511F0AA
:1028C00050E040E0460F571F42175307D0F48330C3
:1028D0009105A1F068E072E046EF5FEF843091056A
:1028E00011F050E040E0460F571F4217530748F0E1
:1028F00083E090E0BCCF66E371E0E2CF62E172E09A
:10290000F0CF8330910511F168E072E046EF5FEFA0
:102910008430910511F050E040E0460F571F4217F8
:102920005307D0F484309105A1F068EA72E046EFD5
:102930005FEF8530910511F050E040E0460F571FE2
:102940004217530748F084E090E091CF62E172E0D3
:10295000E2CF62EB72E0F0CF8430910511F168EACA
:1029600072E046EF5FEF8530910511F050E040E0F6
:10297000460F571F42175307D0F485309105A1F039
:1029800060E773E046EF5FEF8630910511F050E0AD
:1029900040E0460F571F4217530748F085E090E08C
:1029A00066CF62EB72E0E2CF6AE773E0F0CF85308A
:1029B000910511F160E773E046EF5FEF8630910516
:1029C00011F050E040E0460F571F42175307D0F474
:1029D00086309105A1F068EE73E046EF5FEF873037
:1029E000910511F050E040E0460F571F4217530782
:1029F00048F086E090E03BCF6AE773E0E2CF62EF19
:102A000073E0F0CF8630910579F048EE53E00797F8
:102A100071F090E080E0840F951F8217930708F013
:102A2000D7CE87E090E023CF42EF53E0F2CF86EF9E
:102A30009FEFF1CF80912F289091302801968093BD
:102A4000362990933729D1CEE0912F28F091302864
:102A5000EE0FFF1FE659FE4180819181F0CFE0919A
:102A60002F28F0913028EE0FFF1FE65BFE41F4CFD8
:102A700064E570E0C8CE81309105A9F060E870E0AF
:102A80004CEE5FEF8230910511F050E040E0460FD0
:102A9000571F4217530750F081E090E080932C2994
:102AA00090932D29C0CE64E970E0EFCF823091057C
:102AB00089F060EC70E04CEE5FEF8330910511F02F
:102AC00050E040E0460F571F4217530730F082E0B6
:102AD00090E0E4CF64ED70E0F3CF8230910511F126
:102AE00060EC70E04CEE5FEF8330910511F050E048
:102AF00040E0460F571F42175307D0F4833091052B
:102B0000A1F060E071E04CEE5FEF8430910511F0D0
:102B100050E040E0460F571F4217530748F083E04C
:102B200090E0BCCF64ED70E0E2CF64E171E0F0CF03
:102B30008330910511F160E071E04CEE5FEF84307D
:102B4000910511F050E040E0460F571F4217530720
:102B5000D0F484309105A1F060E471E04CEE5FEFB9
:102B60008530910511F050E040E0460F571F4217A5
:102B7000530748F084E090E091CF64E171E0E2CF48
:102B800064E571E0F0CF8430910511F160E471E00B
:102B90004CEE5FEF8530910511F050E040E0460FBC
:102BA000571F42175307D0F485309105A1F060E814
:102BB00071E04CEE5FEF8630910511F050E040E09F
:102BC000460F571F4217530748F085E090E066CF45
:102BD00064E571E0E2CF64E971E0F0CF8530910502
:102BE00011F160E871E04CEE5FEF8630910511F075
:102BF00050E040E0460F571F42175307D0F486308D
:102C00009105A1F060EC71E04CEE5FEF873091052B
:102C100011F050E040E0460F571F4217530748F0AD
:102C200086E090E03BCF64E971E0E2CF64ED71E0D3
:102C3000F0CF8630910511F160EC71E04CEE5FEF62
:102C40008730910511F050E040E0460F571F4217C2
:102C50005307D0F487309105A1F060E072E04CEEAC
:102C60005FEF8830910511F050E040E0460F571FAC
:102C70004217530748F087E090E010CF64ED71E011
:102C8000E2CF64E172E0F0CF8730910511F160E0AE
:102C900072E04CEE5FEF8830910511F050E040E0BB
:102CA000460F571F42175307D0F488309105A1F003
:102CB00060E472E04CEE5FEF8930910511F050E076
:102CC00040E0460F571F4217530748F088E090E056
:102CD000E5CE64E172E0E2CF64E572E0F0CF8830E7
:102CE000910511F160E472E04CEE5FEF89309105DF
:102CF00011F050E040E0460F571F42175307D0F441
:102D000089309105A1F060E872E04CEE5FEF8A3007
:102D1000910511F050E040E0460F571F421753074E
:102D200048F089E090E0BACE64E572E0E2CF64E971
:102D300072E0F0CF8930910511F160E872E04CEE5D
:102D40005FEF8A30910511F050E040E0460F571FC9
:102D500042175307D0F48A309105A1F060EC72E07D
:102D60004CEE5FEF8B30910511F050E040E0460FE4
:102D7000571F4217530748F08AE090E08FCE64E96E
:102D800072E0E2CF64ED72E0F0CF8A30910511F18C
:102D900060EC72E04CEE5FEF8B30910511F050E08B
:102DA00040E0460F571F42175307D0F48B30910570
:102DB000A1F060E073E04CEE5FEF8C30910511F014
:102DC00050E040E0460F571F4217530748F08BE092
:102DD00090E064CE64ED72E0E2CF64E173E0F0CFA6
:102DE0008B30910511F160E073E04CEE5FEF8C30B9
:102DF000910511F050E040E0460F571F421753076E
:102E0000D0F48C309105A1F060E473E04CEE5FEFFC
:102E10008D30910511F050E040E0460F571F4217EA
:102E2000530748F08CE090E039CE64E173E0E2CFE4
:102E300064E573E0F0CF8C30910511F160E473E04C
:102E40004CEE5FEF8D30910511F050E040E0460F01
:102E5000571F42175307D0F48D309105A1F060E859
:102E600073E04CEE5FEF8E30910511F050E040E0E2
:102E7000460F571F4217530748F08DE090E00ECEE3
:102E800064E573E0E2CF64E973E0F0CF8D30910543
:102E900011F160E873E04CEE5FEF8E30910511F0B8
:102EA00050E040E0460F571F42175307D0F48E30D2
:102EB0009105A1F060EC73E04CEE5FEF8F3091056F
:102EC00011F050E040E0460F571F4217530748F0FB
:102ED0008EE090E0E3CD64E973E0E2CF64ED73E06F
:102EE000F0CF8E30910579F040EC53E00F9771F000
:102EF00090E080E0840F951F8217930708F093CC31
:102F00008FE090E0CBCD44ED53E0F2CF8CEE9FEF1D
:102F1000F1CFE0912C29F0912D29EE0FFF1FE658FB
:102F2000FE418081918180933029909331290895C9
:102F3000E0912C29F0912D29EE0FFF1FE65AFE415A
:102F4000F0CFE0912C29F0912D29EE0FFF1FE65CC8
:102F5000FE41E7CFCF93DF93C091D128D091D22803
:102F60002197C093D128D093D228C0FF07C070E02A
:102F700060E08DE00E94B80181E019C061E070E07E
:102F80008DE00E94B801CD2BB9F71092492C8091A9
:102F9000602990916129019769F48091092C9091A1
:102FA0000A2C892B39F081E08093482C80E0DF9156
:102FB000CF9108951092482CF9CFDC01ED91FC914E
:102FC0000088F189E02D23E030E00994CF93DF936E
:102FD000FC0101900020E9F73197AF01481B590B24
:102FE000BC018EE19DE20E94AA03EC0142E050E0A8
:102FF00064E672EE8EE19DE20E94AA038C0F9D1F93
:10300000DF91CF91089588ED90E084BF90936100A7
:1030100080E094E2A4EFB0E080931E2890931F28F4
:10302000A0932028B0932128809102068660809387
:10303000020680910006816080930006809102065E
:103040008F7C809302068091A0008F788093A000EF
:10305000809102068061809302061092E20581E071
:103060008093E40583E08093010A8FEF90E08093E2
:10307000260A9093270A80E890E08093380A90937C
:10308000390A80933A0A90933B0A80933C0A9093C2
:103090003D0A8BE08093000A8091E5058160809372
:1030A000E5058091E50582608093E505E0E8FAE0BA
:1030B00037E02FEF90E885E0318324879587808380
:1030C0007096E03C4AE0F407B9F780E094E0809322
:1030D0005C2C90935D2C80915C2C90915D2C2FEF5B
:1030E00030E0B9010E94434860935A2C70935B2CE6
:1030F00080915C2C90915D2CE8EEF3E0BF010E9482
:1031000043486093582C7093592C80915C2C90917B
:103110005D2CBF010E9443488093562C9093572CFE
:103120002093BC0A3093BD0A8091B50A81608093D8
:10313000B50A84E08093B00A8091B00A81608093E0
:10314000B00A7894089580916B2890916C28209112
:10315000692830916A2882179307E9F08830910531
:10316000D0F4FC01EA54F74E0C946B48BE18C11819
:10317000C518C818D018D218D418D618089AAD98FF
:1031800002C00898AD9A4E9806C00898AD9802C043
:103190000898AD9A4E9A8093692890936A2808956A
:1031A000089AF7CF089AF2CF089AECCF0898E7CFA1
:1031B000CF92DF92EF92FF929C01ACE2B1E00E94CD
:1031C0008D466B017C010E949E03A7019601245449
:1031D0003D4F4F4F5F4F0E946B466C157D058E052E
:1031E0009F0588F42CE231E040E050E00E946B46FD
:1031F000663971058105910530F44C9AFF90EF9086
:10320000DF90CF9008954C98F9CF8830910598F4CD
:10321000FC01E35FF64E0C946B48151918191C1944
:103220001F192319251927192919089AAD9802C0C1
:103230000898AD9A4E9808950898AD9802C00898DD
:10324000AD9A4E9A0895089AFBCF089AF6CF089A3D
:10325000F0CF0898EBCF0F931F93CF93DF9380911C
:103260005B2B8823E9F0E091592BF0915A2BEE0F5C
:10327000FF1FE45FF74D8081918180936B289093CD
:103280006C280E94A3188091592B90915A2B01967B
:103290000E94D81881E0DF91CF911F910F9108957E
:1032A00080915F2B811106C080914B2C882309F4FB
:1032B00066C07AC08091602B9091612B20915E2B2B
:1032C000222309F45EC08730910509F04FC0809138
:1032D0001428909115288230910508F450C00E945E
:1032E000D818C0910A28D0910B2880915E2B882392
:1032F00009F4BBC00E949E03009126281091272844
:103300002091282830912928AB01BC01401B510B8A
:10331000620B730B8091DC289091DD280CEB12E09E
:1033200020E030E0009721F002EC11E020E030E0F6
:10333000041715072607370788F401968370992725
:103340008093DC289093DD280E949E0360932628BA
:10335000709327288093282890932928209749F153
:103360002197C0930A28D0930B2894CF059739F45E
:1033700080910B2C90910C2C009709F0B0CF4C98B9
:10338000B0CF079799F480914F2B8823C1F30E9407
:103390009E0320E931E040E050E00E946B46683C2B
:1033A00071058105910558F74C9A9BCF80914B2B65
:1033B0007DCF80916B2890916C28E091DC28F09172
:1033C000DD2871E020911428309115282230310534
:1033D00008F470E061E020914D2B30914E2B232BAF
:1033E00009F460E051E020910B2C30910C2C232B40
:1033F00009F450E0A0910D2C29E030E0EE0FFF1F02
:10340000EA5EF74D0196877099270097E9F08530BD
:10341000910529F18630910521F18730910519F147
:10342000EC012197249798F4C081D181C817D9075E
:1034300071F480936B2890936C2823E030E0209304
:103440000A2830930B2852C04A2F4111F2CF215045
:103450003109C1F680936B2890936C28F0CF452FEB
:10346000F4CF462FF2CF472FF0CF40914B2C20972F
:1034700009F03FC080916B2890916C28019687706D
:10348000992780936B2890936C2820915F2B2111B2
:1034900014C0411112C021E130E0FC01E050F84DB0
:1034A0005081511106C0019687709927215031092A
:1034B000A1F780936B2890936C2881E080932E284D
:1034C0004423F9F080915F2B81111BC080913E292C
:1034D00090913F292091322930913329820F931FF7
:1034E0008770992780936B2890936C280E94A3186B
:1034F000D1CE2197C0930A28D0930B2810922E2862
:10350000DFCF8091FB2B882309F491C08091502B51
:10351000811105C08091F82B9091F92BE3CF809118
:103520002E28882319F380912C2890912D2801961C
:1035300065E070E00E944348AC01E091092CF091F5
:103540000A2CA091062CB091072CC091032CD0918D
:10355000042C0091002C1091012C6091FD2B709196
:10356000FE2B20910A2890910B284115510559F402
:10357000309761F020930A2890930B2810922C2802
:1035800010922D28C7CF4130510589F4109791F042
:1035900020930A2890930B2881E090E080932C28B8
:1035A00090932D288091F62B9091F72B9BCF423052
:1035B000510589F4209791F020930A2890930B28C5
:1035C00082E090E080932C2890932D288091F42B1A
:1035D0009091F52B87CF4330510591F401151105DA
:1035E00079F020930A2890930B2883E090E0809351
:1035F0002C2890932D288091F22B9091F32B72CF51
:10360000322F892F21E090E06115710509F4B0CFC8
:1036100030930A2880930B2884E090E080932C2834
:1036200090932D288091F02B9091F12B5BCF80917E
:103630002E28882309F45ACFE0916B28F0916C284A
:1036400080915F2B811123C08091F82B9091F92BF1
:103650008E179F07A9F420912A2830912B2828172C
:10366000390758F02AE030E020930A2830930B28DD
:1036700080932A2890932B2839CF21E030E0F4CF93
:1036800081E090E080930A2890930B282FCF4091FF
:10369000502B2091512B3091522B8091AA2B90913D
:1036A000AB2B5091532BE830F105E8F7E65AF44E76
:1036B0000C946B48621B6B1B751B7F1B881B8E1B3E
:1036C000941B9A1B552339F010926B2810926C288A
:1036D00082E090E0D7CF8230910539F421E030E0EC
:1036E00020936B2830936C28CDCF8130910539F42D
:1036F00082E090E080936B2890936C28C3CF009772
:1037000039F483E090E080936B2890936C28E0CFAD
:103710002115310519F484E090E0F5CF2130310511
:1037200019F485E090E0EFCF2230310519F486E0FE
:1037300090E090CE442331F287E090E0E4CFCF9345
:10374000DF938091C7289091C828009729F00197AE
:103750008093C7289093C8288091502B882361F1CB
:103760008091C5289091C628009729F001978093F1
:10377000C5289093C6288091C3289091C4280097AB
:1037800029F001978093C3289093C4288091C12881
:103790009091C228009729F001978093C1289093B7
:1037A000C2288091BF289091C028009729F00197E6
:1037B0008093BF289093C0280E94C5452091C728B8
:1037C0003091C8284AE5429FE001439FD00D112463
:1037D00028EE33E040E050E00E943946DC01CB01A6
:1037E0008C0F9D1FA11DB11D893E23E09207A105ED
:1037F000B10524F088EE93E0A0E0B0E08093BD280E
:103800009093BE282091502B222309F43BC10E94A3
:10381000C5452091C5283091C6284AE5429FE00160
:10382000439FD00D112428EE33E040E050E00E9489
:103830003946DC01CB018C0F9D1FA11DB11D893EB6
:1038400023E09207A105B10524F088EE93E0A0E003
:10385000B0E08093BB289093BC280E94C54520917E
:10386000C3283091C4284AE5429FE001439FD00D10
:10387000112428EE33E040E050E00E943946DC019C
:10388000CB018C0F9D1FA11DB11D893E23E0920726
:10389000A105B10524F088EE93E0A0E0B0E08093AC
:1038A000B9289093BA280E94C5452091C12830912B
:1038B000C2284AE5429FE001439FD00D112428EE23
:1038C00033E040E050E00E943946DC01CB018C0F30
:1038D0009D1FA11DB11D893E23E09207A105B105E1
:1038E00024F088EE93E0A0E0B0E08093B7289093B6
:1038F000B8280E94C5452091BF283091C0284AE5CC
:10390000429FE001439FD00D112428EE33E040E0B8
:1039100050E00E943946DC01CB018C0F9D1FA11D98
:10392000B11D893E23E09207A105B10524F088EE80
:1039300093E0A0E0B0E08093B5289093B628809102
:10394000092C90910A2C8130910569F421E0209393
:10395000412B209160293091612921503109209318
:10396000C7283093C8282091502B222309F450C037
:103970002091062C3091072C2130310569F421E08B
:103980002093422B20915E2930915F2921503109EB
:103990002093C5283093C6282091032C3091042C05
:1039A0002130310569F421E02093432B20915C29DB
:1039B00030915D29215031092093C3283093C428C8
:1039C0002091002C3091012C2130310569F421E047
:1039D0002093442B20915A2930915B2921503109A1
:1039E0002093C1283093C2282091FD2B3091FE2BCB
:1039F0002130310569F421E02093452B209158298D
:103A000030915929215031092093BF283093C02883
:103A100020914B2C211133C0009729F001978093FE
:103A2000092C90930A2C8091062C9091072C0097DA
:103A300029F001978093062C9093072C8091032CFA
:103A40009091042C009729F001978093032C909378
:103A5000042C8091002C9091012C009729F0019763
:103A60008093002C9093012C8091FD2B9091FE2B44
:103A7000009729F001978093FD2B9093FE2BDF9107
:103A8000CF9108958093B5289093B6288093B72856
:103A90009093B8288093B9289093BA288093BB2834
:103AA0009093BC284CCF2F923F924F925F926F928F
:103AB0007F928F929F92AF92BF92CF92DF92EF92BE
:103AC000FF920F931F93CF93DF936B017C012A0129
:103AD0000E94C54520E130E040E050E00E943946B8
:103AE0002091AA2B3091AB2B660F771F2230310526
:103AF00009F06AC0665C7E41FB01C081D18120E093
:103B000030E0A901C230D10508F449C010E000E05E
:103B1000712C612C812C94E0992EA12CB12C0E9447
:103B2000C5451801FFEF2F1A3F0AA50194010E9415
:103B3000394664157505860597050CF04EC0810160
:103B40000830110561F70E94C5454E01B12CA12C2A
:103B50002FEF221A320A910150E040E00E943946CC
:103B60009B01AC0144275527C501BE010E94334883
:103B7000AB01BC0183E076956795579547958A958B
:103B8000D1F7DE0111974A175B0708F4DA01A701A4
:103B900096010E945846A50194010E946B46CA01F5
:103BA000B901DF91CF911F910F91FF90EF90DF90BE
:103BB000CF90BF90AF909F908F907F906F905F90CD
:103BC0004F903F902F9008952130310519F4665A97
:103BD0007E4192CF66587E418FCF1801B4CF2F928D
:103BE0003F924F925F926F927F928F929F92AF928D
:103BF000BF92CF92DF92EF92FF920F931F93CF93DA
:103C0000DF9300D000D0CDB7DEB76B017C012983F4
:103C10003A83413022E0520788F551954195510988
:103C2000440F551F5C5FB6010E94531D611571055D
:103C30008105910509F45FC0E981FA816083718390
:103C40008283938321E030E02B833C838B819C81B2
:103C50002496CDBFDEBFDF91CF911F910F91FF90D2
:103C6000EF90DF90CF90BF90AF909F908F907F901C
:103C70006F905F904F903F902F90089552581A0187
:103C8000220C331C03E010E01B821C824101B12C8A
:103C9000A12C412C44E0542E612C712CA101C701B0
:103CA000B6010E94531D611571058105910599F0BA
:103CB000EB81FC81EE0FFF1FEE0FFF1F29813A8180
:103CC000E20FF31F60837183828393838B819C81D6
:103CD00001968B839C830E94C545A30192010E949B
:103CE0003946681579058A059B050CF0AFCF015060
:103CF0001109A1F6ABCF1B821C82A8CF4F925F9215
:103D00006F927F928F929F92AF92BF92CF92DF92EB
:103D1000EF92FF920E94EB024B015C018091092C13
:103D200090910A2C892BE9F08091F82B9091F92B36
:103D30000197B9F48091EC2B9091ED2BA091EE2B93
:103D4000B091EF2BB501A401481B590B6A0B7B0BFB
:103D500081E0403157426105710508F080E08093B1
:103D60004A2C8091062C9091072C892B09F45BC07A
:103D70008091F62B9091F72B019709F054C0809118
:103D8000EA2B9091EB2B089708F483C181E090E037
:103D90000E94690D2091E42B3091E52B50E040E02A
:103DA0000E946B46211531054105510509F46EC18C
:103DB00069017A01F694E794D794C79488EEC816FF
:103DC00083E0D806E104F10430F4A8EECA2EA3E0A3
:103DD000DA2EE12CF12C8091E02B9091E12BA09137
:103DE000E22BB091E32B24013501481A590A6A0AE3
:103DF0007B0AC301B2010E946B4621E1C21627E291
:103E0000D206E104F10430F0F0E1CF2EF7E2DF2E2C
:103E1000E12CF12C21E06C157D058E059F0508F045
:103E200020E02093472C8091032C9091042C892B27
:103E300009F45BC08091F42B9091F52B019709F068
:103E400054C08091DA2B9091DB2B089708F457C16E
:103E500082E090E00E94690D2091D42B3091D52B07
:103E600050E040E00E946B462115310541055105A7
:103E700009F442C169017A01F694E794D794C79492
:103E800088EEC81683E0D806E104F10430F468EE49
:103E9000C62E63E0D62EE12CF12C8091D02B909190
:103EA000D12BA091D22BB091D32B24013501481AEC
:103EB000590A6A0A7B0AC301B2010E946B4621E1DA
:103EC000C21627E2D206E104F10430F050E1C52E1B
:103ED00057E2D52EE12CF12C21E06C157D058E05E5
:103EE0009F0508F020E02093452C8091002C9091B4
:103EF000012C892B09F45BC08091F22B9091F32B5C
:103F0000019709F054C08091CA2B9091CB2B089750
:103F100008F42BC183E090E00E94690D2091C42B2E
:103F20003091C52B50E040E00E946B4621153105D1
:103F30004105510509F416C169017A01F694E79427
:103F4000D794C79488EEC81683E0D806E104F1043C
:103F500030F4A8EECA2EA3E0DA2EE12CF12C8091E9
:103F6000C02B9091C12BA091C22BB091C32B2401E7
:103F70003501481A590A6A0A7B0AC301B2010E9434
:103F80006B4621E1C21627E2D206E104F10430F0CB
:103F9000F0E1CF2EF7E2DF2EE12CF12C21E06C15C1
:103FA0007D058E059F0508F020E02093432C80912D
:103FB000FD2B9091FE2B892B09F45BC08091F02B97
:103FC0009091F12B019709F054C08091BA2B9091F8
:103FD000BB2B089708F4FFC084E090E00E94690DB5
:103FE0002091B42B3091B52B50E040E00E946B46FD
:103FF000211531054105510509F4EAC069017A012D
:10400000F694E794D794C79488EEC81683E0D80650
:10401000E104F10430F468EEC62E63E0D62EE12C04
:10402000F12C8091B02B9091B12BA091B22BB0913B
:10403000B32B24013501481A590A6A0A7B0AC301C5
:10404000B2010E946B4621E1C21627E2D206E104CA
:10405000F10430F050E1C52E57E2D52EE12CF12CC1
:1040600021E06C157D058E059F0508F020E020936A
:10407000412CFF90EF90DF90CF90BF90AF909F903A
:104080008F907F906F905F904F9008951092472C83
:10409000CACE8091DF2B882321F1E090A02BF090F5
:1040A000A12B0E94C54520E032E02E193F0969018D
:1040B000CC0CDD1C36FF02C0D12CC12C0D2C000C09
:1040C000EE08FF0828EE33E040E050E00E94394659
:1040D00021E06C157D058E059F050CF020E02093F6
:1040E00084288091052C882321F08091842891E0F8
:1040F00089278093472C97CE1092452CF6CE80913D
:10410000CF2B882321F1E090902BF090912B0E94EF
:10411000C54520E032E02E193F096901CC0CDD1CB9
:1041200036FF02C0D12CC12C0D2C000CEE08FF086C
:1041300028EE33E040E050E00E94394621E06C1563
:104140007D058E059F050CF020E02093832880914B
:10415000022C882321F08091832891E08927809385
:10416000452CC3CE1092432C22CF8091BF2B8823A5
:1041700021F1E090802BF090812B0E94C54520E03A
:1041800032E02E193F096901CC0CDD1C36FF02C05C
:10419000D12CC12C0D2C000CEE08FF0828EE33E0CA
:1041A00040E050E00E94394621E06C157D058E0507
:1041B0009F050CF020E0209382288091FF2B88231C
:1041C00021F08091822891E089278093432CEFCEC3
:1041D0001092412C4ECF8091AF2B882321F1E0909B
:1041E000702BF090712B0E94C54520E032E02E1913
:1041F0003F096901CC0CDD1C36FF02C0D12CC12C5B
:104200000D2C000CEE08FF0828EE33E040E050E0F3
:104210000E94394621E06C157D058E059F050CF046
:1042200020E0209381288091FC2B882321F080912D
:10423000812891E089278093412C1BCF8F929F92F8
:10424000AF92BF92CF92DF92EF92FF920E94EB0269
:104250006B017C018091092C90910A2C892BE9F04B
:104260008091F82B9091F92B892BB9F48091EC2B4C
:104270009091ED2BA091EE2BB091EF2BB701A60101
:10428000481B590B6A0B7B0B81E04031574261059B
:10429000710508F080E080934A2C8091062C909163
:1042A000072C892B21F18091F62B9091F72B892BEC
:1042B000F1F48091DF2B882381F02091A02B3091A5
:1042C000A12B20937F28309380282091EA2B3091D6
:1042D000EB2B20937D2830937E2820917F283091EE
:1042E00080282431310508F089C01092472C809134
:1042F000032C9091042C892B21F18091F42B909127
:10430000F52B892BF1F48091CF2B882381F020911C
:10431000902B3091912B20937A2830937B282091F9
:10432000DA2B3091DB2B2093782830937928209159
:104330007A2830917B282431310508F0C1C01092D1
:10434000452C8091002C9091012C892B21F180919A
:10435000F22B9091F32B892BF1F48091BF2B8823C2
:1043600081F02091802B3091812B20937528309300
:1043700076282091CA2B3091CB2B20937328309331
:10438000742820917528309176282431310508F061
:10439000F9C01092432C8091FD2B9091FE2B892B1C
:1043A00021F18091F02B9091F12B892BF1F48091E8
:1043B000AF2B882381F02091702B3091712B2093AB
:1043C0007028309371282091BA2B3091BB2B209309
:1043D0006E2830936F2820917028309171282431F5
:1043E000310508F031C11092412CFF90EF90DF9021
:1043F000CF90BF90AF909F908F90089540917D286F
:1044000050917E284830510508F58823B9F00E9464
:10441000C54580907F2890908028B12CA12C22EC5B
:1044200031E040E050E00E94394621E0681579050E
:104430008A059B050CF020E020937C288091052CB8
:10444000811180917C288093472C51CFE091052CDD
:104450004830510519F4E093472C49CFE111FBCFC7
:104460008091502990915129A0915229B0915329BE
:1044700046015701881A990AAA0ABB0A80915E2947
:1044800090915F2901963250829FA001839F500D29
:10449000929F500D1124A52FA69520911E29309191
:1044A0001F294091202950912129B0E00E945846AF
:1044B000E1E086169706A806B90668F2E0E0CBCFE1
:1044C00040917828509179284830510508F5882383
:1044D000B9F00E94C54580907A2890907B28B12C35
:1044E000A12C22EC31E040E050E00E94394621E06E
:1044F000681579058A059B050CF020E02093772844
:104500008091022C8111809177288093452C19CFBE
:10451000E091022C4830510519F4E093452C11CF5D
:10452000E111FBCF80914C2990914D29A0914E290A
:10453000B0914F2946015701881A990AAA0ABB0A65
:1045400080915C2990915D2901963250829FA00153
:10455000839F500D929F500D1124A52FA695209159
:104560001E2930911F294091202950912129B0E026
:104570000E945846E1E086169706A806B90668F23A
:10458000E0E0CBCF4091732850917428483051051A
:1045900008F58823B9F00E94C54580907528909051
:1045A0007628B12CA12C22EC31E040E050E00E94B2
:1045B000394621E0681579058A059B050CF020E055
:1045C000209372288091FF2B811180917228809313
:1045D000432CE1CEE091FF2B4830510519F4E093D4
:1045E000432CD9CEE111FBCF8091482990914929E4
:1045F000A0914A29B0914B2946015701881A990A7E
:10460000AA0ABB0A80915A2990915B2901963250DF
:10461000829FA001839F500D929F500D1124A52FC2
:10462000A69520911E2930911F2940912029509153
:104630002129B0E00E945846E1E086169706A806B8
:10464000B90668F2E0E0CBCF40916E2850916F2818
:104650004830510508F58823B9F00E94C545C0903F
:104660007028D0907128F12CE12C22EC31E040E050
:1046700050E00E94394621E06C157D058E059F05AE
:104680000CF020E020936D288091FC2B811180910B
:104690006D288093412CA9CEE091FC2B4830510528
:1046A00019F4E093412CA1CEE111FBCF8091442974
:1046B00090914529A0914629B0914729C81AD90A55
:1046C000EA0AFB0A809158299091592901963250A3
:1046D000829FA001839F500D929F500D1124A52F02
:1046E000A69520911E2930911F2940912029509193
:1046F0002129B0E00E945846E1E0C616D706E80638
:10470000F90678F2E0E0CDCF0C9425464F925F9207
:104710006F927F928F929F92AF92BF92CF92DF92D1
:10472000EF92FF920F931F93CF93DF934091602BF3
:104730005091612B6091CF287091D028EAEEF0ED76
:1047400030E020E01CEE81919191F22E032FD901EF
:1047500011974A175B0709F053C1A4E1B0E08A0F33
:104760009B1FACEEBFEF2417350711F0B0E0A0E0BF
:104770002F5F3F4F8A0F9B1F8617970708F043C193
:10478000C080D180C9010197C4E1D0E04817590722
:1047900011F0D0E0C0E01203D001139FB00D11243E
:1047A00081E090E0A417B50711F090E080E08C0D57
:1047B0009D1D8C0F9D1F8617970708F424C1F0924A
:1047C000602B0093612B8091552B882309F43EC008
:1047D00080915F2B81113AC08091542B811136C09A
:1047E00080914B2C811132C0E091602BF091612BB4
:1047F000E050F84D808191E089278083A0E0B8E205
:1048000028E038E2FD0190E080E04191840F911DA5
:104810002E173F07D1F7892B41F4E0916228F091E0
:104820006328E050F84D81E0808327E030E060E0CD
:104830008D91022E01C0880F0A94EAF7680F21506B
:104840003109B0F782E090E00E948423E1E3F8E2CE
:1048500081E698E2DF011D921C92119712961D923B
:104860001C92139714961D921C92159716968A17F0
:104870009B0789F7C0E0D8E230E020E090E080E0DC
:1048800046E05991552369F0429FD001439FB00DF6
:104890001124AF5CB74D14968D939C9315972F5FA1
:1048A0003F4F01968830910561F720930828309397
:1048B0000928B90161507109C1E3D8E250E040E034
:1048C00000E014E04217530709F0A2C040906228AC
:1048D00050906328C091CF28D091D02830E020E0BC
:1048E0007CEE2417350709F46AC080819181B0E01D
:1048F000A0E089010150110964E1C62ED12CE12C00
:10490000F12C4016510619F0C12CD12C76018C0DDA
:104910009D1DAE1DBF1D0CEEC02EDD24DA94ED2CC6
:10492000FD2C4216530619F0C12CD12C76018C0DAA
:104930009D1DAE1DBF1D14E1C12ED12CE12CF12C0B
:104940004216530619F0C12CD12C760139011FEF04
:10495000611A710AB7FF03C080E090E0DC01C8175C
:10496000D90708F495C082819381C80ED91EE11C35
:10497000F11C83017003C001719F900D1124812CE3
:10498000912C540183948415950519F0812C912C58
:104990005401C80CD91CEA1CFB1CCC15DD0508F021
:1049A00077C086E0829FF001839FF00D1124EF5CB9
:1049B000F74D84819581809362289093632880913C
:1049C0006228909163282091FB2B211108C020912F
:1049D0005F2B211104C08093F82B9093F92BDF916A
:1049E000CF911F910F91FF90EF90DF90CF90BF90EC
:1049F000AF909F908F907F906F905F904F900895B1
:104A0000B0E0A0E0ACCE2830310509F09CCEDBCE82
:104A10004115510569F41092312810923228461739
:104A20005707F9F40A831B834F5F5F4F26964ACFDF
:104A3000DE0112978D919C91AC81BD818A0F9B1FE5
:104A40009F778F30910550F4880F991FDC01A45097
:104A5000BF428D919C9188839983E1CF90E080E063
:104A6000FACF8A859B85AC81BD818A0F9B1F9F777A
:104A70008F30910550F4880F991FDC01A450BF427C
:104A80008D919C918A839B83CFCF90E080E0FACF79
:104A90003696930126CFCF92DF92EF92FF920E943B
:104AA000EB02AB01BC018091462B882309F4A6C11F
:104AB00080914F2B882309F440C08091C9289091A0
:104AC000CA2880936229909363298093702B9093D6
:104AD000712B8093802B9093812B8093902B9093BC
:104AE000912B8093A02B9093A12B80912C299091B6
:104AF0002D298093BA2B9093BB2B8093CA2B909334
:104B0000CB2B8093DA2B9093DB2B8093EA2B909323
:104B1000EB2B80913029909131298093B42B909385
:104B2000B52B8093C42B9093C52B8093D42B90935B
:104B3000D52B8093E42B9093E52B8091362990918F
:104B400037298093092C90930A2C809360299093A5
:104B500061298091FA2B882309F456C34093EC2BEA
:104B60005093ED2B6093EE2B7093EF2B8091502B95
:104B7000811149C12091F82B3091F92B809168283F
:104B800081117AC01092A1281092A2281092A32815
:104B90001092A4281092A5281092A6281092A72857
:104BA0001092A8288FEF9FEF8093852890938628F6
:104BB00080938C2890938D288093932890939428A9
:104BC00080939A2890939B28109287281092882887
:104BD0001092892810928A2810928E2810928F287D
:104BE0001092902810929128109295281092962851
:104BF000109297281092982810929C2810929D2825
:104C000010929E2810929F281092AD2B1092AE2BDE
:104C10001092BD2B1092BE2B1092CD2B1092CE2B4A
:104C20001092DD2B1092DE2B1092622B1092632BD0
:104C30001092722B1092732B1092822B1092832B56
:104C40001092922B1092932B8091052C811102C00F
:104C50001092462C8091022C811102C01092442C9B
:104C60008091FF2B811102C01092422C8091FC2B6D
:104C7000811102C01092402C232B09F05CC00E94CD
:104C8000C545C0906229D0906329F12CE12C22EC1B
:104C900031E040E050E00E94394621E06C157D058E
:104CA0008E059F050CF020E020937C280E94C545CE
:104CB000C0906229D0906329F12CE12C22EC31E0E4
:104CC00040E050E00E94394621E06C157D058E05DC
:104CD0009F050CF020E0209377280E94C545C090E6
:104CE0006229D0906329F12CE12C22EC31E040E0E4
:104CF00050E00E94394621E06C157D058E059F0528
:104D00000CF020E0209372280E94C545C0906229D3
:104D1000D0906329F12CE12C22EC31E040E050E00E
:104D20000E94394621E06C157D058E059F050CF02B
:104D300020E020936D2810928B28109292281092D8
:104D400099281092A0288091F82B9091F92B83300C
:104D50009105E1F42091052C222319F021E0209304
:104D6000A0282091022C222319F021E020939928D9
:104D70002091FF2B222319F021E0209392282091EB
:104D8000FC2B222319F021E020938B288093F02B19
:104D90009093F12B8093F22B9093F32B8093F42B31
:104DA0009093F52B8093F62B9093F72B8091092C01
:104DB00090910A2C8093FD2B9093FE2B8093002CD6
:104DC0009093012C8093032C9093042C8093062CB9
:104DD0009093072C809160299091612980935829A4
:104DE0009093592980935A2990935B2980935C2949
:104DF00090935D2980935E2990935F298091502B39
:104E0000882309F4FCC18091472B882309F47AC0D8
:104E10000E9486238093F62B9093F72B20914F2BA3
:104E20002223C1F02091C9283091CA282093A02BB9
:104E30003093A12B20912C2930912D292093EA2BFE
:104E40003093EB2B20913029309131292093E42BA2
:104E50003093E52B20913629309137292093062C69
:104E60003093072C20935E2930935F29892BB9F466
:104E70000E94C545C0906229D0906329F12CE12C95
:104E800022EC31E040E050E00E94394621E06C1510
:104E90007D058E059F050CF020E020937C288091F5
:104EA000F62B9091F72B039709F0BFC18091052C49
:104EB000882309F4BAC181E08093A02880916728F3
:104EC000811120C01092A7281092A8288FEF9FEF81
:104ED00080939A2890939B2810929C2810929D284A
:104EE00010929E2810929F281092DD2B1092DE2B9C
:104EF0001092922B1092932B8091052C811102C05D
:104F00001092462C8091482B882309F47AC00E9485
:104F100086238093F42B9093F52B20914F2B222303
:104F2000C1F02091C9283091CA282093902B30934A
:104F3000912B20912C2930912D292093DA2B30931D
:104F4000DB2B20913029309131292093D42B3093C1
:104F5000D52B20913629309137292093032C30937B
:104F6000042C20935C2930935D29892BB9F40E948D
:104F7000C545C0906229D0906329F12CE12C22EC28
:104F800031E040E050E00E94394621E06C157D059B
:104F90008E059F050CF020E0209377288091F42B5C
:104FA0009091F52B039709F043C18091022C88233F
:104FB00009F43EC181E0809399288091662881118F
:104FC00020C01092A5281092A6288FEF9FEF809303
:104FD00093289093942810929528109296281092D6
:104FE0009728109298281092CD2B1092CE2B1092C9
:104FF000822B1092832B8091022C811102C010927F
:10500000442C8091492B882309F47AC00E9486237E
:105010008093F22B9093F32B20914F2B2223C1F0FE
:105020002091C9283091CA282093802B3093812B5E
:1050300020912C2930912D292093CA2B3093CB2BF2
:1050400020913029309131292093C42B3093C52BE6
:1050500020913629309137292093002C3093012C50
:1050600020935A2930935B29892BB9F40E94C545B6
:10507000C0906229D0906329F12CE12C22EC31E020
:1050800040E050E00E94394621E06C157D058E0518
:105090009F050CF020E0209372288091F22B9091D4
:1050A000F32B039709F0C7C08091FF2B882309F4E5
:1050B000C2C081E08093922880916528811120C030
:1050C0001092A3281092A4288FEF9FEF80938C2832
:1050D00090938D2810928E2810928F2810929028ED
:1050E000109291281092BD2B1092BE2B1092722B11
:1050F0001092732B8091FF2B811102C01092422CD1
:1051000080914A2B882309F47AC00E9486238093D9
:10511000F02B9093F12B20914F2B2223C1F0209163
:10512000C9283091CA282093702B3093712B20917D
:105130002C2930912D292093BA2B3093BB2B209111
:105140003029309131292093B42B3093B52B209105
:105150003629309137292093FD2B3093FE2B209355
:10516000582930935929892BB9F40E94C545C0901C
:105170006229D0906329F12CE12C22EC31E040E04F
:1051800050E00E94394621E06C157D058E059F0593
:105190000CF020E020936D288091F02B9091F12B62
:1051A000039709F04BC08091FC2B882309F446C07B
:1051B00081E080938B2880916428811120C0109217
:1051C000A1281092A2288FEF9FEF809385289093BB
:1051D0008628109287281092882810928928109289
:1051E0008A281092AD2B1092AE2B1092622B109247
:1051F000632B8091FC2B811102C01092402CFF90F8
:10520000EF90DF90CF9008958091222990912329EB
:10521000A0912429B09125298093EC2B9093ED2B1C
:10522000A093EE2BB093EF2BA1CC1092A02846CEEA
:1052300010929928C2CE109292283ECF10928B28BD
:10524000BACF8091552B882309F455C08091FB2B50
:10525000882309F450C08091092C90910A2C892B45
:1052600029F080915D2B81110E94F80D80916029B9
:105270009091612901978093C7289093C828109234
:10528000092C10920A2C8091502B8823A1F1809137
:105290005E2990915F2901978093C5289093C62835
:1052A0001092062C1092072C80915C2990915D2918
:1052B00001978093C3289093C4281092032C1092D6
:1052C000042C80915A2990915B2901978093C128E1
:1052D0009093C2281092002C1092012C8091582992
:1052E0009091592901978093BF289093C0281092DC
:1052F000FD2B1092FE2B9091FA2B9923D9F020913F
:10530000092C30910A2C232BA9F42091CD2830911F
:10531000CE284091BD285091BE284217530750F423
:105320002031310538F080915F2B811103C081E07D
:105330008093462B8091502B882309F46FC09923CA
:1053400009F46CC02091062C3091072C232BA9F472
:105350002091CD283091CE284091BB285091BC2877
:105360004217530750F42031310538F090915F2BEC
:10537000911103C091E09093472B2091032C309121
:10538000042C232BA9F42091CD283091CE284091D4
:10539000B9285091BA284217530750F420313105EB
:1053A00038F090915F2B911103C091E09093482BBE
:1053B0002091002C3091012C232BA9F42091CD2891
:1053C0003091CE284091B7285091B8284217530702
:1053D00050F42031310538F090915F2B911103C0CA
:1053E00091E09093492B2091FD2B3091FE2B232BA4
:1053F000A9F42091CD283091CE284091B528509124
:10540000B6284217530750F42031310538F09091F7
:105410005F2B911103C091E090934A2B9091462B02
:10542000992309F46CC09091412B992309F467C02A
:1054300091E09093682881115BC0809160299091E0
:105440006129029708F0AFC080916828882361F035
:105450009091502B911108C02091622830916328BF
:105460002093F82B3093F92B2091092C30910A2CA2
:10547000232BC9F42091062C3091072C232B99F46F
:105480002091032C3091042C232B69F42091002CC3
:105490003091012C232B39F42091FD2B3091FE2BE0
:1054A000232B09F48CC091E09093FB2B811111C048
:1054B0008091672881110DC080916628811109C0F3
:1054C00080916528811105C080916428882309F4A2
:1054D00079C081E08093612880916128882309F454
:1054E00074C08AE090E080930A2890930B28089576
:1054F0008091472B81110DC01092672817C0109220
:1055000068288111F5CF8091412B882309F49CCF25
:1055100094CF8091422B882379F381E08093672890
:105520000E9486238093F62B9093F72B8091482B33
:10553000882381F18091432B882361F181E080935E
:1055400066280E9486238093F42B9093F52B8091FC
:10555000492B882311F18091442B8823F1F081E0BD
:10556000809365280E9486238093F22B9093F32BDF
:1055700080914A2B8823A1F08091452B882381F0CC
:1055800081E0809364280E9486238093F02B90937F
:10559000F12BB9CF10926628DACF10926528E8CFA8
:1055A00010926428B0CF80914B2C81114DCF809107
:1055B0005D2B882309F448CF0E94F80D45CF109247
:1055C000FB2B74CF1092612887CF089561E590E09E
:1055D00080E00E94842360E081E090E00E948423C8
:1055E0006FEF82E090E00E94842360E083E090E02F
:1055F0000E94842360E084E090E00E94842364EEB3
:1056000085E090E00E94842360E086E090E00E94C4
:10561000842363E387E090E00E94842363E388E0CF
:1056200090E00C9484230C941D464F925F926F92ED
:105630007F928F929F92AF92BF92EF92FF920F93C1
:105640001F93CF93DF93CDB7DEB72597CDBFDEBFD6
:1056500061E070E081E00E94150270E060E080E1AE
:105660000E94150261E070E082E00E94150261E094
:1056700070E083E00E94150261E070E084E00E9427
:10568000150270E060E08FE00E94150270E060E0BB
:105690008EE00E94150270E060E089E00E94150231
:1056A00070E060E08BE00E94150270E060E08AE04C
:1056B0000E94150261E070E08DE00E94150261E039
:1056C00070E087E00E94150261E070E088E00E94CF
:1056D000150261E070E086E00E94150261E070E072
:1056E00085E00E94150270E060E08CE00E941502E7
:1056F00070E060E081E10E94150262E070E080E00D
:105700000E94150261E070E081E00E94150270E0E5
:1057100060E085E10E94150270E060E084E10E9493
:10572000150270E060E082E10E94150270E060E026
:1057300083E10E9415020E94EB020091E6D01091D5
:10574000E7D02091E8D03091E9D009831A832B83E8
:105750003C8310E09E012F5F3F4F79012B013C01FC
:10576000440C551C661C771CE12FE370EE0DFF2DD9
:10577000F11D80810E94C90281709927092E000CB9
:10578000AA0BBB0B4C015D0184289528A628B728DD
:105790000E94EB022B013C01C501B4016425752573
:1057A000862597251F5F1031C9F684149504A60439
:1057B000B70411F00E9414465599F4C064E170E0FA
:1057C00080E090E00E946E035599ECC00E94E62AAA
:1057D00001E090E080E00E94051990E080E00E94E6
:1057E000132B813509F01FC181E090E00E94132B3B
:1057F000182F82E090E00E94132BB82E83E090E0F7
:105800000E94132B90E08093AA2B9093AB2B84E003
:1058100090E00E94132B90E08093512B9093522B99
:10582000E0E0F8E227E030E08B2D90E0AC01022EC2
:1058300002C0559547950A94E2F741704193215073
:105840003109A0F7812F81708093532B11FB88279A
:1058500080F98093502B12FB882780F98093DB28F6
:1058600013FB882780F980934B2B14FB882780F942
:1058700080934F2B15FB882780F980930D2C129570
:10588000169516951370812F90E080930B2C9093B2
:105890000C2C85E090E00E94132B95E0F70111920B
:1058A0009A95E9F7A6E1B8E230E020E041E090E027
:1058B00051E0FC01022E02C0F595E7950A94E2F74B
:1058C000E370FF273196ED93FD93EE0DFF1D608190
:1058D00061116AC050832E5F3F4F2830310549F770
:1058E000411118C081E090E080931628909317280A
:1058F00082E090E0809318289093192883E090E04C
:1059000080931A2890931B2884E090E080931C28B1
:1059100090931D2886E090E00E94132B982F907F93
:1059200009F444C010924D2B10924E2B81E090E070
:10593000809314289093152888E090E00E94132B00
:10594000182F87E090E00E94132B912F982B9878C6
:1059500009F441C083E090E08093122890931328CB
:10596000809310289093112880930E2890930F28ED
:1059700080930C2890930D28002309F45CC010E05C
:1059800000E0559953C0C8010E9405194C9A0F5F59
:105990001F4F0770112768E270E080E090E00E94DE
:1059A0006E03EFCF00E015CF40E095CF282F237096
:1059B000223060F430E020934D2B30934E2B90E05A
:1059C00095958795959587950196B2CF10924D2B19
:1059D00010924E2BF4CF282F277030E020930C2804
:1059E00030930D2890E024E0959587952A95E1F76E
:1059F0008770992780930E2890930F28812F8770A6
:105A000090E08093102890931128812F90E034E04B
:105A1000959587953A95E1F7877099278093122895
:105A200090931328A9CF0E94E62AA6CF4C9890E025
:105A300080E00E9405196CEB73E18EE00E947B0010
:105A40006EEA73E189E00E947B0060EA73E18BE01B
:105A50000E947B0062E973E18AE00E947B000E9461
:105A60009E034B015C010BEB12E10E949E0368193F
:105A700079098A099B09683E73408105910578F48C
:105A800090E080E00E940519C8010197F1F787E0D6
:105A900090E00E940519C8010197F1F7E6CF4C9AF2
:105AA00068E770E080E090E00E946E034C986CED37
:105AB00070E080E090E00E946E0382E090E00E943F
:105AC000051968EE73E080E090E00E946E032BE21F
:105AD00039E141E050E060E070E08BEC9DE225961A
