:100000000C9451000C9479000C9479000C947900B4
:100010000C9479000C9479000C94911F0C94790045
:100020000C9479000C9479000C9479000C9479006C
:100030000C9479000C9479000C9479000C9479005C
:100040000C9479000C9479000C9479000C9479004C
:100050000C94221F0C9479000C9479000C94790074
:100060000C94471F0C9479000C9479000C9479003F
:100070000C9479000C94D81E0C9479000C9479009F
:100080000C9479000C9479000C946C1F0C94FD1E58
:100090000C94741E0C94DC1F0C94B61F0C94790005
:1000A000252011241FBECFEFCDBFDFE3DEBF18E256
:1000B000A0E0B8E2E3EBFBE702C005900D92A231AD
:1000C000B107D9F72DE2A2E1B8E201C01D92AB322F
:1000D000B207E1F710E0C1E5D0E004C02197FE01CE
:1000E0000E944339C035D107C9F70E9462200C94A1
:1000F00049390C94000090E0FC01E458F444E0819C
:10010000EF3F39F18E599444DC012C91822F880FF6
:10011000880F880F8E0F8033E0F490E0880F991FCE
:10012000DC01A45FB34D6D937C938455944DDC0149
:100130001D921C92B0E22B9FC00111249C5F40963F
:10014000E80FF92FF11D8081887F80838081826094
:1001500080830895FC0154894589252F30E0842F40
:1001600090E0821B930B541710F0CF9608950197DF
:100170000895FC0192898389981761F0A389AE0FD5
:10018000BF2FB11D59968C9193899F5F9F73938B5D
:1001900090E008958FEF9FEF0895FC019289838985
:1001A000981731F08389E80FF11D818D90E0089553
:1001B0008FEF9FEF0895FC0192892389892F90E0AA
:1001C000805C9F4F821B91098F7399270895CF936D
:1001D000DF93EC01E881F9810680F781E02D099534
:1001E000EC85FD8586818F738683EC85FD85858111
:1001F0008F7585838B898A8B198ADF91CF910895BA
:10020000CF93DF93FC0194898589C485D5859813A4
:1002100006C08D818F7D8D83DF91CF910895A58953
:10022000AE0FBF2FB11DA75ABF4F2C91858990E00B
:1002300001968F739927858B80E48C83A485B5857F
:1002400012962C93948985899813E6CFA485B58559
:1002500015968C9115978F7D15968C938789882399
:10026000D9F2808D80931301178AD6CFDC011C96BA
:10027000ED91FC910FB607FE03C0258125FD04C05A
:10028000248125FD0C9400010895EF92FF920F93B5
:100290001F93CF93DF93EC0181E0898B9C898D893B
:1002A00098131CC0AC85BD8514968C91149785FF5E
:1002B00015C012966C93AC85BD8580E414968C9322
:1002C000EC85FD8585818F7D858381E090E0DF91E0
:1002D000CF911F910F91FF90EF90089580911101A0
:1002E00080FF08C080911301888F8E89809313014D
:1002F00081E08F8BF62E0C8910E00F5F1F4F0F737C
:100300001127E02E8D898E1104C0CE010E94360186
:10031000F9CFEC89EC0FFD2FF11DE75AFF4FF0826A
:100320000C8BEC85FD8585818062CECFCF93DF93EA
:10033000FC0121892223C9F0EC018091110180FF89
:1003400008C080911301808F86898093130181E01A
:10035000878BEC85FD85858185FD03C0848186FDC5
:1003600004C0CE010E943601F4CFDF91CF910895F1
:10037000282F30E0F901E85BF44440814F3F09F455
:100380004EC08B3258F4F901E25DF444E081EE2373
:1003900029F0E13099F010F0E63010F1F901EE5952
:1003A000F444E081A0E2EA9FF0011124FC5F808127
:1003B000842311F1672BF1F446830895E091010A3B
:1003C000D901A458B4445C915C5F81E090E001C025
:1003D000880F5A95EAF780958E238093010ADECF25
:1003E00080E1E89FF0011124E05AF54F81818F7E72
:1003F0008183D4CF4583089524583444D9018C9106
:10040000309771F08F3F61F07096E80FF11D9FB744
:10041000F8948081672B39F4877F80839FBF08958C
:10042000F0E0E0E0F4CF8860F8CFCF93DF9390E086
:10043000FC01E85BF44420812F3F71F0FC01EE5990
:10044000F444A08130E2A39FD0011124BC5F61304D
:10045000710529F411962C93DF91CF91089584585A
:100460009444EC01E881EF3F89F0CD014096E80F1C
:10047000F92FF11D9FB7F89412962C93808162306A
:10048000710539F4886080839FBFE6CFF0E0E0E03B
:10049000F1CF877FF8CFCF92DF92EF92FF920F9349
:1004A0001F93CF93DF93EC016A017B01022F8989AF
:1004B000882339F0E881F9810288F389E02DCE01A3
:1004C000099598898091E205892B8093E2051FB7F1
:1004D000F89460E070E281EA97E0A70196010E943B
:1004E000433769017A018FEFC81AD80AE80AF80A77
:1004F000F694E794D794C794EC85FD8586818D7F2B
:100500008683EC85FD8586818683198AA0912311D7
:100510000A2E000CBB0BA70196010E943B3720E07E
:1005200034E040E050E00E941137EC85FD85C20EBA
:10053000D31EE41EF51EC086D186EC85FD8507839B
:10054000EC85FD858681806C8683EC85FD858581C3
:10055000806885838E858B3220F462E070E00E9493
:1005600015028F858B3220F461E070E00E94B801A3
:100570008F858B3220F461E070E00E9415021FBF6E
:10058000DF91CF911F910F91FF90EF90DF90CF906F
:100590000895E82FF0E0E85EF44480818F30A0F405
:1005A0008093060681E08093080680910B0680FF09
:1005B000FCCF2FB7F89490911006809111062FBFB1
:1005C00089279827892708958FEF90E00895CF9382
:1005D000DF938FB7F8942091A02B3091A12B4091FD
:1005E000A22B5091A32BE091BA0A9091B60A90FFEA
:1005F00006C02F5F3F4F4F4F5F4FE091BA0A8FBF4A
:10060000A091AA2BB091AB2BC091A82BD091A92B74
:100610000E943037EC9F9001ED9F300D1124620F46
:10062000731F811D911DDF91CF9108958F929F922D
:10063000AF92BF92EF92FF921F93CF93DF93EC01A3
:100640004A015B01790111E081149104A104B10414
:1006500009F410E00E94E702FE013296AE014E5E00
:100660005F4FE417F50798F520813181232B11F0B6
:100670007096F7CF309759F1288139812F5F3F4F1E
:1006800019F1288339834881598146875787E08249
:10069000F1821282138264837583868397838086B6
:1006A0009186A286B386212F30E024873587CF013B
:1006B00084279527DF91CF911F91FF90EF90BF90F6
:1006C000AF909F908F90089521E030E0DACF90E0D6
:1006D00080E0F0CFAF92BF92CF92DF92EF92FF9285
:1006E0000F931F93CF93DF936C017B018B01040F5A
:1006F000151FEB015E01AE18BF08C017D10759F0F6
:100700006991D601ED91FC910190F081E02DC60137
:100710000995892B79F7C501DF91CF911F910F9131
:10072000FF90EF90DF90CF90BF90AF900895EF9241
:10073000FF920F931F93CF93DF93C82FD0E0A09623
:1007400095E0CC0FDD1F9A95E1F7E984F82EFF0CB8
:10075000FF0CFF0C01E010E08E2D8023A9F02F2D5F
:10076000210F30E0220F331FF901E45FF34D808148
:100770009181892B49F00190F081E02D2455344D71
:10078000D9018D919C9109951F5F000F183021F7B9
:10079000E986DF91CF911F910F91FF90EF9008951F
:1007A00081E008954F925F926F927F928F929F9215
:1007B000AF92BF92CF92DF92EF92FF920F931F936F
:1007C000CF93DF938C010E94E7026B017C01E8016B
:1007D000229688248A94982C54010E5E1F4FC017CD
:1007E000D10748F588819981892B01F10E94E702A0
:1007F0004C805D806E807F80AB01BC01441955093F
:100800006609770988859985AA85BB8548175907A0
:100810006A077B0768F4841B950BA60BB70B88153A
:100820009905AA05BB0510F44C015D016096D7CF70
:10083000812C912C54010E94E702DC01CB018C1920
:100840009D09AE09BF0988159905AA05BB05F8F4ED
:100850002FEF82169206A206B206C9F0A5019401F6
:10086000281B390B4A0B5B0BCA01B901DF91CF91F1
:100870001F910F91FF90EF90DF90CF90BF90AF90BE
:100880009F908F907F906F905F904F90089560E061
:1008900070E0CB01EBCFAF92BF92CF92DF92EF929D
:1008A000FF920F931F93CF93DF93EC0122968C015D
:1008B0000E5E1F4FAA24A394B12CC017D10708F0D5
:1008C00041C088819981892B51F10E94E7026B0117
:1008D0007C018C819D81AE81BF81A7019601281B7F
:1008E000390B4A0B5B0BDA01C901488559856A85CA
:1008F0007B8584179507A607B70788F0E881F981FB
:100900008A819B810995882361F08C859D85892B3F
:1009100041F0AC86BD86CC82DD82EE82FF8260969D
:10092000CCCF188219821A821B821C821D821E82E1
:100930001F82188619861A861B861C861D861E86AF
:100940001F86EDCFDF91CF911F910F91FF90EF9018
:10095000DF90CF90BF90AF9008958091D72890916D
:10096000D8288093172B9093182B8091D32890919F
:10097000D4289C01275031092230310520F51092EE
:100980001C2B10921D2B8091162B882389F061E07F
:1009900070E08DE00E94B80161E070E08DE00E949F
:1009A000B80161E070E08DE00E94B8011092162B52
:1009B000089510921D2B81E080931C2B80911D2B9C
:1009C000882309F308950997A0F381E080931D2BF4
:1009D00010921C2BF3CF8F929F92AF92BF92CF9227
:1009E000DF92EF92FF9280918C2B90918D2B892B2F
:1009F000E9F080917B2B90917C2B0397B9F40E94B6
:100A0000E702C0906F2BD090702BE090712BF0908C
:100A1000722B6C197D098E099F0921E060317742A4
:100A20008105910508F020E02093982B8091892B77
:100A300090918A2B892B09F48BC08091792B90910E
:100A40007A2B039709F084C080913A2B20916D2B6B
:100A500030916E2B2930310508F439C2811104C060
:100A6000809184288823C1F01092802810928128D8
:100A7000109282281092832820918D2830918E2800
:100A8000369527958AE092E0821B930B80937E280F
:100A900090937F281092842840918028509181283B
:100AA000609182287091832820917E2830917F2840
:100AB0004A3051056105710528F481E0283E93E034
:100AC000390708F080E08093952BC901B0E0A0E0E1
:100AD00084179507A607B70740F510928028109253
:100AE0008128109282281092832880918D289091DD
:100AF0008E2841E054E0481B590B6091E42A709124
:100B0000E52A469FC001479F900D569F900D1124E6
:100B100043E0969587954A95E1F72F5F3F4F820F07
:100B2000931F80937E2890937F28809180289091B6
:100B30008128A0918228B09183280196A11DB11D22
:100B40008093802890938128A0938228B093832853
:100B50008091862B9091872B892B09F48BC08091F3
:100B6000772B9091782B039709F084C08091372BD5
:100B70002091612B3091622B2930310508F419C284
:100B8000811104C080917D288823C1F010927928BA
:100B900010927A2810927B2810927C2820918F281E
:100BA00030919028369527958AE092E0821B930B2E
:100BB000809377289093782810927D284091792807
:100BC00050917A2860917B2870917C282091772819
:100BD000309178284A3051056105710528F481E08B
:100BE000283E93E0390708F080E08093932BC901F9
:100BF000B0E0A0E084179507A607B70740F510926C
:100C0000792810927A2810927B2810927C28809163
:100C10008F289091902841E054E0481B590B609137
:100C2000E22A7091E32A469FC001479F900D569F8C
:100C3000900D1124A3E096958795AA95E1F72F5F73
:100C40003F4F820F931F809377289093782880914D
:100C5000792890917A28A0917B28B0917C280196E0
:100C6000A11DB11D8093792890937A28A0937B28A9
:100C7000B0937C288091832B9091842B892B09F44D
:100C80008BC08091752B9091762B039709F084C0CF
:100C90008091342B2091592B30915A2B29303105DA
:100CA00008F4F9C1811104C0809176288823C1F02D
:100CB000109272281092732810927428109275283E
:100CC0002091912830919228369527958AE092E0DC
:100CD000821B930B80937028909371281092762832
:100CE00040917228509173286091742870917528F2
:100CF00020917028309171284A30510561057105A5
:100D000028F481E0283E93E0390708F080E08093E2
:100D1000912BC901B0E0A0E084179507A607B7079B
:100D200040F5109272281092732810927428109235
:100D30007528809191289091922841E054E0481BB9
:100D4000590B6091E02A7091E12A469FC001479FAC
:100D5000900D569F900D112473E0969587957A9586
:100D6000E1F72F5F3F4F820F931F8093702890937E
:100D700071288091722890917328A0917428B09165
:100D800075280196A11DB11D809372289093732838
:100D9000A0937428B09375288091802B9091812B1B
:100DA000892B09F48BC08091732B9091742B03973E
:100DB00009F084C08091312B2091512B3091522B1E
:100DC0002930310508F4D9C1811104C080916F2800
:100DD0008823C1F010926B2810926C2810926D2815
:100DE00010926E282091932830919428369527955B
:100DF0008AE092E0821B930B8093692890936A2883
:100E000010926F2840916B2850916C2860916D284A
:100E100070916E282091692830916A284A305105D6
:100E20006105710528F481E0283E93E0390708F058
:100E300080E080938F2BC901B0E0A0E08417950774
:100E4000A607B70740F510926B2810926C281092F5
:100E50006D2810926E28809193289091942841E0FB
:100E600054E0481B590B6091DE2A7091DF2A469F9F
:100E7000C001479F900D569F900D112443E0969519
:100E800087954A95E1F72F5F3F4F820F931F80931D
:100E9000692890936A2880916B2890916C28A09182
:100EA0006D28B0916E280196A11DB11D80936B280D
:100EB00090936C28A0936D28B0936E28FF90EF90CC
:100EC000DF90CF90BF90AF909F908F900895811149
:100ED00004C0809184288823B1F010928028109259
:100EE0008128109282281092832880918D289091D9
:100EF0008E28969587958C599F4F80937E28909346
:100F00007F281092842840918028509181286091F8
:100F1000822870918328C0907E28D0907F284A3004
:100F200051056105710528F481E03BE0C316D10449
:100F300008F480E08093952BF12CE12CC416D506A3
:100F4000E606F70608F0F1CD10928028109281286D
:100F500010928228109283286091E42A7091E52AE9
:100F600090E080E00E94103820E030E040E05EE356
:100F70000E949E382DEC3CEC4CEC5EE30E949E38C7
:100F800020E030E040E05FE30E9475374B015C01F8
:100F9000C701B6010E9410389B01AC01C501B40124
:100FA0000E949E380E94E13760937E2870937F28CC
:100FB000BCCD811104C080917D288823B1F01092AE
:100FC000792810927A2810927B2810927C288091A0
:100FD0008F2890919028969587958C599F4F809354
:100FE00077289093782810927D2840917928509105
:100FF0007A2860917B2870917C28C0907728D090C7
:1010000078284A3051056105710528F481E03BE0FC
:10101000C316D10408F480E08093932BF12CE12CCB
:10102000C416D506E606F70608F011CE1092792808
:1010300010927A2810927B2810927C286091E22AE4
:101040007091E32A90E080E00E94103820E030E0C8
:1010500040E05EE30E949E382DEC3CEC4CEC5EE3FD
:101060000E949E3820E030E040E05FE30E94753748
:101070004B015C01C701B6010E9410389B01AC0115
:10108000C501B4010E949E380E94E1376093772821
:1010900070937828DCCD811104C080917628882354
:1010A000B1F0109272281092732810927428109246
:1010B00075288091912890919228969587958C59C2
:1010C0009F4F8093702890937128109276284091BA
:1010D0007228509173286091742870917528C0907F
:1010E0007028D09071284A3051056105710528F4A7
:1010F00081E03BE0C316D10408F480E08093912B9B
:10110000F12CE12CC416D506E606F70608F031CE20
:1011100010927228109273281092742810927528D9
:101120006091E02A7091E12A90E080E00E941038FE
:1011300020E030E040E05EE30E949E382DEC3CEC85
:101140004CEC5EE30E949E3820E030E040E05FE33C
:101150000E9475374B015C01C701B6010E9410382F
:101160009B01AC01C501B4010E949E380E94E13789
:101170006093702870937128FCCD811104C0809118
:101180006F288823B1F010926B2810926C2810926F
:101190006D2810926E2880919328909194289695AE
:1011A00087958C599F4F8093692890936A28109255
:1011B0006F2840916B2850916C2860916D28709138
:1011C0006E28C0906928D0906A284A305105610580
:1011D000710528F481E03BE0C316D10408F480E0F7
:1011E00080938F2BF12CE12CC416D506E606F7066A
:1011F00008F051CE10926B2810926C2810926D2836
:1012000010926E286091DE2A7091DF2A90E080E0D3
:101210000E94103820E030E040E05EE30E949E38FB
:101220002DEC3CEC4CEC5EE30E949E3820E030E07C
:1012300040E05FE30E9475374B015C01C701B601D6
:101240000E9410389B01AC01C501B4010E949E3878
:101250000E94E1376093692870936A281CCE0F932F
:101260001F93CF93DF932091142B2223C9F1EC011C
:1012700061E070E08DE00E94B80161E070E08DE017
:101280000E94B80161E070E08DE00E94B80110E0BA
:1012900000E0C017D10769F070E060E08DE00E94C7
:1012A000B80161E070E08DE00E94B8010F5F1F4F50
:1012B000F0CF61E070E08DE00E94B80161E070E085
:1012C0008DE00E94B80161E070E08DE00E94B801FD
:1012D00081E08093962BDF91CF911F910F9108951C
:1012E0000196880F991F2091972B222359F0209166
:1012F000952830919628820F931F8093952890937C
:101300009628E9CF1092962B809395289093962853
:1013100081E08093972B2AEF31E140E659E060E0CD
:1013200070E087E09DE2DF91CF911F910F910C94C7
:1013300016034091E62A5091E72A20918C2B309198
:101340008D2BCA01821B930B60917B2B70917C2BA0
:1013500067307105C1F541E050E0232B11F450E0F6
:1013600040E0480F591F2091122B3091132B809190
:10137000192B90911A2B280F391F277033274217EA
:10138000530759F0CA01821B930B4217530718F4F5
:1013900008960097F1F00C942F098091162B882362
:1013A000C1F061E070E08DE00E94B80161E070E0A2
:1013B0008DE00E94B80161E070E08DE00E94B8010C
:1013C0001092962B0895452B21F0232B11F70197AE
:1013D000E0CF0895CF93DF938091C228882309F44A
:1013E000CEC06091E5287091E6289B0143E0220F72
:1013F000331F4A95E1F7F901EF5FF64DA481B581FE
:101400008091082B8111FFC0109709F4F7C08091DB
:10141000892890918A282091C0283091C1282817C6
:10142000390708F0EBC0409708F4E8C080910F2B13
:101430008111E4C08081918180937B2B90937C2BE0
:10144000828193818093FF2890930029A0938C2B15
:10145000B0938D2B268137812093E62A3093E72A9B
:1014600026E0969587952A95E1F78093D328909367
:10147000D42820910B2B30910C2B2130310509F40D
:10148000ABC008F4A1C02230310509F4AFC080918F
:101490007B2B90917C2B8093732B9093742B809358
:1014A000752B9093762B8093772B9093782B80934A
:1014B000792B90937A2B8091FF289091002980932B
:1014C00093289093942880939128909392288093C6
:1014D0008F289093902880938D2890938E288091C8
:1014E0008C2B90918D2B8093802B9093812B8093CC
:1014F000832B9093842B8093862B9093872B8093C0
:10150000892B90938A2B8091E62A9091E72A8093E9
:10151000DE2A9093DF2A8093E02A9093E12A809339
:10152000E22A9093E32A8093E42A9093E52A80911B
:10153000D3289091D4288093512B9093522B809351
:10154000592B90935A2B8093612B9093622B80930D
:101550006D2B90936E2B8091D7289091D8288093F3
:101560004F2B9093502B8093572B9093582B809315
:101570005F2B9093602B8093672B9093682B8091C7
:101580008C2B90918D2B892BC9F48091892B909174
:101590008A2B892B99F48091862B9091872B892B0C
:1015A00069F48091832B9091842B892B39F480915D
:1015B000802B9091812B892B09F449C281E0809383
:1015C0007E2BDF91CF9108958770992701968093A4
:1015D000D7289093D8285BCFFC01E770FF27EE0F48
:1015E000FF1FEA5FFC4480819181F1CFFC01E7702D
:1015F000FF27EE0FFF1FEA51FD44F5CF10928C2B11
:1016000010928D2B44CF4091892850918A28809147
:10161000C0289091C1288417950708F09FC14031D8
:10162000510508F49BC180910F2B811197C18081D6
:10163000918180937B2B90937C2B828193818093EB
:10164000FF2890930029A0938C2BB0938D2B0680BC
:10165000F781E02DE093E62AF093E72AC6E096951D
:101660008795CA95E1F78093D3289093D428E09189
:101670000B2BF0910C2BE130F10509F45DC108F45E
:1016800053C1329709F462C18091BE289091BF285E
:101690008417950708F081C14031510508F47DC1D8
:1016A00080910F2B811179C1F901EF5FF64DDF01B8
:1016B000AC5BBF4FCD91DC91DB0183E0AA0FBB1F78
:1016C0008A95E1F7AF5BB64D8D919C918093792B14
:1016D00090937A2BDF01AE5BBF4F8D919C918093ED
:1016E0008D2890938E28C093892BD0938A2BEA5B08
:1016F000FF4F0190F081E02DE093E42AF093E52A7A
:10170000E6E096958795EA95E1F780936D2B9093A7
:101710006E2BE0910B2BF0910C2BE130F10509F4CD
:101720002AC108F420C1329709F42FC18091BC2846
:101730009091BD288417950708F04EC1403151059E
:1017400008F44AC180910F2B811146C1F901EF5F66
:10175000F64DDF01AC57BF4FCD91DC91DB0183E04B
:10176000AA0FBB1F8A95E1F7AF57B64D8D919C919B
:101770008093772B9093782BDF01AE57BF4F8D91DD
:101780009C9180938F2890939028C093862BD09320
:10179000872BEA57FF4F0190F081E02DE093E22A7A
:1017A000F093E32AE6E096958795EA95E1F7809332
:1017B000612B9093622BE0910B2BF0910C2BE1307D
:1017C000F10509F4F7C008F4EDC0329709F4FCC044
:1017D0008091BA289091BB288417950708F01BC107
:1017E0004031510508F417C180910F2B811113C1AD
:1017F000F901EF5FF64DDF01AC53BF4FCD91DC91A6
:10180000DB0183E0AA0FBB1F8A95E1F7AF53B64D0A
:101810008D919C918093752B9093762BDF01AE5325
:10182000BF4F8D919C918093912890939228C09363
:10183000832BD093842BEA53FF4F0190F081E02D4E
:10184000E093E02AF093E12AE6E096958795EA9501
:10185000E1F78093592B90935A2BE0910B2BF09149
:101860000C2BE130F10509F4C4C008F4BAC032977A
:1018700009F4C9C08091B8289091B92884179507B8
:1018800008F0E0C04031510508F4DCC080910F2B16
:101890008111D8C02F5F364DF901EC5FFE4F4081BA
:1018A0005181E3E0660F771FEA95E1F7FB01EF5FF7
:1018B000F54D808191818093732B9093742BF90166
:1018C000EE5FFE4F808191818093932890939428BE
:1018D0004093802B5093812B2A5F3E4FF90120814A
:1018E00031812093DE2A3093DF2AF6E096958795A2
:1018F000FA95E1F78093512B9093522B20910B2B6B
:1019000030910C2B2130310509F492C008F488C0C5
:101910002230310509F033CEFC01E770FF27EE0FCE
:10192000FF1FEA51FD448BC0877099270196809371
:10193000D7289093D828A8CEFC01E770FF27EE0F98
:10194000FF1FEA5FFC4480819181F1CFFC01E770C9
:10195000FF27EE0FFF1FEA51FD44F5CF10928C2BAD
:1019600010928D2B91CE8770992701968093672BCB
:101970009093682BDBCEFC01E770FF27EE0FFF1F73
:10198000EA5FFC4480819181F1CFFC01E770FF2781
:10199000EE0FFF1FEA51FD44F5CF1092892B1092F4
:1019A0008A2BC4CE87709927019680935F2B9093E2
:1019B000602B0ECFFC01E770FF27EE0FFF1FEA5FE1
:1019C000FC4480819181F1CFFC01E770FF27EE0F8D
:1019D000FF1FEA51FD44F5CF1092862B1092872B02
:1019E000F7CE8770992701968093572B9093582BA9
:1019F00041CFFC01E770FF27EE0FFF1FEA5FFC44B9
:101A000080819181F1CFFC01E770FF27EE0FFF1F6E
:101A1000EA51FD44F5CF1092832B1092842B2ACFEC
:101A200087709927019680934F2B9093502BA7CDC9
:101A3000FC01E770FF27EE0FFF1FEA5FFC44808187
:101A40009181F1CF1092802B1092812B98CD109222
:101A50007E2BB7CD08954F925F926F927F928F92B7
:101A60009F92AF92BF92CF92DF92EF92FF92CF936D
:101A7000DF9300D000D0CDB7DEB74B015C010E94F0
:101A8000E702C090692BD0906A2BE0906B2BF0900E
:101A90006C2B40901E2B50901F2B6090202B709031
:101AA000212B84149504A604B70408F462C0A30192
:101AB0009201245631094109510929833A834B8304
:101AC0005C83D701C60172E0B695A7959795879577
:101AD0007A95D1F7820F931FA41FB51F881599051A
:101AE000AA05BB0508F042C0D701C601B695A79567
:101AF00097958795820F931FA41FB51F8816990687
:101B0000AA06BB0608F458C0A3E0B0E0A7019601FE
:101B10000E94303722E096958795779567952A95AC
:101B2000D1F729813A814B815C81620F731F841F39
:101B3000951F86169706A806B90608F440C0C40C7F
:101B4000D51CE61CF71C34E6C31AD108E108F108DD
:101B500083E090E08C149D04AE04BF04D8F084E0D0
:101B600090E0C814D904EA04FB04A0F090E080E0FF
:101B700011C0481859086A087B0881E090E044E6E3
:101B8000441651046104710410F490E080E09195D2
:101B9000819591092496CDBFDEBFDF91CF91FF9053
:101BA000EF90DF90CF90BF90AF909F908F907F90FD
:101BB0006F905F904F90089581E090E0EBCF82E0CE
:101BC00090E0E8CF81E08093462A0E94E70260938C
:101BD000422A7093432A8093442A9093452A089579
:101BE00081E080934B2A0E94E7026093472A70931A
:101BF000482A8093492A90934A2A089581E0809345
:101C0000502A0E94E70260934C2A70934D2A8093D9
:101C10004E2A90934F2A089581E08093552A0E947E
:101C2000E7026093512A7093522A8093532A90932B
:101C3000542A089580911B2890911C28009709F43C
:101C400050C062E370E04EEF5FEF8130910511F01C
:101C500050E040E02091872830918828460F571F98
:101C60004217530708F440C010921B2810921C28FA
:101C70008091092B90910A2B8130910509F434C190
:101C800008F428C1029709F43AC18091D3289091B1
:101C9000D428009709F43CC160E470E04CEE5FEF9B
:101CA0008130910511F050E040E02091FF28309103
:101CB0000029460F571F4217530708F42CC11092F2
:101CC000D3281092D42880910B2B90910C2B81302B
:101CD000910509F47DC308F46CC3029709F481C32C
:101CE00008956CE370E0B4CF81309105A9F068E706
:101CF00070E046EF5FEF8230910511F050E040E078
:101D0000460F571F4217530750F081E090E0809331
:101D10001B2890931C28ACCF62E870E0EFCF823094
:101D2000910589F06CE271E046EF5FEF8330910539
:101D300011F050E040E0460F571F4217530730F0B4
:101D400082E090E0E4CF66E371E0F3CF823091056A
:101D500011F16CE271E046EF5FEF8330910511F015
:101D600050E040E0460F571F42175307D0F483302E
:101D70009105A1F068E072E046EF5FEF84309105D5
:101D800011F050E040E0460F571F4217530748F04C
:101D900083E090E0BCCF66E371E0E2CF62E172E005
:101DA000F0CF8330910511F168E072E046EF5FEF0C
:101DB0008430910511F050E040E0460F571F421764
:101DC0005307D0F484309105A1F068EA72E046EF41
:101DD0005FEF8530910511F050E040E0460F571F4E
:101DE0004217530748F084E090E091CF62E172E03F
:101DF000E2CF62EB72E0F0CF8430910511F168EA36
:101E000072E046EF5FEF8530910511F050E040E061
:101E1000460F571F42175307D0F485309105A1F0A4
:101E200060E773E046EF5FEF8630910511F050E018
:101E300040E0460F571F4217530748F085E090E0F7
:101E400066CF62EB72E0E2CF6AE773E0F0CF8530F5
:101E5000910511F160E773E046EF5FEF8630910581
:101E600011F050E040E0460F571F42175307D0F4DF
:101E700086309105A1F068EE73E046EF5FEF8730A2
:101E8000910511F050E040E0460F571F42175307ED
:101E900048F086E090E03BCF6AE773E0E2CF62EF84
:101EA00073E0F0CF8630910579F048EE53E0079764
:101EB00071F090E080E0840F951F8217930708F07F
:101EC000D7CE87E090E023CF42EF53E0F2CF86EF0A
:101ED0009FEFF1CF80911B2890911C280196809351
:101EE000DD289093DE28D1CEE0911B28F0911C28AC
:101EF000EE0FFF1FEA5EFC4480819181F0CFE091FC
:101F00001B28F0911C28EE0FFF1FEA50FD44F4CF70
:101F100064E570E0C8CE81309105A9F060E870E01A
:101F20004CEE5FEF8230910511F050E040E0460F3B
:101F3000571F4217530750F081E090E08093D32859
:101F40009093D428C0CE64E970E0EFCF8230910541
:101F500089F060EC70E04CEE5FEF8330910511F09A
:101F600050E040E0460F571F4217530730F082E021
:101F700090E0E4CF64ED70E0F3CF8230910511F191
:101F800060EC70E04CEE5FEF8330910511F050E0B3
:101F900040E0460F571F42175307D0F48330910596
:101FA000A1F060E071E04CEE5FEF8430910511F03C
:101FB00050E040E0460F571F4217530748F083E0B8
:101FC00090E0BCCF64ED70E0E2CF64E171E0F0CF6F
:101FD0008330910511F160E071E04CEE5FEF8430E9
:101FE000910511F050E040E0460F571F421753078C
:101FF000D0F484309105A1F060E471E04CEE5FEF25
:102000008530910511F050E040E0460F571F421710
:10201000530748F084E090E091CF64E171E0E2CFB3
:1020200064E571E0F0CF8430910511F160E471E076
:102030004CEE5FEF8530910511F050E040E0460F27
:10204000571F42175307D0F485309105A1F060E87F
:1020500071E04CEE5FEF8630910511F050E040E00A
:10206000460F571F4217530748F085E090E066CFB0
:1020700064E571E0E2CF64E971E0F0CF853091056D
:1020800011F160E871E04CEE5FEF8630910511F0E0
:1020900050E040E0460F571F42175307D0F48630F8
:1020A0009105A1F060EC71E04CEE5FEF8730910597
:1020B00011F050E040E0460F571F4217530748F019
:1020C00086E090E03BCF64E971E0E2CF64ED71E03F
:1020D000F0CF8630910511F160EC71E04CEE5FEFCE
:1020E0008730910511F050E040E0460F571F42172E
:1020F0005307D0F487309105A1F060E072E04CEE18
:102100005FEF8830910511F050E040E0460F571F17
:102110004217530748F087E090E010CF64ED71E07C
:10212000E2CF64E172E0F0CF8730910511F160E019
:1021300072E04CEE5FEF8830910511F050E040E026
:10214000460F571F42175307D0F488309105A1F06E
:1021500060E472E04CEE5FEF8930910511F050E0E1
:1021600040E0460F571F4217530748F088E090E0C1
:10217000E5CE64E172E0E2CF64E572E0F0CF883052
:10218000910511F160E472E04CEE5FEF893091054A
:1021900011F050E040E0460F571F42175307D0F4AC
:1021A00089309105A1F060E872E04CEE5FEF8A3073
:1021B000910511F050E040E0460F571F42175307BA
:1021C00048F089E090E0BACE64E572E0E2CF64E9DD
:1021D00072E0F0CF8930910511F160E872E04CEEC9
:1021E0005FEF8A30910511F050E040E0460F571F35
:1021F00042175307D0F48A309105A1F060EC72E0E9
:102200004CEE5FEF8B30910511F050E040E0460F4F
:10221000571F4217530748F08AE090E08FCE64E9D9
:1022200072E0E2CF64ED72E0F0CF8A30910511F1F7
:1022300060EC72E04CEE5FEF8B30910511F050E0F6
:1022400040E0460F571F42175307D0F48B309105DB
:10225000A1F060E073E04CEE5FEF8C30910511F07F
:1022600050E040E0460F571F4217530748F08BE0FD
:1022700090E064CE64ED72E0E2CF64E173E0F0CF11
:102280008B30910511F160E073E04CEE5FEF8C3024
:10229000910511F050E040E0460F571F42175307D9
:1022A000D0F48C309105A1F060E473E04CEE5FEF68
:1022B0008D30910511F050E040E0460F571F421756
:1022C000530748F08CE090E039CE64E173E0E2CF50
:1022D00064E573E0F0CF8C30910511F160E473E0B8
:1022E0004CEE5FEF8D30910511F050E040E0460F6D
:1022F000571F42175307D0F48D309105A1F060E8C5
:1023000073E04CEE5FEF8E30910511F050E040E04D
:10231000460F571F4217530748F08DE090E00ECE4E
:1023200064E573E0E2CF64E973E0F0CF8D309105AE
:1023300011F160E873E04CEE5FEF8E30910511F023
:1023400050E040E0460F571F42175307D0F48E303D
:102350009105A1F060EC73E04CEE5FEF8F309105DA
:1023600011F050E040E0460F571F4217530748F066
:102370008EE090E0E3CD64E973E0E2CF64ED73E0DA
:10238000F0CF8E30910579F040EC53E00F9771F06B
:1023900090E080E0840F951F8217930708F093CC9C
:1023A0008FE090E0CBCD44ED53E0F2CF8CEE9FEF89
:1023B000F1CFE091D328F091D428EE0FFF1FEA5619
:1023C000FD44808191818093D7289093D8280895E7
:1023D000E091D328F091D428EE0FFF1FEA5FFC4470
:1023E000F0CFE091D328F091D428EE0FFF1FEA51EF
:1023F000FD44E7CFCF93DF93C0919528D0919628E5
:102400002197C0939528D0939628C0FF07C070E00D
:1024100060E08DE00E94B80181E019C061E070E0E9
:102420008DE00E94B801CD2BB9F71092972B8091C7
:10243000E62A9091E72A019769F480918C2B90917C
:102440008D2B892B39F081E08093962B80E0DF91F2
:10245000CF9108951092962BF9CFDC01ED91FC916C
:102460000088F189E02D23E030E00994CF93DF93D9
:10247000FC0101900020E9F73197AF01481B590B8F
:10248000BC018CE69CE20E946A03EC0142E050E051
:1024900060EB7BEB8CE69CE20E946A038C0F9D1F35
:1024A000DF91CF91089588ED90E084BF9093610013
:1024B00080E094E2A4EFB0E080930A2890930B2888
:1024C000A0930C28B0930D2880910206866080931B
:1024D00002068091000681608093000680910206CA
:1024E0008F7C809302068091A0008F788093A0005B
:1024F000809102068061809302061092E20581E0DD
:102500008093E40583E08093010A8FEF90E080934D
:10251000260A9093270A80E890E08093380A9093E7
:10252000390A80933A0A90933B0A80933C0A90932D
:102530003D0A8BE08093000A8091E50581608093DD
:10254000E5058091E50582608093E505E0E8FAE025
:1025500037E02FEF90E885E03183248795878083EB
:102560007096E03C4AE0F407B9F780E094E080938D
:10257000AA2B9093AB2B8091AA2B9091AB2B2FEF92
:1025800030E0B9010E941B396093A82B7093A92BEE
:102590008091AA2B9091AB2BE8EEF3E0BF010E9453
:1025A0001B396093A62B7093A72B8091AA2B909137
:1025B000AB2BBF010E941B398093A42B9093A52BBA
:1025C0002093BC0A3093BD0A8091B50A8160809344
:1025D000B50A84E08093B00A8091B00A816080934C
:1025E000B00A789408950F931F93CF93DF9330919F
:1025F0000F2B2091992B311163C0222309F464C061
:102600004C9A8091082890910928009709F05EC0A3
:102610008091192890911A280196877099278093A4
:10262000192890931A28311114C0211112C041E1C8
:1026300050E0FC01E050F84D3081311106C00196A8
:102640008770992741505109A1F7809319289093D9
:102650001A2881E080931628222309F43FC0809134
:102660000F2B81113BC08091E5289091E6282091A5
:10267000D9283091DA28820F931F87709927809389
:10268000192890931A288091192890911A2820913E
:102690001728309118288217930709F454C18830FD
:1026A000910508F050C1FC01E85AFC4E0C944339E6
:1026B000961499149D14A014AD14AF14B114B3144E
:1026C0008091062B81119CCF4C989BCF01978093D2
:1026D00008289093092810921628BECF80917E2B4F
:1026E000882309F492C08091082B811105C0809144
:1026F0007B2B90917C2BC3CF80911628882309F4E3
:10270000C2CF8091142890911528019665E070E061
:102710000E941B39AC01E0918C2BF0918D2BA09184
:10272000892BB0918A2BC091862BD091872B009159
:10273000832B1091842B6091802B7091812B2091A1
:102740000828909109284115510559F4309761F0F6
:102750002093082890930928109214281092152885
:10276000C6CF4130510589F4109791F02093082885
:102770009093092881E090E0809314289093152885
:102780008091792B90917A2B7ACF4230510589F440
:10279000209791F0209308289093092882E090E0F8
:1027A00080931428909315288091772B9091782B03
:1027B00066CF4330510591F40115110579F020934E
:1027C00008289093092883E090E080931428909340
:1027D00015288091752B9091762B51CF322F892F10
:1027E00021E090E06115710509F4B0CF309308281D
:1027F0008093092884E090E0809314289093152812
:102800008091732B9091742B3ACF80911628882356
:1028100009F439CFE0911928F0911A2880910F2BF3
:10282000811123C080917B2B90917C2B8E179F0769
:10283000A9F420911228309113282817390758F04D
:102840002AE030E02093082830930928809312284A
:102850009093132818CF21E030E0F4CF81E090E08E
:1028600080930828909309280ECF4091082B20913F
:10287000092B30910A2B80910B2B90910C2B5091AE
:10288000142BE830F105E8F7E85BFB4E0C94433974
:102890005014591463146D1476147C14821490141B
:1028A000552339F01092192810921A2882E090E0EE
:1028B000D7CF8230910539F421E030E020931928F8
:1028C00030931A28CDCF8130910539F482E090E021
:1028D0008093192890931A28C3CF009739F483E086
:1028E00090E08093192890931A28E0CF21153105A4
:1028F00019F484E090E0F5CF2130310519F485E03A
:1029000090E0EFCF2230310559F486E090E08093DB
:10291000192890931A282093082830930928B3CEB9
:10292000442309F4BDCF87E090E0DBCF089AAD984F
:1029300002C00898AD9A4E9806C00898AD9802C09B
:102940000898AD9A4E9A809317289093182881E0A2
:10295000DF91CF911F910F910895089AF2CF089AB5
:10296000EDCF089AE7CF0898E2CF8F929F92AF926F
:10297000BF92CF92DF92EF92FF920E94E7026B012B
:102980007C0180918C2B90918D2B892BE9F080918B
:102990007B2B90917C2B892BB9F480916F2B90919C
:1029A000702BA091712BB091722BB701A601481B1F
:1029B000590B6A0B7B0B81E0403157426105710571
:1029C00008F080E08093982B8091892B90918A2B3E
:1029D000892B21F18091792B90917A2B892BF1F41D
:1029E00080913A2B882381F020918D2830918E2878
:1029F000209367283093682820916D2B30916E2B9F
:102A000020936528309366282091672830916828A4
:102A10002431310508F089C01092952B8091862BC6
:102A20009091872B892B21F18091772B9091782B96
:102A3000892BF1F48091372B882381F020918F2806
:102A40003091902820936228309363282091612B45
:102A50003091622B20936028309361282091622866
:102A6000309163282431310508F0C1C01092932BB6
:102A70008091832B9091842B892B21F18091752B50
:102A80009091762B892BF1F48091342B882381F05F
:102A9000209191283091922820935D2830935E28D0
:102AA0002091592B30915A2B20935B2830935C282E
:102AB00020915D2830915E282431310508F0F9C05D
:102AC0001092912B8091802B9091812B892B21F159
:102AD0008091732B9091742B892BF1F48091312B81
:102AE000882381F0209193283091942820935828AE
:102AF000309359282091512B3091522B20935628F6
:102B00003093572820915828309159282431310585
:102B100008F031C110928F2BFF90EF90DF90CF9093
:102B2000BF90AF909F908F900895409165285091ED
:102B300066284830510508F58823B9F00E949D3673
:102B40008090672890906828B12CA12C22EC31E06D
:102B500040E050E00E94113721E0681579058A05B0
:102B60009B050CF020E0209364288091882B811134
:102B7000809164288093952B51CFE091882B483029
:102B8000510519F4E093952B49CFE111FBCF8091CA
:102B9000F7289091F828A091F928B091FA284601D9
:102BA0005701881A990AAA0ABB0A8091E42A9091CF
:102BB000E52A01963250829FA001839F500D929F7B
:102BC000500D1124A52FA6952091692B30916A2BC9
:102BD00040916B2B50916C2BB0E00E943037E1E0BC
:102BE00086169706A806B90668F2E0E0CBCF4091BA
:102BF0006028509161284830510508F58823B9F0C4
:102C00000E949D368090622890906328B12CA12C60
:102C100022EC31E040E050E00E94113721E06815DD
:102C200079058A059B050CF020E020935F288091B0
:102C3000852B811180915F288093932B19CFE09190
:102C4000852B4830510519F4E093932B11CFE111F6
:102C5000FBCF8091F3289091F428A091F528B091B2
:102C6000F62846015701881A990AAA0ABB0A8091D8
:102C7000E22A9091E32A01963250829FA001839F1D
:102C8000500D929F500D1124A52FA6952091692BD0
:102C900030916A2B40916B2B50916C2BB0E00E94CD
:102CA0003037E1E086169706A806B90668F2E0E03C
:102CB000CBCF40915B2850915C284830510508F5F6
:102CC0008823B9F00E949D3680905D2890905E2800
:102CD000B12CA12C22EC31E040E050E00E941137F1
:102CE00021E0681579058A059B050CF020E020930A
:102CF0005A288091822B811180915A288093912BA0
:102D0000E1CEE091822B4830510519F4E093912BEC
:102D1000D9CEE111FBCF8091EF289091F028A091BE
:102D2000F128B091F22846015701881A990AAA0A97
:102D3000BB0A8091E02A9091E12A01963250829F4D
:102D4000A001839F500D929F500D1124A52FA69591
:102D50002091692B30916A2B40916B2B50916C2BF9
:102D6000B0E00E943037E1E086169706A806B90663
:102D700068F2E0E0CBCF4091562850915728483078
:102D8000510508F58823B9F00E949D36C090582857
:102D9000D0905928F12CE12C22EC31E040E050E0B9
:102DA0000E94113721E06C157D058E059F050CF002
:102DB00020E02093552880917F2B81118091552808
:102DC00080938F2BA9CEE0917F2B4830510519F4C9
:102DD000E0938F2BA1CEE111FBCF8091EB28909156
:102DE000EC28A091ED28B091EE28C81AD90AEA0A79
:102DF000FB0A8091DE2A9091DF2A01963250829F51
:102E0000A001839F500D929F500D1124A52FA695D0
:102E10002091692B30916A2B40916B2B50916C2B38
:102E2000B0E00E943037E1E0C616D706E806F906A2
:102E300078F2E0E0CDCF0C94FD36CF92DF92FF9296
:102E40000F931F93CF93DF934091102B5091112B31
:102E500060918B2870918C28E6EBF2EB30E020E05B
:102E60001CEE81919191F22E032FD90111974A17EF
:102E70005B0709F0F6C0A4E1B0E08A0F9B1FACEE3F
:102E8000BFEF4217530711F0B0E0A0E02F5F3F4FB4
:102E90008A0F9B1F8617970708F0E6C0C080D18075
:102EA000C9010197C4E1D0E04817590711F0D0E0FB
:102EB000C0E01203D001139FB00D112481E090E017
:102EC000A417B50711F090E080E08C0D9D1D8C0FCC
:102ED0009D1F8617970708F4C7C0F092102B009328
:102EE000112B80910E2B882309F43EC080910F2B6B
:102EF00081113AC080910D2B811136C08091992BA0
:102F0000811132C0E091102BF091112BE050F84D5F
:102F1000808191E089278083A0E0B8E228E038E250
:102F2000FD0190E080E04191840F911D2E173F0735
:102F3000D1F7892B41F4E0911D28F0911E28E05033
:102F4000F84D81E0808327E030E060E08D91022E33
:102F500001C0880F0A94EAF7680F21503109B0F7D1
:102F600082E090E00E941B17A0E0B8E250E040E051
:102F700090E080E026E03D91332359F0249FF0015A
:102F8000259FF00D1124E15EF74D848395834F5FFB
:102F90005F4F01968830910571F7CFE1D8E2DE01ED
:102FA00030E020E0BA016150710900E014E04217FE
:102FB000530709F05EC060911D2870911E28E091B2
:102FC0008B28F0918C2890E080E0ACEEFA2E4881BE
:102FD00059819C01215031096217730709F0B2C071
:102FE00024E130E0420F531F2CEE3FEF68177907C2
:102FF00011F030E020E0420F531FA4E1B0E0681769
:10300000790711F0B0E0A0E08C010F5F1F4FE417CB
:10301000F50708F479C02F2D2003A001219F500D42
:10302000112421E030E04617570711F030E020E08E
:103030004A815B81240F351F2A0F3B1FE217F307DC
:1030400008F062C026E0289FF001299FF00D1124AE
:10305000E15EF74D8481958180931D2890931E2811
:1030600059C0B0E0A0E009CF2830310509F0F9CE11
:1030700038CF2115310579F410921F28109220289D
:103080006217730721F512960D931C9313972F5F08
:103090003F4F16968CCFFD01329780819181149617
:1030A000ED91FC9115978E0F9F1F9F778F309105A3
:1030B00058F4880F991FFC01E853FD4480819181E9
:1030C0008D939C931197DCCF90E080E0F9CF1A9616
:1030D0008D919C911B971496ED91FC9115978E0FF5
:1030E0009F1F9F778F30910560F4880F991FFC0117
:1030F000E853FD448081918112968D939C931397A0
:10310000C6CF90E080E0F8CF2696C80108301105C0
:1031100009F05DCF80911D2890911E2820917E2B73
:10312000211108C020910F2B211104C080937B2B0B
:1031300090937C2BDF91CF911F910F91FF90DF90A7
:10314000CF90089530E020E04DCFCF92DF92EF9204
:10315000FF920E94E7022091012B222309F454C11F
:103160002091DD283091DE2820938C2B30938D2BFD
:103170002093E62A3093E72A20917D2B222309F41D
:10318000B8C260936F2B7093702B8093712B9093C8
:10319000722BE0907B2BF0907C2B87E0E816F104FB
:1031A00099F40E94AD0480918B2B882319F081E063
:1031B0008093152B1092122B1092132B1092192B17
:1031C00010921A2B1092162B8091082B811121C17D
:1031D00080915428811156C01092262B1092272BD3
:1031E0001092282B1092292B10922A2B10922B2B05
:1031F00010922C2B10922D2B8FEF9FEF809369282C
:1032000090936A28809377289093782880937E28DB
:1032100090937F2810926B2810926C2810926D2842
:1032200010926E28109272281092732810927428AF
:10323000109275281092792810927A2810927B2883
:1032400010927C2810928028109281281092822857
:10325000109283288091882B811102C01092942BA8
:103260008091852B811102C01092922B8091822B2C
:10327000811102C01092902B80917F2B811102C08E
:1032800010928E2BEF2809F05CC00E949D36C090F2
:10329000FF28D0900029F12CE12C22EC31E040E015
:1032A00050E00E94113721E06C157D058E059F05C9
:1032B0000CF020E0209364280E949D36C090FF28E7
:1032C000D0900029F12CE12C22EC31E040E050E0DC
:1032D0000E94113721E06C157D058E059F050CF0CD
:1032E00020E020935F280E949D36C090FF28D09058
:1032F0000029F12CE12C22EC31E040E050E00E946A
:10330000113721E06C157D058E059F050CF020E03E
:1033100020935A280E949D36C090FF28D090002903
:10332000F12CE12C22EC31E040E050E00E9411371A
:1033300021E06C157D058E059F050CF020E02093A3
:10334000552810926F281092762810927D2810929E
:10335000842880917B2B90917C2B83309105E1F424
:103360002091882B222319F021E02093842820919A
:10337000852B222319F021E020937D282091822B98
:10338000222319F021E02093762820917F2B2223FD
:1033900019F021E020936F288093732B9093742B66
:1033A0008093752B9093762B8093772B9093782B2B
:1033B0008093792B90937A2B80918C2B90918D2BED
:1033C0008093802B9093812B8093832B9093842BDD
:1033D0008093862B9093872B8093892B90938A2BB5
:1033E0008091E62A9091E72A8093DE2A9093DF2A43
:1033F0008093E02A9093E12A8093E22A9093E32A33
:103400008093E42A9093E52A8091082B882309F47D
:103410006BC18091022B882309F456C00E941D17AE
:103420008093792B90937A2B2091DD283091DE28A0
:103430002093892B30938A2B2093E42A3093E52A1A
:10344000892BB9F40E949D36C090FF28D0900029A6
:10345000F12CE12C22EC31E040E050E00E941137E9
:1034600021E06C157D058E059F050CF020E0209372
:1034700064288091792B90917A2B039709F04AC1A7
:103480008091882B882309F445C181E080938428AA
:1034900080915328811118C010922C2B10922D2B43
:1034A0008FEF9FEF80937E2890937F281092802843
:1034B0001092812810928228109283288091882B64
:1034C000811102C01092942B8091032B882309F460
:1034D00056C00E941D178093772B9093782B2091D4
:1034E000DD283091DE282093862B3093872B209384
:1034F000E22A3093E32A892BB9F40E949D36C090CA
:10350000FF28D0900029F12CE12C22EC31E040E0A2
:1035100050E00E94113721E06C157D058E059F0556
:103520000CF020E020935F288091772B9091782BEE
:10353000039709F0F2C08091852B882309F4EDC030
:1035400081E080937D2880915228811118C01092CB
:103550002A2B10922B2B8FEF9FEF8093772890933D
:1035600078281092792810927A2810927B2810924D
:103570007C288091852B811102C01092922B809122
:10358000042B882309F456C00E941D178093752BC5
:103590009093762B2091DD283091DE282093832B89
:1035A0003093842B2093E02A3093E12A892BB9F4BD
:1035B0000E949D36C090FF28D0900029F12CE12C6C
:1035C00022EC31E040E050E00E94113721E06C1520
:1035D0007D058E059F050CF020E020935A288091F0
:1035E000752B9091762B039709F09AC08091822BCE
:1035F000882309F495C081E0809376288091512832
:10360000811118C01092282B1092292B8FEF9FEF59
:1036100080937028909371281092722810927328CA
:1036200010927428109275288091822B811102C00B
:103630001092902B8091052B882309F455C00E948D
:103640001D178093732B9093742B2091DD2830915C
:10365000DE282093802B3093812B2093DE2A309319
:10366000DF2A892BB9F40E949D36C090FF28D090A4
:103670000029F12CE12C22EC31E040E050E00E94E6
:10368000113721E06C157D058E059F050CF020E0BB
:10369000209355288091732B9091742B039709F0F8
:1036A00042C080917F2B8823F1F181E080936F28C5
:1036B00080915028811118C01092262B1092272B30
:1036C0008FEF9FEF8093692890936A2810926B2860
:1036D00010926C2810926D2810926E2880917F2B8A
:1036E000811102C010928E2BFF90EF90DF90CF904F
:1036F000089580911E2B90911F2BA091202BB091AB
:10370000212B80936F2B9093702BA093712BB093F0
:10371000722B3FCD10928428BBCE10927D2813CF00
:10372000109276286BCF10926F28C2CF80910E2B0B
:10373000882309F455C080917E2B882309F450C05A
:1037400080918C2B90918D2B892B29F08091B4281E
:1037500081110E9499098091E62A9091E72A0197A8
:103760008093FA2A9093FB2A10928C2B10928D2B27
:103770008091082B8823A1F18091E42A9091E52A79
:1037800001978093F82A9093F92A1092892B10922E
:103790008A2B8091E22A9091E32A01978093F62A5E
:1037A0009093F72A1092862B1092872B8091E02A13
:1037B0009091E12A01978093F42A9093F52A109230
:1037C000832B1092842B8091DE2A9091DF2A01971F
:1037D0008093F22A9093F32A1092802B1092812BDF
:1037E00080917D2B8823D9F020918C2B30918D2BCB
:1037F000232BA9F42091892830918A284091F02A1E
:103800005091F12A4217530750F42031310538F016
:1038100090910F2B911103C091E09093012B909107
:10382000082B992309F46BC0882309F468C08091A0
:10383000892B90918A2B892BA1F4809189289091D2
:103840008A282091EE2A3091EF2A2817390748F468
:10385000409738F080910F2B811103C081E0809355
:10386000022B8091862B9091872B892BA1F480913C
:10387000892890918A282091EC2A3091ED2A2817E6
:10388000390748F4409738F080910F2B811103C01D
:1038900081E08093032B8091832B9091842B892B43
:1038A000A1F48091892890918A282091EA2A309168
:1038B000EB2A2817390748F4409738F080910F2BEE
:1038C000811103C081E08093042B8091802B909123
:1038D000812B892BA1F48091892890918A282091AD
:1038E000E82A3091E92A2817390748F4409738F038
:1038F00080910F2B811103C081E08093052B809173
:10390000012B882309F4B7C08091FC2A882309F48D
:10391000B2C081E0809354280E941D178091082B2B
:10392000882309F44CC08091022B882309F4A6C097
:103930008091FD2A882309F4A1C081E08093532857
:103940000E941D178093792B90937A2B8091032BE3
:10395000882309F496C08091FE2A882309F491C037
:1039600081E0809352280E941D178093772B9093BB
:10397000782B8091042B882309F486C08091FF2A3C
:10398000882309F481C081E0809351280E941D178B
:103990008093752B9093762B8091052B882309F4C7
:1039A00076C08091002B882309F471C081E0809358
:1039B00050280E941D178093732B9093742B809135
:1039C000FC2A8823A9F08091E62A9091E72A0297A1
:1039D00030F480917B2B90917C2B079749F4809158
:1039E000992B811105C08091B42881110E949909F9
:1039F00080918C2B90918D2B892BC1F48091892BF8
:103A000090918A2B892B91F48091862B9091872B12
:103A1000892B61F48091832B9091842B892B31F435
:103A20008091802B9091812B892BA1F181E0809353
:103A30007E2B80915428811110C0809153288111D0
:103A40000CC080915228811108C0809151288111A9
:103A500004C080915028882301F181E080934F2891
:103A600080914F288823E1F08AE090E08093082835
:103A70009093092808951092542850CF10925328FB
:103A800065CF1092522875CF1092512885CF109291
:103A9000502895CF10927E2BCCCF10924F28E0CF9C
:103AA00008950C94F536CF92DF92EF92FF92CF9368
:103AB00061E070E081E00E94150270E060E080E16A
:103AC0000E94150261E070E082E00E94150261E050
:103AD00070E083E00E94150261E070E084E00E94E3
:103AE000150270E060E08FE00E94150270E060E077
:103AF0008EE00E94150270E060E089E00E941502ED
:103B000070E060E08BE00E94150270E060E08AE007
:103B10000E94150261E070E08DE00E94150261E0F4
:103B200070E087E00E94150261E070E088E00E948A
:103B3000150261E070E086E00E94150261E070E02D
:103B400085E00E94150270E060E08CE00E941502A2
:103B500070E060E081E10E94150262E070E080E0C8
:103B60000E94150261E070E081E00E94150270E0A1
:103B700060E085E10E94150270E060E084E10E944F
:103B8000150270E060E082E10E94150270E060E0E2
:103B900083E10E9415020898AD984E9A90E080E06B
:103BA0000E94511D813509F085C081E090E00E949E
:103BB000511DC82F82E090E00E94511DF82E83E035
:103BC00090E00E94511D90E080930B2B90930C2B62
:103BD00084E090E00E94511D90E08093092B909327
:103BE0000A2BE0E0F8E227E030E08F2D90E0AC0116
:103BF000022E02C0559547950A94E2F74170419311
:103C000021503109A0F78C2F81708093142BC1FBB8
:103C1000882780F98093082BC2FB882780F980933E
:103C20009F28C3FBCC27C0F9C093062B6CE07EE035
:103C30008EE00E947B006EEF7DE089E00E947B00B9
:103C400060EF7DE08BE00E947B0062EE7DE08AE029
:103C50000E947B000E94E7026B017C0120E4C20EFF
:103C600022E4D21E2FE0E21EF11C40E4C41642E41E
:103C7000D4064FE0E406F10438F40E94E702C616C9
:103C8000D706E806F906C8F30E94E7026C157D0521
:103C90008E059F05C8F323EF32E141E050E060E07C
:103CA00070E089E19DE2CF91FF90EF90DF90CF909F
:103CB0000C94160361E590E080E00E941B1760E021
:103CC00081E090E00E941B176FEF82E090E00E947D
:103CD0001B1760E083E090E00E941B1760E084E027
:103CE00090E00E941B17A2CF1F920F920FB60F9267
:103CF00011242F933F934F935F936F937F938F93F1
:103D00009F93AF93BF9340919C2B50919D2B6091BB
:103D10009E2B70919F2B80919A2B90919B2B2091A1
:103D2000A62B3091A72B420F531F611D711D2091AF
:103D3000A42B3091A52B820F931F883E23E092077E
:103D400030F0885E93404F5F5F4F6F4F7F4F80939F
:103D50009A2B90939B2B40939C2B50939D2B60937D
:103D60009E2B70939F2B8091A02B9091A12BA091C3
:103D7000A22BB091A32B0196A11DB11D8093A02B66
:103D80009093A12BA093A22BB093A32B81E08093BF
:103D9000B60ABF91AF919F918F917F916F915F9183
:103DA0004F913F912F910F900FBE0F901F9018953C
:103DB0001F920F920FB60F9211242F933F934F93A0
:103DC0005F936F937F938F939F93AF93BF93EF9383
:103DD000FF9385E00E949703FF91EF91BF91AF9110
:103DE0009F918F917F916F915F914F913F912F9113
:103DF0000F900FBE0F901F9018951F920F920FB645
:103E00000F9211242F933F934F935F936F937F9360
:103E10008F939F93AF93BF93EF93FF9384E00E94A0
:103E20009703FF91EF91BF91AF919F918F917F91F8
:103E30006F915F914F913F912F910F900FBE0F9017
:103E40001F9018951F920F920FB60F9211242F9367
:103E50003F934F935F936F937F938F939F93AF9312
:103E6000BF93EF93FF9383E00E949703FF91EF913D
:103E7000BF91AF919F918F917F916F915F914F9182
:103E80003F912F910F900FBE0F901F9018951F928A
:103E90000F920FB60F9211242F933F934F935F937E
:103EA0006F937F938F939F93AF93BF93EF93FF9302
:103EB00082E00E949703FF91EF91BF91AF919F9194
:103EC0008F917F916F915F914F913F912F910F90C3
:103ED0000FBE0F901F9018951F920F920FB60F9262
:103EE00011242F933F934F935F936F937F938F93FF
:103EF0009F93AF93BF93EF93FF9381E00E9497034B
:103F0000FF91EF91BF91AF919F918F917F916F91B1
:103F10005F914F913F912F910F900FBE0F901F9087
:103F200018951F920F920FB60F9211242F933F9363
:103F30004F935F936F937F938F939F93AF93BF93B1
:103F4000EF93FF9380E00E949703FF91EF91BF9161
:103F5000AF919F918F917F916F915F914F913F9121
:103F60002F910F900FBE0F901F9018951F920F92D8
:103F70000FB60F9211242F933F934F935F936F933C
:103F80007F938F939F93AF93BF93EF93FF938CE6B1
:103F90009CE20E940001FF91EF91BF91AF919F9130
:103FA0008F917F916F915F914F913F912F910F90E2
:103FB0000FBE0F901F9018951F920F920FB60F9281
:103FC00011242F933F934F935F936F937F938F931E
:103FD0009F93AF93BF93EF93FF93E091782CF09171
:103FE000792C818181FD2FC0608180917E2C8F5F33
:103FF0008F7390917F2C891741F0E0917E2CF0E037
:10400000E459F34D618F80937E2C8091052D909122
:10401000062D009739F0DC01ED91FC910190F081C3
:10402000E02D0995FF91EF91BF91AF919F918F91F5
:104030007F916F915F914F913F912F910F900FBEA4
:104040000F901F9018958081EDCFECE6FCE2128274
:10405000138288EE93E0A0E0B0E084839583A6838A
:10406000B7838AE99BEB8083918380E698E084871D
:10407000958788E1868789E1878780E4808B128A2B
:10408000138A148A158A86E2868B178A108E1092FC
:10409000052D1092062D1092192D10921A2D80E1E7
:1040A000EBE1FDE2DF01982F1D929A95E9F710925E
:1040B000072D1092082DE9E0FDE2DF011D928A959F
:1040C000E9F708950E9453120E94531DC1E087E052
:1040D0009DE20E944B0487E09DE20E94D20389E1A9
:1040E0009DE20E944B0489E19DE20E94D2039EB1B1
:1040F00081E0292F2470A22E92FD80E080938B2BEB
:104100009EB181E0392F3870B32E93FD80E080930B
:10411000882BF6B0F0944F2D4170F42E4093852BF0
:10412000D2B3D095D170D093822B96B181E0592F24
:104130005270C52E91FD80E080937F2B8EB18095CB
:1041400081708093B42892B381E0692F6270D62E7B
:1041500091FD80E08093B6289EB181E0792F727046
:10416000E72E91FD80E08093AC288AB185FB8827FB
:1041700080F98C278093AA2885E10E94C902E0E09B
:10418000F4E0E81BF90BE0938B28F0938C2884E192
:104190000E94C902412C24E0522E481A590A40922A
:1041A000892850928A2882E10E94C902612C34E059
:1041B000732E681A790A609287287092882883E1A2
:1041C0000E94C90200E014E0081B190B0093852827
:1041D000109386280093FF28109300290E941A0E3E
:1041E0008091992B811134C10093932810939428C6
:1041F000009391281093922800938F281093902871
:1042000000938D2810938E282091D7283091D8289C
:1042100020934F2B3093502B2093572B3093582BB8
:1042200020935F2B3093602B2093672B3093682B68
:104230002091D3283091D4282093512B3093522BA6
:104240002093592B30935A2B2093612B3093622B60
:1042500020936D2B30936E2B1092562A1092572A72
:104260001092582A1092592A1092312B1092342B06
:104270001092372B10923A2B10927D2BA11006C072
:104280009091B128911102C0C0937D2BB11006C04E
:104290009091B028911102C0C0933A2BFF2031F0C9
:1042A0009091AF28911102C0C093372BDD2331F0DC
:1042B0009091AE28911102C0C093342BC11006C05A
:1042C0009091AD28911102C0C093312BBB2029F0F1
:1042D0009091B0289111C093592AF11005C0909186
:1042E000AF289111C093582AD11105C09091AE28E2
:1042F0009111C093572ACC2029F09091AD289111AB
:10430000C093562A9091972B9923D9F090917D2BA9
:104310009923B9F0811115C080918C2B90918D2B30
:10432000892B31F080917B2B90917C2B079749F062
:104330008091952890919628029680939528909345
:1043400096280E94E702E1101092A828DD2011F4BF
:104350000C9449361092A628E1102FC02091AB286A
:10436000211108C060939B2870939C2880939D28FE
:1043700090939E28D110D6C02091B528211108C055
:1043800060939728709398288093992890939A28FF
:10439000EE2009F4C7C00091972810919828209129
:1043A000992830919A28601B710B820B930B663011
:1043B00071058105910508F0D0C08091A728811171
:1043C000CFC08091A828882309F4CAC0C093072BC6
:1043D0008091A5288111C7C08091A628882309F45F
:1043E000C2C0C093B7280E94E70220910E2B22235F
:1043F00031F010920E2B1092A42810920D2B4091A8
:10440000AA28442311F40C944E362091A928211196
:1044100008C06093A0287093A1288093A22890934D
:10442000A3280091A0281091A1282091A2283091C2
:10443000A328DC01CB01801B910BA20BB30B893E9F
:1044400053E09507A105B10508F090C0142FD2C024
:104450002091892B30918A2B232BA1F400938D2856
:1044600010938E282091D7283091D8282093672B3D
:104470003093682B2091D3283091D42820936D2B32
:1044800030936E2B2091862B3091872B232BA1F418
:1044900000938F28109390282091D7283091D82806
:1044A00020935F2B3093602B2091D3283091D42818
:1044B0002093612B3093622B2091832B3091842B9E
:1044C000232BA1F400939128109392282091D728B0
:1044D0003091D8282093572B3093582B2091D328F4
:1044E0003091D4282093592B30935A2B2091802B34
:1044F0003091812B232B09F0AFCE0093932810939A
:1045000094282091D7283091D82820934F2B30938E
:10451000502B2091D3283091D4282093512B3093C5
:10452000522B9ACE00919B2810919C2820919D2877
:1045300030919E284B015C01801A910AA20AB30AAD
:1045400095018401053F11402105310518F4D11072
:1045500034CF21CFC093A828FACFC093A6282DCF5F
:104560001092072B35CF1092B7283DCF2091A42869
:10457000211106C02091992B211102C0C093A428BB
:1045800081349244AF40B10508F460CF80910D2B87
:1045900081115CCF80910F2B8C2780930F2BC093C0
:1045A0000D2B811153CF60910B2B83E090E00E9483
:1045B0001B176091092B84E090E00E941B1760910B
:1045C000142B8091082B8111626080919F288111AA
:1045D00064608091062B8111686081E090E00E9408
:1045E0001B171091AA28111105C08091A9288111CB
:1045F000C0930E2B0E94E70220917D2B222331F1E4
:10460000C0901E2BD0901F2BE090202BF090212BE0
:104610002B013C014C185D086E087F087301620194
:1046200025E6C216D104E104F10480F0C092692BA2
:10463000D0926A2BE0926B2BF0926C2B60931E2B26
:1046400070931F2B8093202B9093212BD0913A2B8A
:104650002091992B2111D6C0DD2331F1C090632B1D
:10466000D090642BE090652BF090662B2B013C01E1
:104670004C185D086E087F087301620125E6C216BA
:10468000D104E104F10480F0C092472BD092482B72
:10469000E092492BF0924A2B6093632B7093642B2A
:1046A0008093652B9093662B2091592A222341F009
:1046B0006093F7287093F8288093F9289093FA284C
:1046C0002091372B222331F1C0905B2BD0905C2BB3
:1046D000E0905D2BF0905E2B2B013C014C185D08A7
:1046E0006E087F087301620125E6C216D104E10459
:1046F000F10480F0C092432BD092442BE092452BE2
:10470000F092462B60935B2B70935C2B80935D2B18
:1047100090935E2B2091582A222341F06093F32836
:104720007093F4288093F5289093F6282091342BE9
:10473000222331F1C090532BD090542BE090552B75
:10474000F090562B2B013C014C185D086E087F0839
:104750007301620125E6C216D104E104F10480F080
:10476000C0923F2BD092402BE092412BF092422BF3
:104770006093532B7093542B8093552B9093562B0F
:104780002091572A222341F06093EF287093F0285C
:104790008093F1289093F2282091312B222331F13C
:1047A000C0904B2BD0904C2BE0904D2BF0904E2B8B
:1047B0002B013C014C185D086E087F0873016201F3
:1047C00025E6C216D104E104F10480F0C0923B2B2F
:1047D000D0923C2BE0923D2BF0923E2B60934B2BE2
:1047E00070934C2B80934D2B90934E2B2091562AF7
:1047F000222341F06093EB287093EC288093ED28FE
:104800009093EE2880918B2B8093B1288091882BF8
:104810008093B0288091852B8093AF288091822B44
:104820008093AE2880917F2B8093AD288091B6280D
:104830008093B5288091AC288093AB281093A92849
:104840008091A8288093A7288091A6288093A528E6
:104850000E94E7024B015C011092412A10922E2B1C
:1048600080911E2B90911F2BA091202BB091212B7A
:1048700075016401C81AD90AEA0AFB0A2091692B5A
:1048800030916A2B40916B2B50916C2BDA01C9014E
:1048900002E0B695A795979587950A95D1F78C155F
:1048A0009D05AE05BF0550F488519C4FAF4FBF4FDB
:1048B000F1E0C816D906EA06FB0608F0F0E0DA01D6
:1048C000C901B695A795979587958C159D05AE0559
:1048D000BF0550F488519C4FAF4FBF4FE1E0C81661
:1048E000D906EA06FB0608F0E0E0A3E0B0E00E948B
:1048F0003037A2E09695879577956795AA95D1F779
:104900006C157D058E059F0550F468517C4F8F4FC7
:104910009F4F21E0C616D706E806F90608F020E00A
:1049200038EEC31633E0D306E104F10460F0F11170
:1049300008C0E11108C090E080E0222391F080E0FF
:1049400009C0EE23E1F38091B328811103C0C09325
:104950002E2B81E09091B228911103C0C093412A7F
:1049600091E030912E2B332341F08092222B9092B4
:10497000232BA092242BB092252B8093B3289093C5
:10498000B22848EEC41643E0D406E104F10420F452
:104990001092DC2A1092DD2AFF2331F081E090E0B2
:1049A0008093DC2A9093DD2AEE2331F062E070E000
:1049B0006093DC2A7093DD2A222331F083E090E0BB
:1049C0008093DC2A9093DD2AD111C093942B80919F
:1049D000372B8111C093922B8091342B8111C0937E
:1049E000902B8091312B8111C0938E2B0E941D172B
:1049F0001091072B112349F080910F2B811105C0D5
:104A00008091992B8C278093992BD091B7288091F6
:104A1000992B9091062B992309F4AEC0DD2319F050
:104A20008C278093992B8091B628811109C08091A1
:104A3000B528882329F08091992B8C278093992B76
:104A40001111A0C0D1119EC0D0917D2BDD2359F052
:104A50008091DA2A9091DB2A0196877099278093BA
:104A6000DA2A9093DB2A8091992B882309F4C0C518
:104A70000E94E7026B017C0180910F2B81112AC0FB
:104A80008091DD289091DE288093DB289093DC28AC
:104A90008091102B9091112B2091D9283091DA28F8
:104AA000821B930B97FDFCC0877099278093E728A2
:104AB0009093E8288091D7289091D8288093D52882
:104AC0009093D6288091D3289091D4288093D12890
:104AD0009093D228DD23C1F08091CF289091D028E7
:104AE00001966091D5287091D6280E941B39809339
:104AF000CF289093D0288091CD289091CE280196F0
:104B00008093CD289093CE28A090D128B090D22821
:104B1000450177E0871A91088AE0A816B10408F4E5
:104B2000C7C080911E2B90911F2BA091202BB0917C
:104B3000212B26013701481A590A6A0A7B0A20915B
:104B4000D5283091D62850E040E06091692B7091D3
:104B50006A2B80916B2B90916C2B0E944337C30181
:104B6000B2010E94433721E0683873418105910505
:104B700008F41CC520E01AC5DD2309F461CF8C2799
:104B80008093992B8091992B882311F40C942F36C4
:104B90008091B428882341F080918C2B90918D2BAB
:104BA000892B11F00E9499098091DA2A9091DB2AD1
:104BB0008093E1289093E2282091102B3091112BC3
:104BC0002093D9283093DA2820918B2B222349F087
:104BD000019797FD61C0877099278093E128909392
:104BE000E2281092CF281092D0281092CD2810924F
:104BF000CE281092CB281092CC281092E92810923F
:104C0000E3281092E428111103C0DD2309F41CCF1E
:104C10008091992B811118CF8091B428882339F184
:104C20002091CD283091CE284091E5285091E6285A
:104C300024173507C1F027703327C901841B950B52
:104C40004217530708F0089620918B2B21110197EA
:104C50002091142B211103C0009729F00197009790
:104C600011F00E942F091092CD281092CE28109298
:104C7000802B1092812B1092832B1092842B1092F8
:104C8000862B1092872B1092892B10928A2B1092D0
:104C90008C2B10928D2BD8CE089697FDFDCF9DCFF3
:104CA0009C0120953095287F0896820F931FFECE99
:104CB000F3E08F16910408F05BC480918B2B8093F6
:104CC000EA288091DC2A9091DD2A8093DF28909356
:104CD000E0280091DB281091DC280130110551F407
:104CE00048E0A416B10431F41092EA281092DF28AB
:104CF0001092E0288091EA28882381F18091E928A8
:104D000081112CC08091CB289091CC280196B801BC
:104D10000E941B398093CB289093CC288091C72880
:104D20009091C828A091C928B091CA2826013701BE
:104D3000481A590A6A0A7B0AD301C2018093C32820
:104D40009093C428A093C528B093C628C092C728C2
:104D5000D092C828E092C928F092CA2823E082168F
:104D6000910418F18091C7289091C828A091C92872
:104D7000B091CA28C81AD90AEA0AFB0AC701B601C3
:104D8000E2E0660F771F881F991FEA95D1F72091FF
:104D9000C3283091C4284091C5285091C6280E944C
:104DA00043372093DF283093E0288091E7289091C3
:104DB000E8280130110509F0FCC38093E5289093A1
:104DC000E6282091E5283091E6288091E32890910B
:104DD000E4282817390709F406C4C093C2280E94A2
:104DE0009D3626EB33E040E050E00E94113760939F
:104DF000C0287093C1282091082B222309F4E2C314
:104E00000E949D3626EB33E040E050E00E941137CF
:104E10006093BE287093BF280E949D3626EB33E036
:104E200040E050E00E9411376093BC287093BD2889
:104E30000E949D3626EB33E040E050E00E9411379F
:104E40006093BA287093BB280E949D3626EB33E00E
:104E500040E050E00E9411376093B8287093B92861
:104E60000091E5281091E6284091E3285091E4282C
:104E70000417150779F0C801841B950B2091142B9A
:104E80002C2730E04017510708F0B0C3821B930B6A
:104E90000E942F09E091E128F091E228E00FF11F34
:104EA000E770FF278091DF289091E028EE0FFF1F29
:104EB000EE0FFF1FE65AF54DE80FF91FD080D09294
:104EC000882BE0A0E092852BDF01A05CBF4FFC9017
:104ED000F092822BE05AFF4FD081D0937F2B8091AC
:104EE000EA288093E9280093E3281093E4280E949D
:104EF000E7021092562A1092572A1092582A1092BE
:104F0000592A1092312B1092342B1092372B109279
:104F10003A2BDD2031F02091FE28211102C0C093F0
:104F20003A2BEE2031F02091FD28211102C0C093D0
:104F3000372BFF2031F02091FC28211102C0C093B3
:104F4000342BDD2331F02091FB28211102C0C093C6
:104F5000312BD11005C02091FE282111C093592A70
:104F6000E11005C02091FD282111C093582AF110AD
:104F700005C02091FC282111C093572AD11105C0EA
:104F80002091FB282111C093562A50913A2B55238A
:104F900001F10091632B1091642B2091652B3091CE
:104FA000662B2B013C01401A510A620A730A9301D5
:104FB00082010093472B1093482B2093492B309369
:104FC0004A2B6093632B7093642B8093652B909393
:104FD000662B2091592A222341F06093F728709381
:104FE000F8288093F9289093FA284091372B44238E
:104FF00001F100915B2B10915C2B20915D2B309186
:105000005E2B3B014C01601A710A820A930A9401DB
:1050100083010093432B1093442B2093452B309313
:10502000462B60935B2B70935C2B80935D2B90934E
:105030005E2B2091582A222341F06093F32870932D
:10504000F4288093F5289093F6283091342B33235D
:1050500001F18090532B9090542BA090552BB09041
:10506000562B2B013C01481859086A087B0853014C
:10507000420180923F2B9092402BA092412BB09204
:10508000422B6093532B7093542B8093552B90930A
:10509000562B2091572A222341F06093EF287093DA
:1050A000F0288093F1289093F2282091312B22232D
:1050B00001F180904B2B90904C2BA0904D2BB090F9
:1050C0004E2B2B013C01481859086A087B085301F4
:1050D000420180923B2B90923C2BA0923D2BB092B0
:1050E0003E2B60934B2B70934C2B80934D2B9093C6
:1050F0004E2BE091562AEE2341F06093EB287093FB
:10510000EC288093ED289093EE28D092FE28E09230
:10511000FD28F092FC28D093FB285111C093942BCA
:105120004111C093922B3111C093902B2111C09348
:105130008E2B8091992B8111A6C480918C2B9091FC
:105140008D2B8930910530F08770992780938C2BB7
:1051500090938D2B2091082B2223A1F18091892BF4
:1051600090918A2B8930910530F087709927809330
:10517000892B90938A2B8091862B9091872B893055
:10518000910530F0877099278093862B9093872B19
:105190008091832B9091842B8930910530F087701A
:1051A00099278093832B9093842B8091802B9091CF
:1051B000812B8930910530F0877099278093802B5F
:1051C0009093812B1092052B1092042B1092032B9D
:1051D0001092022B1092012B1092002B1092FF2A9A
:1051E0001092FE2A1092FD2A1092FC2A80917D2BAB
:1051F000882309F497C18091FA2A9091FB2A00979D
:1052000029F001978093FA2A9093FB2A222361F1D7
:105210008091F82A9091F92A009729F001978093BC
:10522000F82A9093F92A8091F62A9091F72A00970C
:1052300029F001978093F62A9093F72A8091F42A17
:105240009091F52A009729F001978093F42A909382
:10525000F52A8091F22A9091F32A009729F001977C
:105260008093F22A9093F32A0E949D364091FA2A65
:105270005091FB2A2AE5249F8001259F100D1124BF
:1052800028EE33E040E050E00E941137DC01CB0112
:10529000800F911FA11DB11D893EF3E09F07A1055D
:1052A000B10524F088EE93E0A0E0B0E08093F02A0E
:1052B0009093F12A2091082B222309F4D3C30E9452
:1052C0009D364091F82A5091F92A2AE5249F8001C1
:1052D000259F100D112428EE33E040E050E00E949D
:1052E0001137DC01CB01800F911FA11DB11D893E3B
:1052F00023E09207A105B10524F088EE93E0A0E039
:10530000B0E08093EE2A9093EF2A0E949D36409160
:10531000F62A5091F72A2AE5249F8001259F100D37
:10532000112428EE33E040E050E00E941137DC0108
:10533000CB01800F911FA11DB11D893E33E0930762
:10534000A105B10524F088EE93E0A0E0B0E08093E1
:10535000EC2A9093ED2A0E949D364091F42A5091B8
:10536000F52A2AE5249F8001259F100D112428EE9F
:1053700033E040E050E00E941137DC01CB01800FA8
:10538000911FA11DB11D893E43E09407A105B10500
:1053900024F088EE93E0A0E0B0E08093EA2A9093B6
:1053A000EB2A0E949D364091F22A5091F32A2AE579
:1053B000249F8001259F100D112428EE33E040E04A
:1053C00050E00E941137DC01CB01800F911FA11D1D
:1053D000B11D893E53E09507A105B10524F088EE83
:1053E00093E0A0E0B0E08093E82A9093E92A8091CE
:1053F0008C2B90918D2B8130910561F4C093FC2A08
:105400002091E62A3091E72A215031092093FA2A87
:105410003093FB2A2091082B222309F44CC02091C1
:10542000892B30918A2B2130310561F4C093FD2AFC
:105430002091E42A3091E52A215031092093F82A5D
:105440003093F92A2091862B3091872B213031051A
:1054500061F4C093FE2A2091E22A3091E32A215080
:1054600031092093F62A3093F72A2091832B30912B
:10547000842B2130310561F4C093FF2A2091E02A6A
:105480003091E12A215031092093F42A3093F52AF2
:105490002091802B3091812B2130310561F4C09314
:1054A000002B2091DE2A3091DF2A215031092093F0
:1054B000F22A3093F32A2091992B211133C00097BF
:1054C00029F0019780938C2B90938D2B8091892BC1
:1054D00090918A2B009729F001978093892B9093C4
:1054E0008A2B8091862B9091872B009729F001972A
:1054F0008093862B9093872B8091832B9091842B84
:10550000009729F001978093832B9093842B8091AF
:10551000802B9091812B009729F001978093802B0D
:105520009093812B0E94961B0E94A51880910F2BAF
:10553000882309F4B9C280910E2B882309F4ABC2E9
:1055400080910D2B8111A7C2E091102BF091112BAE
:10555000E830F10508F09FC2E055F54D0C94433951
:10556000462DD72DDE2DE52DEA2DEF2DF62DF92D2B
:105570008091CF289091D028892B09F0FBCA809187
:105580001E2B90911F2BA091202BB091212B260137
:105590003701481A590A6A0A7B0AD301C20121E07D
:1055A00088389341A105B10508F0E4CA2093EA28A0
:1055B00090CB2091CB283091CC28820F931F8770FD
:1055C0009927FBCB6093B8287093B9286093BA28C9
:1055D0007093BB286093BC287093BD286093BE284D
:1055E0007093BF283DCC1092C2283ACC08964ECC7E
:1055F000DD2309F4B0C08091DA2A9091DB2AFC0106
:10560000A3E0EE0FFF1FAA95E1F7EF5FF64D2091A3
:105610007B2B30917C2B208331832091FF2830918C
:1056200000292283338340918C2B50918D2B44830E
:1056300055834091E62A5091E72A46835783DC013F
:10564000D3E0AA0FBB1FDA95E1F7AF5BB64D4091EF
:10565000792B50917A2B4D935C93DF01AE5BBF4F5A
:105660002D933C93119712964091892B50918A2B40
:105670004D935C93119712964091E42A5091E52A3C
:105680004D935C93DC0113E0AA0FBB1F1A95E1F761
:10569000AF57B64D4091772B5091782B4D935C933B
:1056A000DF01AE57BF4F2D933C9311971296409157
:1056B000862B5091872B4D935C93119712964091B6
:1056C000E22A5091E32A4D935C93DC0103E0AA0F98
:1056D000BB1F0A95E1F7AF53B64D4091752B509122
:1056E000762B4D935C93DF01AE53BF4F2D933C93CC
:1056F000119712964091832B5091842B4D935C937C
:10570000119712964091E02A5091E12A4D935C93B3
:1057100043E0880F991F4A95E1F7DC01AF5FB54D73
:105720008091732B9091742B8D939C93DF01AE5FCE
:10573000BE4F2D933C93119712968091802B9091A0
:10574000812B8D939C93EA5FFE4F8091DE2A90918E
:10575000DF2A808391830E94E7020091DC2A109166
:10576000DD2A8091412A8823B9F18091DA2A90912B
:10577000DB2A880F991F880F991FFC01E65AF54D07
:10578000E00FF11FDF01A05ABF4F1C9290971C92AF
:1057900010A210822091882B2111C0832091852B8B
:1057A000222331F0FC01E65AF54DE00FF11FC0A3B2
:1057B0002091822B222331F0F801E80FF91FE656E1
:1057C000F54DC08320917F2B222331F0800F911F54
:1057D000FC01E654F54DC0838091552A882319F1C8
:1057E0006091512A7091522A8091532A9091542AA3
:1057F0000E942B0D9C01215031092330310588F482
:105800002091DA2A3091DB2A220F331F220F331F17
:10581000265A354D820F931FFC01C0831092552AE2
:1058200002C00497D8F38091502A882319F160911F
:105830004C2A70914D2A80914E2A90914F2A0E94B5
:105840002B0D9C01215031092330310588F4209122
:10585000DA2A3091DB2A220F331F220F331F265AF8
:10586000354D820F931FFC01C0A31092502A02C035
:105870000497D8F380914B2A882319F16091472A25
:105880007091482A8091492A90914A2A0E942B0DB2
:105890009C01215031092330310588F42091DA2A06
:1058A0003091DB2A220F331F220F331F820F931FE9
:1058B000FC01E656F54DC08310924B2A02C00497B6
:1058C000D8F38091462A882319F16091422A709179
:1058D000432A8091442A9091452A0E942B0D9C01D5
:1058E000215031092330310588F42091DA2A309192
:1058F000DB2A220F331F220F331F820F931FFC015D
:10590000E654F54DC0831092462A02C00497D8F39E
:10591000C8018D7F009709F457C00230110521F5A9
:105920002091342B222369F0E091DA2AF091DB2ACE
:10593000EE0FFF1FEE0FFF1FE00FF11FE656F54DB4
:10594000C083009789F42091312B222369F0E091E4
:10595000DA2AF091DB2AEE0FFF1FEE0FFF1FE00F98
:10596000F11FE654F54DC0838130910509F453C011
:105970000330110509F0DDCB2091572A222369F06D
:10598000E091DA2AF091DB2AEE0FFF1FEE0FFF1FE6
:10599000E00FF11FE656F54D1082019709F0C9CBD3
:1059A0008091562A882309F4C4CB8091DA2A9091F9
:1059B000DB2A880F991F880F991F080F191FF801FC
:1059C000E654F54D1082B5CB20913A2B222369F095
:1059D000E091DA2AF091DB2AEE0FFF1FEE0FFF1F96
:1059E000E65AF54DE00FF11FC0832091372B22239B
:1059F00069F0E091DA2AF091DB2AEE0FFF1FEE0F3B
:105A0000FF1FE65AF54DE00FF11FC0A30115110568
:105A100009F486CF82CF2091592A222369F0E091A0
:105A2000DA2AF091DB2AEE0FFF1FEE0FFF1FE65A76
:105A3000F54DE00FF11F10822091582A222369F0C2
:105A4000E091DA2AF091DB2AEE0FFF1FEE0FFF1F25
:105A5000E65AF54DE00FF11F10A20130110509F4CF
:105A60008BCF86CF8093E82A9093E92A8093EA2A05
:105A70009093EB2A8093EC2A9093ED2A8093EE2A60
:105A80009093EF2AB4CC0E94EA0950CD8091142B58
:105A90008C278093142B8091072B882329F08091E9
:105AA000062B8C278093062B80918C2B90918D2B2D
:105AB000892B31F480918B2B8093982BC093962B5C
:105AC0008091892B90918A2B892B31F48091882B9E
:105AD0008093952BC093942B8091862B9091872B4C
